:10000000B9C00000D3C00000D1C00000CFC00000C4
:10001000CDC00000CBC00000C9C00000C7C00000B8
:10002000C5C00000C3C000000C94E40A0C94AA0BE5
:10003000BDC00000BBC00000B9C00000B7C00000D8
:10004000B5C00000B3C00000B1C00000AFC00000E8
:10005000ADC00000ABC00000A9C00000A7C00000F8
:10006000A5C00000A3C00000A1C000009FC0000008
:100070009DC000009BC0000099C0000097C0000018
:1000800095C0000093C0000091C000008FC0000028
:100090008DC000008BC0000089C0000087C0000038
:1000A00085C0000083C0000081C0000044037800C8
:1000B00075006D003100350034003100200066000D
:1000C0006C006F0070007000790020006100640017
:1000D000610070007400650072002000280050006C
:1000E00052004F004D004900430052004F002900CC
:1000F00000003A034E0061007400650020004C00CF
:100100006100770073006F006E00200061006E00D8
:10011000640020004F00700065006E004300420044
:100120004D0020007400650061006D0000000403B4
:1001300009040902200001010080320904000002C4
:10014000FF000000070583022000000705040220CD
:10015000000012011001FF000008D0160405080578
:10016000010203010004080C1014181C4044484C00
:100170005054585C11241FBECFEFDAE0DEBFCDBF74
:1001800011E0A0E0B1E0E0EAF1E202C005900D92DA
:10019000AE31B107D9F721E0AEE1B1E001C01D9267
:1001A000AE33B207E1F7F2D00C94AA1029CF8091B8
:1001B0002E01089581E0FFD510922E0181E08093F9
:1001C0001E01089510921E0110922C0180E0F3C5CB
:1001D0000F931F93CF93DF93CDB7DEB728970FB65A
:1001E000F894DEBF0FBECDBF80913601807680329D
:1001F00089F48E010F5F1F4F88E0F80111928A95F4
:10020000E9F7B8018091370163D2682F8F3F69F415
:1002100084E0D1D528960FB6F894DEBF0FBECDBFCF
:10022000DF91CF911F910F9108958091E800877F12
:100230008093E8008091360187FF10C0062E000CE5
:10024000770BC8010E943A098091E800982F9B7FA4
:100250009093E8008F778093E800DCCF8091E800EE
:1002600080FFFCCF8091E800982F9E7FF1CFE9EED0
:10027000F0E08081877091E090932E0194E090836C
:10028000ABEEB0E09C9190629C9393E090839C9144
:1002900090629C9380830895CF93A89580912E01BE
:1002A000C0E0811105C0A2D5C82F882321F094D5C4
:1002B0008C2FCF910895C1E0FBCF8091E90087702A
:1002C000E0E0F1E021E030E09191911103C08093F2
:1002D000E90008959093E900DF0111979C91A9012D
:1002E00001C0440F9A95EAF74093EA001092EA00A1
:1002F0009091EB0098609093EB009091EB0095FF4C
:10030000E3CF9091EB0090619093EB00DDCFD5DFD0
:1003100046E261E883E084D646E260E884E080D685
:1003200082E049D581E080932C01089524E0209358
:10033000E90070E047ED50E05ED780912E01811119
:100340000BC08091E800982F9B7F9093E8008F77F7
:100350008093E80081E0089580E0089523E02093F1
:10036000E90070E047ED50E007D780912E01811140
:100370000BC08091E800982F9E7F9093E8008F77C4
:100380008093E80081E0089580E0089500D000D0D7
:1003900000D00F92CDB7DEB780E890E00FB6F894AA
:1003A00080936100909361000FBE88E19EE00FB6DC
:1003B000F894A895809360000FBE909360000E940F
:1003C000A70A80911E018823A1F0D4D480E0F3D441
:1003D000A6D08E010B5F1F4F83E0F82EA895809169
:1003E0002C01811108C080911E018111F7CFA895C1
:1003F000FACFA895E6CF80913501843071F48093CF
:10040000E9008091E80085FF08C064E0CE01019614
:100410008DDF811108C084E0CED43EDF8111DFCFB3
:1004200010922E01DCCFF8018F2D11928A95E9F7F9
:10043000B801CE010196E5D118162CF48D8363E046
:10044000C8018CDFEACF882341F384E0B4D48091E3
:10045000EB0080628093EB00E0CF80912601811158
:1004600002C00C948A0F88E80895809126018111BA
:1004700002C00C94261088E80895909126019923D3
:1004800079F0E0912001F09121019F012F5F3F4F12
:100490003093210120932001808390E080E0089533
:1004A00090911F01943091F49DEF980F933040F09C
:1004B0008B3031F09DEE980F923010F0863119F4A8
:1004C00081E08093260110921F010AC0E92FF0E01D
:1004D000E65EFE4F2081281306C09F5F90931F01A8
:1004E00081E090E008958111EECF81E080931F01BB
:1004F000F7CFCF93C82FC1DF892B21F08C2FCF915D
:100500000C94CE0FCF910895CF93C82FB6DF892BCF
:1005100021F08C2FCF910C944310CF91089510921D
:10052000270137D40C94CC0D23E0613019F0611110
:100530000DC024E02093E9008093290190932A01C3
:10054000609303018091E80085FFFCCF08958091BE
:1005500003018130E9F42091F3003091F2008091A1
:10056000290190912A01832B922B892B49F08091AC
:10057000E800982F9E7F9093E8008F778093E800A3
:100580008FE08093030110922A01109229010895AF
:100590008111F6CF8091290190912A01009719F0DD
:1005A00067ED70E0B5D58091E80085FDE9CF8091D9
:1005B000E800982F9B7FDFCF8093F1008091290185
:1005C00090912A01019790932A01809329018091AB
:1005D000E80085FD11C08091E800982F9E7F9093E0
:1005E000E8008F778093E8008091E80085FD04C0E3
:1005F00080912E018823C1F380912E018195089569
:100600000F931F93CF93DF938C01EB0161E0CE0139
:100610008BDF209731F0F8010995CEDF21978823F1
:10062000C1F395DF80E0DF91CF911F910F91089585
:10063000FC018091E80085FD11C08091E800982FB1
:100640009B7F9093E8008F778093E8008091E8008B
:1006500085FD04C080912E018823C1F380912E0175
:1006600081110EC08091F1008083809129019091C9
:100670002A01019790932A018093290180E008952F
:100680008FEF0895EF92FF920F931F93CF93DF9315
:100690000F92CDB7DEB77C018B0160E0C80144DF6B
:1006A0000115110551F453DF80E00F90DF91CF91D8
:1006B0001F910F91FF90EF900895CE010196B8DF42
:1006C000015011098111EFCF8981F7010995E8CF18
:1006D000CF93DF93EB01823009F485C038F48111A8
:1006E0003DC0188281E0DF91CF910895833009F4F5
:1006F00075C0843009F060C08091E800877F8093E6
:10070000E8008091E80080FFFCCF8091E800982FFE
:100710009E7F9093E8008F778093E8002FEF81EE23
:1007200094E0215080409040E1F700C000000FB6F7
:10073000F894A89580916000886180936000109281
:1007400060000FBE0FD7F8941092810010928900BC
:10075000109288000C94801F80E0C5CF82E291E067
:10076000909321018093200183E025D380912F0174
:1007700090913001892BC9F088E0888383E08983D8
:10078000809127018A8390912801911117C080914F
:10079000280180688093280180912C01811103C079
:1007A0008A8182608A8388E09ECFB9DE909330018F
:1007B00080932F01892B01F78FEF95CF81608A837A
:1007C00081E080932801E0912F01F09130010190A8
:1007D000F081E02D80E009954ADDD9CF1092280103
:1007E00082E0E9D2B9CF8091280180FDB5CFE091B8
:1007F0002F01F09130010190F081E02D80E009950A
:10080000ABCFBF92CF92DF92EF92FF920F931F93E5
:10081000CF93DF9300D0CDB7DEB77C016B01809121
:1008200028018E7F80932801D701BC9012960D91EC
:100830001C9183E0C0D2E8EFEB0DEA31C8F4F0E0A0
:10084000E455FF4E0C949C108091270184FD36C026
:10085000F7018181807F803509F456C0E8F4803348
:1008600009F447C038F4803149F1803209F43CC0C2
:100870008FEF2EC08034E1F761E0C80155DE01152D
:10088000110541F0CE0101960E94FF0E898194DE90
:10089000882399F15CDE1BC0803809F46AC040F4FB
:1008A0008036B1F1803721F7B8018DE292E01FC0A8
:1008B0008039F1F6B80185E392E019C0E0912F018B
:1008C000F09130010480F581E02DC801099580E0A8
:1008D0000F900F90DF91CF911F910F91FF90EF90AC
:1008E000DF90CF90BF900895B8018EE09EE088DE43
:1008F000EECFB80182E89EE0FACF8A815DDE8111F9
:10090000C9CF02501109BBCFB80182E69FE0EFCFFB
:100910006801E894D7F8C114D104C9F210922601F5
:1009200061E0C60101DE22988FE39CE90197F1F7AF
:1009300000C000000E948A0FF12CE12C6E2D617026
:10094000CE0101960E94B10F87FDC1CF898134DEAF
:1009500081110BC017FF03C08981853531F09FEFEE
:10096000E91AF90ACE14DF0449F7F1DD0E948A0F73
:10097000AECF0115110509F4AACF1092260161E04E
:10098000C801D2DD84B1837C84B9AFE3BCE911979F
:10099000F1F700C000000E942610239AF12CE12CF0
:1009A0006801B2E0CB1AD1089B2D80E01D99FECFE3
:1009B0001D9BFECFE2E0EA95F1F723B122FB22274F
:1009C00020F9880F822B915089F7EC14FD0409F46B
:1009D0002398F2DD882321F0BADD0E94261077CF1C
:1009E000FFEFEF1AFF0A0E151F05F1F6F5CFD7013D
:1009F00011966C918091270184FD43C0862F807FE2
:100A0000803509F450C048F5803309F448C050F4EB
:100A10008031B9F1803209F02BCFB80186ED9DE02D
:100A200031DE55CF803409F023CF60E0C8017CDD92
:100A30000115110509F42ECFCE010196F9DD8111C2
:100A400029CFCE010296F4DD811124CFCE0101968B
:100A50000E94B50E02501109EBCF803809F466C030
:100A600048F4803621F1803709F002CFB80189E7D8
:100A700092E0D6CF803909F0FBCEB80184E892E04D
:100A8000CFCF6F70E0912F01F09130010280F381A0
:100A9000E02DC8010995F601928381838DC0B801CC
:100AA00080E59EE0BDCFB80189E39FE0B9CF011595
:100AB000110509F40CCF1092260160E0C80134DD65
:100AC000229892E2E92E91E0F92E809120019091F6
:100AD0002101E816F906D1F482E291E09093210118
:100AE00080932001F12CE12CEE2DE170DE2E0E150D
:100AF0001F0529F0CE0101969BDD882369F06D2D3D
:100B000080E00E9407100E948A0FC4CED7018D9109
:100B10007D010E94CE0FD9CF6D2D89810E940710D3
:100B200087FDD5CEBFEFEB1AFB0ADECF011511050D
:100B300009F4CDCE1092260160E0C801F5DC84B145
:100B4000837C84B982E2E82E81E0F82E8091200136
:100B500090912101E816F90681F482E291E09093E8
:100B6000210180932001F12CE12CCE01019660DD62
:100B7000882349F00E9426108DCED7018D917D01EA
:100B80000E944310E3CF6E2D617089810E94661030
:100B900081119DCEBFEFEB1AFB0A0E151F0529F739
:100BA000E9CF20912D0181E090E0211174CF90E0F8
:100BB00080E071CF10922D0182E08ACEE0912F016A
:100BC000F09130010680F781E02DD70112966C91EB
:100BD000129711968C910995882309F478CEE091AB
:100BE0002F01F09130010084F185E02D099590E00E
:100BF00052CFE0912F01F09130010284F385E02D76
:100C0000D70112966C91129711968C910995D4CFB9
:100C10008091270184FD2CCE80B38F7080BB8AB178
:100C2000807F8AB981B38F7081BB8BB1807F8BB994
:100C30009FB189B18F70907F892BD9CF8091270187
:100C400084FD16CED70111968C9190B3906F90BB16
:100C50009AB19F609AB991B39F7091BB9BB1907FFD
:100C60009BB921B3982F907F922B91BB9BB18F7032
:100C7000892B8BB9A1CF8091270184FDF9CDEDDBC4
:100C8000B6CF8091270184FDF3CDD70111968C91C9
:100C900030DC92CF8091270184FDEACDE6DBA7CF3F
:100CA0008091270184FDE4CDD70111968C912CDC35
:100CB00083CF0F931F93CF93DF93BC01EA01890188
:100CC000F9011082872F99278230910509F44DC0D0
:100CD0008330910569F00197C1F482E190E022E54B
:100CE00031E039832883DF91CF911F910F910895CF
:100CF000CB019927623069F18330910558F4009750
:100D000011F1E2EFF0E0019701F190E080E030E0D6
:100D100020E0E7CF0397C9F790E080E00E94A2109F
:100D200090E0809590959927EAE0F1E02AE030E0A4
:100D3000009791F48091040190E022E0F801208373
:100D400024E031E0CECFEEE2F1E0849190E09F012B
:100D5000C8CFECEAF0E0F9CFB9010E948810C09644
:100D600091838083CB013297E3CF80E290E022E34E
:100D700031E0B7CF80E28AB98BB98AE196E09093EF
:100D8000890080938800E1E8F0E080818D608083B5
:100D9000089514B815B880B38F7080BB8AB1807F76
:100DA0008AB981B38F7081BB8BB1807F8BB9089575
:100DB00083B18C77089580932B01833059F028F408
:100DC000882341F0823021F00895843019F008958D
:100DD0005D9808955D9A089580912B01835082302B
:100DE00020F48BB190E289278BB90895B19B03C0A1
:100DF000B19A81E0089580E008951F93CF93DF9327
:100E000000D00F92CDB7DEB786E391E0FC010196EA
:100E10002091F100208321E08E339207B9F7809171
:100E20003601909137019A3008F0E4C0E92FF0E0E4
:100E3000EA53FF4E0C949C10803879F0823809F008
:100E4000D9C080913A018093E9008091EB0085FB45
:100E5000882780F91092E90006C0809131019091B5
:100E60003201911182609091E800977F9093E800A1
:100E70008093F1001092F1008091E800982F9E7FFE
:100E80009093E8008F77C8C0882309F4B5C08230FA
:100E900009F0B0C0809138018111B9C080913A0148
:100EA000877009F43DC08093E9002091EB0020FF9A
:100EB000AEC0933031F48091EB0080628093EB0000
:100EC000A6C09091EB0090619093EB0021E030E0A0
:100ED00001C0220F8A95EAF72093EA001092EA00F7
:100EE0008091EB008860EACF811184C010913801B5
:100EF0008091E800877F8093E800BCD08091E80073
:100F000080FF0AC0812F8F7719F093E0909335010D
:100F100080688093E30004C0809135018111EECF99
:100F20008091E80083FF0AC08091EB00806280938B
:100F3000EB008091E800877F8093E8000F900F908E
:100F40000F90DF91CF911F9108958058823008F063
:100F500051C09E012D5F3F4FAE014F5F5F4F6091CB
:100F60003A018091380190913901A3DEBC01892BAF
:100F7000B9F28091E800877F8093E8002B81898116
:100F80009A8121110BC0D2D18091E800982F9B7FCC
:100F90009093E8008F778093E800C2CF213011F45E
:100FA00022D2F2CF67D1F0CF803821F58091E800CE
:100FB000877F8093E800809133018093F1005CCFBC
:100FC000811118C090913801923008F0A9CF80911A
:100FD000E800877F8093E800909333014BD08091A5
:100FE0003301811105C083E08093350190D998CFFA
:100FF00084E0FACFEDD894CF80913801813009F0A8
:101000008FCF81E0933009F080E08093320110921D
:10101000E9008091E800877F8093E8002BD080CFA3
:101020008093E900EBEEF0E0808181608083EDEE5B
:10103000F0E010826093EC0040838091EE00881F06
:101040008827881F08951092F40080E08093E900BB
:101050001092F0001092E8009091ED009D7F909327
:10106000ED009091EB009E7F9093EB008F5F8730B7
:1010700069F708958091360187FF17C08091E800D5
:1010800082FF0AC08091E800982F9B7F9093E80030
:101090008F778093E80004C0809135018111EECFF5
:1010A0000895809135018823D9F38091E80080FF6D
:1010B000F8CF8091E800982F9E7FE8CF95E62091A9
:1010C000EC00822F817020FF06C08091E80080FF35
:1010D00006C080E008952091E80022FD18C08091AC
:1010E0003501882389F08091EB0085FD0FC0809148
:1010F000E10082FFE4CF8091E1008B7F8093E100EB
:101100009150E9F683E0089582E0089581E0089522
:10111000EF92FF920F931F93CF938C017B01CEDF51
:10112000C82F882389F08C2FCF911F910F91FF90AA
:10113000EF900895F70109958130C9F4C4E0F3CF29
:101140008091F100015011090115110561F38091A1
:10115000E80085FDF5CF8091E800982F9B7F909364
:10116000E8008F778093E800E114F10419F7A6DF17
:10117000882351F3C82FD7CFDF92EF92FF920F93BE
:101180001F93CF93DF93D82FD92E8B017A0196DF4F
:10119000C82F8823C1F08C2FDF91CF911F910F9121
:1011A000FF90EF90DF900895F70109958130F1F4F9
:1011B000C4E0F1CFED2FFD2D81918093F10001501E
:1011C0001109DE2FDF2E0115110529F38091E800AA
:1011D00085FDF0CF8091E800982F9E7F9093E800E6
:1011E0008F778093E800E114F104F1F667DF88233C
:1011F00051F3C82FD0CFDF92EF92FF920F931F933E
:10120000CF93DF93D82FD92E8B017A0157DFC82FC8
:101210008823C1F08C2FDF91CF911F910F91FF9008
:10122000EF90DF900895F70109958130F1F4C4E063
:10123000F1CFED2FFD2D8091F10081930150110927
:10124000DE2FDF2E0115110529F38091E80085FDC1
:10125000F0CF8091E800982F9B7F9093E8008F77E4
:101260008093E800E114F104F1F628DF882351F3BC
:10127000C82FD0CF9B0140913C0150913D014617B2
:101280005707B8F0672B49F44091E800542F5E7F70
:101290005093E8004F774093E80060E02115310556
:1012A00051F4611108C08091E80082FF37C080E0EE
:1012B00008959A01F2CF4091E80043FD35C0409176
:1012C000E80042FDF0CF40913501442359F14091AF
:1012D000E80040FFE3CF5091F3004091F200211568
:1012E000310519F04830510578F061E0483051057A
:1012F00009F060E04091E800542F5E7F5093E800D1
:101300004F774093E800CACFFC0181918093F100B0
:10131000215031094F5F5F4FCF01E1CF80913501FF
:101320008111C1CF82E0089581E008959B01409131
:101330003C0150913D0146175707B8F0672B49F41F
:101340004091E800542F5E7F5093E8004F77409320
:10135000E80060E02115310551F4611108C0809169
:10136000E80082FF38C080E008959A01F2CF4091F2
:10137000E80043FD36C04091E80042FDF0CF4091C7
:101380003501442361F14091E80040FFE3CF5091E3
:10139000F3004091F200FC01CF012115310519F055
:1013A0004830510578F061E04830510509F060E0BF
:1013B0004091E800542F5E7F5093E8004F774093B0
:1013C000E800C8CF84918093F100215031094F5F2C
:1013D0005F4F3196E1CF809135018111C0CF82E01E
:1013E000089581E00895EF92FF920F931F93CF939A
:1013F000DF93EB0120913C0130913D012617370727
:10140000E0F0209749F42091E800322F3E7F30939E
:10141000E8002F772093E80030E0209781F4311125
:101420000EC08091E80082FF3FC080E0DF91CF9145
:101430001F910F91FF90EF900895E901EDCF20915A
:10144000E80023FD37C02091E80022FDEACF20917B
:101450003501222369F12091E80020FFDECF2091A1
:10146000F3000091F200122F209719F008301105B7
:1014700078F031E00830110509F030E02091E80003
:10148000422F4E7F4093E8002F772093E800C5CF8E
:101490007C012FEFE21AF20A55D68093F1002197D2
:1014A0000F5F1F4FC701E0CF809135018111B9CF88
:1014B00082E0BCCF81E0BACF7AD081D010923501E2
:1014C0001092330110923201109231018AE482BFEE
:1014D00080E189BD89B5826089BD09B400FEFDCF78
:1014E0008091D800982F9F779093D8008068809340
:1014F000D8008091D70081608093D7008091D80078
:101500008F7D8093D8008091E0008B7F8093E000F6
:101510008091E0008E7F8093E0008091E1008E7FDB
:101520008093E1008091E20081608093E2008091ED
:10153000E100877F8093E1008091E20088608093E2
:10154000E2008091D80081608093D8000895B4DFD4
:10155000E8EDF0E080818061808381E08093340158
:1015600078940895A9DFE0EEF0E0808181608083C7
:10157000E8EDF0E080818F77808319BC80818F7ED9
:1015800080831092340108950895CF93809135019E
:10159000882359F0C091E900C7701092E90080914A
:1015A000E80083FD2ADCC093E900CF910895E8EDBF
:1015B000F0E080818E7F80831092E2000895109287
:1015C000DA001092E10008951F920F920FB60F9269
:1015D00011242F933F934F935F936F937F938F9338
:1015E0009F93AF93BF93EF93FF938091DA0080FFB7
:1015F00012C08091D80080FF0EC08091DA008E7FEB
:101600008093DA008091D90080FF9DC081E08093B3
:1016100035010E94DA008091E10080FF1DC08091B9
:10162000E20080FF19C08091E1008E7F8093E1008D
:101630008091E2008E7F8093E2008091E2008061E1
:101640008093E2008091D80080628093D80019BC1A
:1016500085E08093350198DF8091E10084FF28C008
:101660008091E20084FF24C080E189BD89B5826059
:1016700089BD09B400FEFDCF8091D8008F7D809395
:10168000D8008091E1008F7E8093E1008091E2009C
:101690008F7E8093E2008091E20081608093E2007F
:1016A00080913301811154C083E0809335016CDF58
:1016B0008091E10083FF28C08091E20083FF24C075
:1016C0008091E100877F8093E10082E08093350183
:1016D000109233018091E1008E7F8093E100809130
:1016E000E2008E7F8093E2008091E200806180932F
:1016F000E200A9DC42E060E080E092DC8091F00052
:1017000088608093F00040DF8091E10082FF0AC092
:101710008091E20082FF06C08091E1008B7F809380
:10172000E10032DFFF91EF91BF91AF919F918F91D7
:101730007F916F915F914F913F912F910F900FBECD
:101740000F901F901895109235010E94E20063CF10
:1017500084E0ABCF1F920F920FB60F9211240F931C
:101760001F932F933F934F935F936F937F938F9329
:101770009F93AF93BF93CF93EF93FF9309EE10E046
:10178000F801C081C77001DFE8EEF0E08081877F5B
:101790008083F801C083FF91EF91CF91BF91AF910A
:1017A0009F918F917F916F915F914F913F912F9179
:1017B0001F910F910F900FBE0F901F901895F8DAA0
:1017C000982F82FB882780F921E0822793FF82608F
:1017D00094FF846008951F93CF93DF93D82FC62F73
:1017E00019ECE6DA8D238C1302C0115051F4E0DAC3
:1017F000D82381E0DC1301C080E0DF91CF911F91FD
:10180000089585E38A95F1F70000EBCFCF93DF933E
:10181000D62FE82FF0E0EC59FE4FC4916111DC2F78
:10182000C7DA8C238D1721F081E0DF91CF910895E5
:101830000E944C018823C9F385E38A95F1F70000E3
:10184000EFCF0F931F93CF93C82F84B1837E84B9BA
:10185000269A2FEF81EE94E0215080409040E1F7EE
:1018600000C0000026980CE41DE184B1837A84B99D
:1018700087EC90E00197F1F700C000001A9910C0C2
:1018800087E592E00197F1F700C000000E944C014B
:10189000882339F10150110941F7C111E6CF21C068
:1018A00087EC90E00197F1F700C000001A9905C09D
:1018B0008FE891E00197F1F7E7CF249A8FE891E064
:1018C0000197F1F700C000001A9B02C02498DECFF8
:1018D00024988FE891E00197F1F700C000001A9B6F
:1018E000D5CFCF911F910F910895CF92DF92EF92B4
:1018F000FF920F931F93CF93DF937C0161E00E94CF
:10190000940210E000E0CC24C394C1E5D3EC1B9B0F
:101910004FC0D0912D01D11151C0229889EC1B9B51
:1019200003C0815009F05DC01B9B0AC0C0922D010D
:10193000229A87E191E00197F1F700C00000229818
:10194000F89468E088E047DFC82F88E0D82ECC23E1
:1019500081F060E088E03FDFC82F882339F0D6951A
:101960001A99D06868E088E036DFC82FDA94D11081
:10197000EECF7894CC2371F0229A8D2F0E94DC0256
:10198000811113C00F5F1F4F87EC90E00197F1F7B3
:1019900000C00000A8950E151F0541F1CC2341F1B0
:1019A00080912D01882309F4B0CF0E94A7020AC0BC
:1019B000219721F00E944C0181110EC00E94A702C4
:1019C00010E000E0C801DF91CF911F910F91FF90CF
:1019D000EF90DF90CF9008958AE68A95F1F700C0E6
:1019E00096CF9AE09A95F1F700C099CFC111DDCF5B
:1019F00010E000E0DACFCF92DF92EF92FF920F93E8
:101A00001F93CF93DF930F92CDB7DEB78C01F62EE5
:101A100010922D01009769F410E000E0C8010F90CA
:101A2000DF91CF911F910F91FF90EF90DF90CF90BA
:101A3000089560E00E94940260E080E5CCDE8111B0
:101A400003C00E94A702E8CF22982F2D2270E22E19
:101A500088E0F1FC88E194B1892B84B98AE08A9509
:101A6000F1F700C064E084E0B6DE811104C084B107
:101A7000877E84B9E6CF95ED9A95F1F7000068016D
:101A80001A995CC023981A9B55C091E0C916D104DD
:101A900041F4E11006C064E084E09DDE60E084E093
:101AA0009ADE239ACE0101960E941803811146C046
:101AB000998188E0EBE2F1E03197F1F700C0000096
:101AC00090FD05C0229AFAE0FA95F1F700C023983C
:101AD0002AE62A95F1F700C0239A2298969581501C
:101AE00049F764E084E077DE882341F181E0C81A99
:101AF000D108EFE8F1E03197F1F700C00000A895B8
:101B0000C114D10409F0BCCF0E94A702F0FE20C08E
:101B1000229A249825E02A95F1F7000023988AE07C
:101B20008A95F1F700C01B9B79CF0E944C0181116F
:101B3000FACF72CF0E944C018111A5CF0E94A7025B
:101B4000FAE6FA95F1F700C084B1877E84B964CFD4
:101B5000249864CF611109C0E82FF0E0EC59FE4FE2
:101B6000E49184B1E82BE4B90895E62FF0E0EC5954
:101B7000FE4F811105C0E49184B1E095E823F3CFD5
:101B80006491E82FF0E0EC59FE4FE49184B1E82B2A
:101B9000E4B984B1E62FF1CF84B1837A84B985E3C7
:101BA0008A95F1F700008EE091E00895CF93DF93DE
:101BB000C82FD8E0C7FF1DC0229A8AE08A95F1F7A6
:101BC00000C023988AE08A95F1F700C01B9913C0E2
:101BD000C7FF18C022981B9B17C0239A22988AE03F
:101BE0008A95F1F700C01A9914C0CC0FD15039F082
:101BF000E1CF2298E2CF0E944C018111E7CFDF9123
:101C0000CF910895229AE7CF0E944C018111E3CF32
:101C1000F6CF0E944C018111E6CFF1CFFF920F93D6
:101C20001F93CF93DF93D8E0C0E0FF24F3941A9B77
:101C300025C023988AE08A95F1F700C001E01B9B3C
:101C400023C000E010E0229A83B183FB882780F94B
:101C50008F250817D9F022988AE08A95F1F700C0FD
:101C60001A9919C0C695C12B239AD15001F78C2F10
:101C7000DF91CF911F910F91FF9008950E944C0129
:101C80008111D5CFCFEFF3CF10E8DDCF0E944C010B
:101C90008111DACFF7CF0E944C018111E1CFF2CF51
:101CA000CF93DF93C82FD4E0C0FF1CC0229A8AE0F4
:101CB0008A95F1F700C024981B9B16C0C1FF1BC07A
:101CC000229A8AE08A95F1F700C0C695C695249AB3
:101CD0001B9913C0D15041F722988AE08A95F1F7F9
:101CE00000C006C02298E3CF0E944C018111E4CFCE
:101CF000DF91CF9108952298E4CF0E944C01811189
:101D0000E7CFF6CF1F93CF93DF93D4E0C0E01B9BC8
:101D10001DC08AE08A95F1F700C01A9B1DC010E033
:101D200024981B991BC08AE08A95F1F700C0C695DC
:101D3000C12BC6951A9B17C080E0C82B249AD1509E
:101D400031F78C2FDF91CF911F9108950E944C01A4
:101D50008111DDCFCFEFF5CF10E8E2CF0E944C012B
:101D60008111DFCFF7CF80E8E8CFCF93DF93EC018D
:101D70001A9939C0888190B3906F90BB9AB19F60D7
:101D80009AB991B39F7091BB9BB1907F9BB921B3DE
:101D9000982F907F922B91BB9BB18F70892B8BB921
:101DA00082E08A95F1F700C023981A9B23C08981AD
:101DB00090B3906F90BB9AB19F609AB991B39F70A6
:101DC00091BB9BB1907F9BB921B3982F907F922BB1
:101DD00091BB9BB18F70892B8BB982E08A95F1F70B
:101DE00000C0239A04C00E944C018111C1CFDF9131
:101DF000CF9108950E944C018111D7CFF8CFCF9396
:101E0000DF93EC011A9929C080B38F7080BB8AB12F
:101E1000807F8AB981B38F7081BB8BB1807F8BB992
:101E20009FB189B18F70907F892B888323981A9BEB
:101E30001BC080B38F7080BB8AB1807F8AB981B3A9
:101E40008F7081BB8BB1807F8BB99FB189B18F704F
:101E5000907F892B8983239A04C00E944C018111B1
:101E6000D1CFDF91CF9108950E944C018111DFCF36
:101E7000F8CF90B3906F90BB9AB19F609AB991B32D
:101E80009F7091BB9BB1907F9BB921B3982F907F9E
:101E9000922B91BB9BB18F70892B8BB982E08A9575
:101EA000F1F700C023981A9B08C0239A1A9B09C017
:101EB0000E944C018111FACF04C00E944C01811193
:101EC000F2CF0895CF93DF9323981A9B16C080B367
:101ED0008F7080BB8AB1807F8AB981B38F7081BBDC
:101EE0008BB1807F8BB9DFB1C9B1239A1A990DC02C
:101EF0008C2F8F70D07F8D2B05C00E944C018111DB
:101F0000E4CF8FEFDF91CF9108950E944C018111B2
:101F1000EDCFF7CF249A84B1837F84B98AE18A9583
:101F2000F1F700C01A9BFECF95E09A95F1F70000FB
:101F300080B38F7080BB8AB1807F8AB981B38F7084
:101F400081BB8BB1807F8BB99FB189B18F70907F3E
:101F5000892B24981A99FECF9AE19A95F1F700C03F
:101F60000895FC0191E083B182FB882780F98927DD
:101F70006813F9CF80B38F7080BB8AB1807F8AB934
:101F800081B38F7081BB8BB1807F8BB99FB189B1D9
:101F90008F70907F892B808380E00895249A94B17C
:101FA000937F94B99AE19A95F1F700C01A9BFECFFE
:101FB00090B3906F90BB9AB19F609AB991B39F70A4
:101FC00091BB9BB1907F9BB921B3982F907F922BAF
:101FD00091BB9BB18F70892B8BB985E08A95F1F706
:101FE0000000249895E39A95F1F700001A99FECF26
:101FF00080B38F7080BB8AB1807F8AB981B38F70C4
:1020000081BB8BB1807F8BB98FB189B1089521E0FD
:1020100093B192FB992790F992276913F9CF90B366
:10202000906F90BB9AB19F609AB991B39F7091BB2A
:102030009BB1907F9BB921B3982F907F922B91BB3E
:102040009BB18F70892B8BB980E00895249A84B15D
:10205000837D84B925E02A95F1F7000098E080E0BF
:102060001D99FECF1D9BFECF22E02A95F1F723B1EB
:1020700022FB222720F9880F822B915089F7249880
:102080001B9BFECF0895249A94B1937D94B92AE1C5
:102090002A95F1F700C01B99FECF98E087FF14C086
:1020A0002298259A880F00C000C00000259825E0DE
:1020B0002A95F1F7915091F785E08A95F1F70000A4
:1020C00024981B9BFECF0895229AEBCF982F24E6ED
:1020D00030E041E083B183FB882780F984276813CF
:1020E00010C088E097FF12C02298259A990F00C06F
:1020F00000C00000259825E02A95F1F7815091F75E
:1021000008952150310931F78FEF0895229AEDCFCC
:10211000AA1BBB1B51E107C0AA1FBB1FA617B7070D
:1021200010F0A61BB70B881F991F5A95A9F7809529
:102130009095BC01CD010895EE0FFF1F0590F4911D
:10214000E02D0994F999FECF92BD81BDF89A9927A7
:1021500080B50895F894FFCF2404F70438043804B8
:10216000380438043804380438043804380438048F
:10217000380438043804D105DA0508061E06EF05D0
:10218000DE05F9053B0641064A0650061C074407D2
:10219000FA074407FA077407A507FA07D407E00708
:1021A0000304000F08033000300030000000210C51
:0E21B000FB0C750C060CDF0BAA0D0055AAFFE8
:00000001FF
