:10000000A9C000000C94870FC1C00000BFC0000051
:10001000BDC00000BBC00000B9C00000B7C00000F8
:10002000B5C000000C94560FB1C000000C944E15E2
:100030000C94FA15ABC000000C94BB0F0C94341058
:10004000A5C00000A3C000000C9409109FC00000D0
:100050009DC000009BC0000099C0000097C0000038
:1000600095C0000093C0000091C000008FC0000048
:100070008DC00000A711C8119612C81196120A125D
:100080002712961258126E124803780075006D0000
:100090003100350034003100200066006C006F0034
:1000A0007000700079002000610064006100700041
:1000B000740065007200200028005A004F004F00B5
:1000C0004D0046004C004F005000500059002900E0
:1000D00000003A034E0061007400650020004C00EF
:1000E0006100770073006F006E00200061006E00F9
:1000F000640020004F00700065006E004300420065
:100100004D0020007400650061006D0000000403D4
:1001100009040902200001010080320904000002E4
:10012000FF000000070583022000000705040220ED
:10013000000012011001FF000008D016040507029C
:100140000102030100080109808881894048414972
:10015000C0C8C1C911241FBECFEFD4E0DEBFCDBFE0
:1001600011E0A0E0B1E0E8EEF4E302C005900D92EA
:10017000A833B107D9F721E0A8E3B1E001C01D928F
:10018000A637B207E1F7FED00C94721A39CF8091EE
:100190006601089581E0C1D61092660181E08093E6
:1001A00038010895109238011092640180E0B5C6BC
:1001B0000F931F93CF93DF93CDB7DEB728970FB67A
:1001C000F894DEBF0FBECDBF80916E018076803285
:1001D00099F58E010F5F1F4F88E0F80111928A9503
:1001E000E9F7B80180916F01BBD28F3F19F484E029
:1001F00094D622C09091E800977F9093E800909168
:100200006E0197FF0CC0682F772767FD7095C801B6
:100210000E94AC138091E800982F9B7F08C08091CA
:10022000E80080FFFCCF8091E800982F9E7F90939C
:10023000E8008F778093E80028960FB6F894DEBF29
:100240000FBECDBFDF91CF911F910F910895E9EEC1
:10025000F0E08081877091E09093660194E0908354
:10026000ABEEB0E09C9190629C9393E090839C9164
:1002700090629C9380830895CF93DF931F92CDB7B4
:10028000DEB7A89580916601811107C061D68823E9
:1002900031F0898353D6898103C080E001C081E0B9
:1002A0000F90DF91CF9108954091E9004770E0E011
:1002B000F1E081E090E0DF0120812223E9F020934A
:1002C000E90031969C010C9002C0220F331F0A9462
:1002D000E2F72093EA001092EA002091EB002860F8
:1002E0002093EB002091EB0025FFE5CF2091EB0060
:1002F00020612093EB00DFCF4093E9000895D4DF25
:1003000046E261E883E00E94A01246E260E884E0F1
:100310000E94A01282E001D681E0809364010895DA
:1003200024E02093E90070E047EC50E00E9478134D
:100330008091660181110BC08091E800982F9B7F0E
:100340009093E8008F778093E80081E0089580E043
:10035000089523E02093E90070E047EC50E00E940C
:1003600044138091660181110BC08091E800982FA1
:100370009E7F9093E8008F778093E80081E0089556
:1003800080E00895CF93DF93CDB7DEB727970FB600
:10039000F894DEBF0FBECDBF90E080E80FB6F894B2
:1003A00080936100909361000FBE2EE088E190E0A1
:1003B0000FB6F894A895809360000FBE209360005C
:1003C0000E94201580913801811102C0A895FACFB2
:1003D00073D580E0A2D5A6D0A8958091640188232A
:1003E00099F180916D01843049F58093E900809105
:1003F000E80085FF23C064E0CE01019691DF811102
:1004000003C084E08AD51AC01D821E821F82BE01ED
:100410006B5F7F4FCE01019646D2181634F48D8360
:1004200063E0CE01059695DF09C0882339F084E0AA
:1004300074D58091EB0080628093EB001DDF811109
:10044000CCCF10926601C9CF809138018111C4CF01
:10045000A895FACF80914001811102C00C949C199B
:1004600088E8089580914001811102C00C94ED1933
:1004700088E8089590914001992379F0E0913A013C
:10048000F0913B019F012F5F3F4F30933B01209341
:100490003A01808380E090E0089590913901943092
:1004A00081F49DEF980F933040F08B3031F09DEE4A
:1004B000980F923010F0863189F481E080934001EA
:1004C0000DC0E92FF0E0EC5CFE4F2081281304C042
:1004D0009F5F9093390108C0882319F01092390169
:1004E00003C081E08093390181E090E00895CF93CB
:1004F000C82FC0DF892B21F08C2FCF910C94C41909
:10050000CF910895CF93C82FB5DF892B21F08C2F81
:10051000CF910C940A1ACF9108959093440180933F
:1005200043010895CF93DF9300D0CDB7DEB71A8291
:100530001982109241010E94DA0A029761F4CE01F9
:1005400001960E94F70A80914101806280934101E7
:1005500089819A8110C080D79C019A8389830097F2
:1005600039F080914101806180934101C90103C04C
:10057000B2D40E943E180F900F90DF91CF91089552
:10058000613011F423E003C061110DC024E0209319
:10059000E9009093440180934301609303018091AB
:1005A000E80085FFFCCF089580910301813079F444
:1005B0008091F200811106C0809143019091440125
:1005C000892BF1F08091E800982F9E7F14C0811153
:1005D00017C08091430190914401009721F067EC8E
:1005E00070E00E9419138091E80085FD09C0809198
:1005F000E800982F9B7F9093E8008F778093E80026
:100600008FE08093030110924401109243010895FA
:100610008093F10080914301909144010197909360
:100620004401809343018091E80085FF04C08091DC
:100630006601819508958091E800982F9E7F9093A0
:10064000E8008F778093E8008091E80085FDEFCF88
:10065000809166018823C1F3EACFCF92DF92FF92A7
:100660000F931F93CF93DF931F92CDB7DEB78C010B
:10067000F62E61E08F2D972F798382DFCF2C798141
:10068000D72EC114D10441F0F8010995C1DFF1E082
:10069000CF1AD1088823A9F387DF80E00F90DF917C
:1006A000CF911F910F91FF90DF90CF9008952091EF
:1006B000E80025FF13C020916601211121C020917F
:1006C000F100FC0120838091430190914401019746
:1006D000909344018093430180E008952091E800C5
:1006E000322F3B7F3093E8002F772093E800209152
:1006F000E80025FDE0CF209166012223C1F3DBCF86
:100700008FEF0895DF92EF92FF920F931F93CF9395
:10071000DF9300D0CDB7DEB77C01D62E60E08D2D03
:10072000972F7A832DDF0D2D7A81172F0115110553
:1007300059F0CE010196BBDF01501109811104C0AF
:100740008981F7010995F2CF2FDF80E00F900F909C
:10075000DF91CF911F910F91FF90EF90DF9008955F
:10076000CF93DF93EB01823009F487C038F48823FC
:1007700009F43BC0813009F43BC08DC0843031F0B6
:1007800008F476C0853009F47CC085C08091E8000B
:10079000877F8093E8008091E80080FFFCCF809104
:1007A000E800982F9E7F9093E8008F778093E80071
:1007B0002FEF81EE94E0215080409040E1F700C09F
:1007C000000088E10FB6F8948093600010926000FA
:1007D0000FBE0E942615F894109281001092890095
:1007E000109288000C94001C5AC0188281E058C0F6
:1007F0008CE391E090933B0180933A0183E08DD3A9
:100800008091670190916801892B29F48BDE909388
:100810006801809367018091670190916801892B3D
:10082000D1F187E088838BE18983809141018A83BC
:1008300090914201992379F081608A8381E08093CD
:100840004201E0916701F09168010190F081E02D93
:1008500080E00995FCDC8091420180688093420130
:1008600080916401811119C08A8182608A8315C0D8
:100870001092420182E051D312C08091420180FD6A
:100880000EC0E0916701F09168010190F081E02DC8
:1008900080E0099504C08FEF03C088E001C080E0CC
:1008A000DF91CF910895CF92DF92EF92FF920F9355
:1008B0001F93CF93DF9300D01F92CDB7DEB76C01AB
:1008C0007B01809142018E7F80934201D6019C91F1
:1008D00012960D911C91139783E09B831ED39B81ED
:1008E0009F3109F456C238F5993109F439C288F4B8
:1008F000993009F41BC120F4983009F441C070C24A
:10090000973109F415C2983109F06AC21092650155
:100910000DC29C3109F4EDC138F49A3109F428C2B2
:100920009B3109F4F7C15CC29D3109F40AC29E31C2
:1009300009F429C255C2943409F443C268F49132CF
:1009400009F436C208F42EC2923409F442C2933438
:1009500009F046C2A7D53EC2973409F436C240F426
:10096000953409F430C2963409F03AC2D1D7DBC1CC
:10097000983409F42CC2993409F032C26AD6D3C132
:100980008091410184FD2FC0F6018181807F8036F6
:1009900009F44DC0A8F4803381F148F4803119F195
:1009A000803209F01DC2B80181E898E177C0803437
:1009B00041F1803509F014C2B80184E899E16EC0B4
:1009C000803909F4ACC038F4803709F464C0803849
:1009D00009F467C005C2803A09F4A5C0803B09F05C
:1009E000FFC17FD6A0C1E0916701F091680104804A
:1009F000F581E02DC801099552C0B80185EF98E155
:100A00004DC061E0C801BCDD0115110509F419C133
:100A1000CE0101960E944F198981FADD811111C121
:100A20008A81F6DD81110DC102501109EDCF6801F7
:100A3000E894D7F8C114D10491F11092400161E01B
:100A4000C6019EDD5B988FE39CE90197F1F700C03A
:100A500000000E949C19E12CF12C002710786E2DCB
:100A60006170CE0101960E94B51987FD18C0898179
:100A7000CFDD81110CC00115110519F08981853573
:100A800031F09FEFE91AF90AEC14FD0441F78CDD0F
:100A90000E949C1904C0B8018AE292E0DEDD80E089
:100AA000A0C101151105D9F31092400161E0C80100
:100AB00067DD47988BB1867E8BB9AFE3BCE91197B0
:100AC000F1F700C000000E94ED19589AE12CF12CBA
:100AD0006801B2E0CB1AD10898E080E04D99FECFD2
:100AE0004D9BFECFE2E0EA95F1F729B1880F22FB9A
:100AF000222720F9822B915089F7EC14FD0409F488
:100B0000589886DD882321F04FDD0E94ED19C7CF6C
:100B1000FFEFEF1AFF0AE016F106F1F6F5CFB80184
:100B200082E392E0BBCF0E94D91054C18091410171
:100B3000D60111966C9184FD2EC0862F807F803661
:100B400009F450C0A8F4803389F148F4803119F1D8
:100B5000803209F045C1B80189E498E1C5C080340C
:100B600049F1803509F03CC1B8018DE699E1BCC07E
:100B7000803909F4B6C038F4803709F472C080387F
:100B800009F473C02DC1803A09F4B0C0803B09F06C
:100B900027C172D5C8C0E0916701F09168016F70FC
:100BA0000280F381E02DC8010995BDC0B80183EC36
:100BB00098E19AC060E0C801E3DC0115110509F471
:100BC00040C0CE01019673DD81113BC0CE0102967B
:100BD0006EDD811136C0CE0101960E9429190250A6
:100BE0001109EBCF0115110509F459CF10924001FD
:100BF00060E0C801C5DC5B989CE3E92E91E0F92E2A
:100C000080913A0190913B01E816F90631F0D70145
:100C10008D917D010E94C419F3CF8CE391E09093F4
:100C20003B0180933A01E12CF12CCE0101963FDD8E
:100C3000882349F06E2D617080E00E94E0190E94C7
:100C40009C19B2DC2CCF6E2D617089810E94E01955
:100C500087FD25CFBFEFEB1AFB0AE016F10629F757
:100C6000E9CFB80187E792E03FC00115110509F40B
:100C700016CF1092400160E0C80182DC47988BB12A
:100C8000867E8BB98CE3E82E81E0F82E80913A01C4
:100C900090913B01E816F90631F0F70181917F014F
:100CA0000E940A1AF3CF8CE391E090933B0180936A
:100CB0003A01E12CF12CCE010196F9DC882319F0E0
:100CC0000E94ED19BECF6E2D617089810E942D1A90
:100CD0008111E5CEFFEFEF1AFF0AE016F10659F792
:100CE000EFCFB80182E892E00DDDD9CE0E94151158
:100CF00071C0E0916701F09168010680F781E02DF5
:100D0000D60112966C91129711968C9109958823B1
:100D100009F4C5CEE0916701F09168010084F18586
:100D2000E02D099590E0F7019283818382E059C01C
:100D30002091650181E090E021114CC080E090E0BD
:100D400049C0E0916701F09168010284F385E02DCC
:100D5000D60112966C91129711968C910995E6CF57
:100D60008091410184FD3CC014B815B883B1DACF3D
:100D70008091410184FD34C0D60111968C919FEF82
:100D800094B985B9D3CF8091410184FD29C062DB3C
:100D9000C9CF8091410184FD23C0D60111968C9169
:100DA000A6DBC4CF8091410184FD1AC05BDBBACFC2
:100DB0008091410184FD14C0D60111968C91A2DB73
:100DC000B5CFB4D4B0CF1ED505C0B7D503C0E3D5D9
:100DD000AACF2CD4D70112969C938E931197A6CFAD
:100DE0008FEF0F900F900F90DF91CF911F910F9188
:100DF000FF90EF90DF90CF9008950F931F93CF93C4
:100E0000DF93EA018901F9011082692F77276230A7
:100E1000710561F06330710571F06130710509F0A1
:100E200040C082E190E022E331E03FC080E290E008
:100E300022E131E03AC0992781309105B1F090F07C
:100E400082309105A9F0039761F580E090E00E945F
:100E50006A1A90E0809590959927ECE0F1E02AE0FD
:100E600030E00CC0EEE0F1E005C0E2EDF0E002C0E1
:100E7000E8E8F0E0849190E09F0117C0009741F00E
:100E8000B9010E94501AC09692938293CB01F6CF7B
:100E90008091040190E022E0F801208324E031E019
:100EA00004C080E090E020E030E039832883DF91C7
:100EB000CF911F910F91089518B884E087B98AE106
:100EC00096E09093890080938800E1E8F0E08081CB
:100ED0008D608083089518B81BB884E887B989E5C8
:100EE0008AB915B814B8089539B159B199B146B154
:100EF00086B1569551703072232F30E03595279585
:100F0000252B9470990F922B4074440F492B8078B5
:100F100090E095958795842B0895809345018230C4
:100F200049F018F4882341F00895833029F0843083
:100F300019F0089542980895429A089580914501C4
:100F40008350823020F488B194E0892788B90895CD
:100F5000B19B03C0B19A81E0089580E0089514B870
:100F60008FEF85B947983F9A3E98469A3C98449AA5
:100F70003D98459A5E98569A57985F9A5C98549A0D
:100F800055985D9A3A98429A5B98539A52985A9A11
:100F90005898509A5198599A10924D0110924801C0
:100FA000109247018FEF9FEF90934A018093490180
:100FB000089589B182FB882780F991E08927499BB0
:100FC0008260369B84604F9B8860349B8061359B38
:100FD0008062089581E00895089585E38A95F1F788
:100FE0000000809146018F5F80934601843688F02F
:100FF0001092460180914B0190914C01892B49F050
:1010000080914B0190914C01019790934C018093FA
:101010004B01A89520914B0130914C0181E0232B8D
:1010200009F080E008953C98449A499B09C04A9B86
:1010300007C080914D01806880934D0181E0089543
:10104000499902C0A895FCCF14B8982F909595B9EE
:1010500084B98AE18A95F1F700C044983C9A81E40A
:1010600090E090934C0180934B014A990AC0B5DF00
:101070008823D9F380914D01816080934D0181E0F7
:1010800001C080E03C98449A14B89FEF95B9089548
:10109000CADF811103C091E09093480147980895F9
:1010A000BF92CF92DF92EF92FF920F931F93CF9355
:1010B000DF937C0161E064DAC0E0D0E081E4C82E17
:1010C000D12CBB24B39480916501882321F06CDA84
:1010D00080E090E057C005E110E080914D018D7FE8
:1010E00080934D018091650181112EC05B9A5898C3
:1010F000D0924C01C0924B01349B0BC06EDF882311
:10110000D9F380914D01826080934D015B9A589A8A
:101110001BC085E08A95F1F7000083B18095359971
:1011200007C090914D01906490934D01B09265017C
:10113000589A95E09A95F1F700005B98349902C0AF
:10114000A895FCCF5B9A01C080E090914D0191FF82
:101150000AC0015011090115110509F4B8CF8CD846
:101160008111BBCFB4CF54DA81110AC02196A89562
:10117000CE15DF0529F080916501882309F4A3CFFE
:1011800013DACE01DF91CF911F910F91FF90EF9075
:10119000DF90CF90BF900895CF93C82F58985B9859
:1011A0002091490130914A0137FD0EC045983D9A82
:1011B0008091490138DF3D98459A2FEF3FEF3093FA
:1011C0004A012093490111C02FEF30E030934C01C8
:1011D00020934B01349909C000DF8823D9F3809113
:1011E0004D01846080934D010CC0479A87E691E0E1
:1011F0000197F1F700C000008C2F15DF882319F04C
:10120000479881E001C080E0CF9108958FE3C4DF6B
:101210004798E7E6F1E03197F1F700C0000010923F
:10122000480108951F93CF93DF93182F98DE5E9A9D
:1012300022E330E030934C0120934B01CEDE882333
:10124000E9F35E98CCE4DDE185E38A95F1F70000EF
:10125000499B02C04A9905C087EF92E00197F1F7D8
:101260000EC0479A95E39A95F1F70000499B0AC092
:101270004A9B08C047988FEC92E00197F1F700C0B5
:10128000000023C0479887EC90E00197F1F700C079
:101290000000499B02C04A990EC08FE891E0019777
:1012A000F1F700C00000499B02C04A9904C090EACF
:1012B0009A95F1F70AC087E092E00197F1F700C034
:1012C0000000499B02C04A990AC00E943C01882341
:1012D00031F02197209709F0B7CF1111B5CFDF91E9
:1012E000CF911F910895DF92EF92FF920F931F937A
:1012F000CF93DF9300D01F92CDB7DEB77C01D62EFF
:101300001092650110924D0160E03AD9D1FE63C0A0
:10131000E114F10409F43EC0CE010296C8D9882335
:1013200019F080E090E08DC08701015011098A8199
:101330000115110521F0982F9F719F3189F486FFC7
:101340000BC08FE529DF479887E691E00197F1F719
:1013500000C00000109247018A8185FF67C039C034
:10136000CE010196A4D98111DCCFD0FE16C019811F
:101370008A818F71806410DF81110CC0812F8F7082
:10138000806651DE811105C0589A5B9A81E0809396
:101390004701479800E010E049C087010250110959
:1013A0000330110508F042C0D9808D2D807F803E2A
:1013B00031F0803F91F0803609F038C017C08A8143
:1013C0008F718062E9DE811104C08D2D8F70806E77
:1013D0005FDE1CDF2BC0870129C08A818F7180628C
:1013E000DBDE811123C08D2D806F09C08A818F7152
:1013F0008062D2DE81111AC08D2D8F71806648DE29
:1014000015C0CE01039653D9811117C0DB8080919E
:10141000490190914A0197FF0DC08D2D90E0909366
:101420004A018093490101501109A8950115110540
:1014300041F705C0F8DD882381F3E12CF12CB4D805
:10144000C7010F900F900F90DF91CF911F910F91D7
:10145000FF90EF90DF90089582DD8FE891E0019793
:10146000F1F700C0000044983C9A45983D9A3C989A
:1014700044983D9845988FE891E00197F1F700C0B6
:101480000000349B05C086B185FB882780F901C028
:1014900080E080FF04C063DD8EE091E0089580E08D
:1014A00090E0089581E090E0089580916301806864
:1014B000809363010895489904C08091630187FF78
:1014C00004C0F3DF8EEF90E0089581E090E008958E
:1014D0008091630180FD0AC08091630181FF03C098
:1014E00085E090E008958DEF90E0089584E090E02D
:1014F0000895809163018E7F8093630180916301E1
:101500008D7F809363010895809163018061809352
:10151000630182E084B98DEF85B917B88FEF88B980
:101520001AB88BB90895109280008AE196E09093E2
:101530008900809388008DE0809381000895E8E61B
:10154000F0E080818E7F8083EFE6F0E080818C7D0B
:101550008083EBE6F0E080818E7F8083E8988FEFD8
:1015600086BB8BBB81E08CBB089585B78F7E85BF22
:101570005098519A589A599808951F93CF93DF9392
:101580001F92CDB7DEB71FB7F8948983B2DF898188
:10159000823039F080916301806180936301219AE8
:1015A00029983E98C0DFCBDF1FBF0F90DF91CF910E
:1015B0001F9108950F931F93CF93DF93CFB7F894A4
:1015C0001AB10BB1D5B710926301CFDF74DF0BB93D
:1015D0001AB9D5BFCFBF019719F482E090E002C0DD
:1015E00083E090E0DF91CF911F910F9108951F93B9
:1015F000CF93DF93EC011FB7F8948091630180646F
:1016000080936301809163018F7D809363017CDF10
:10161000ACDF89DF94DF209721F08AE191E09983A4
:1016200088831FBFDF91CF911F91089544DF8E3FC4
:10163000910529F481E0A1DF8EEF90E0089580917B
:101640006301806180936301219A299A88E090E088
:10165000089531DF8E3F910529F481E08EDF8EEF12
:1016600090E0089580916301806180936301219AE5
:10167000299889E090E008951F93CF93DF931F92FC
:10168000CDB7DEB71FB7F894A89560E08FEF9FEF56
:101690000E94C0028FE39CE90197F1F700C00000AF
:1016A000CE01019604D8882331F00E94D4021FBFD6
:1016B00088EF90E011C0809163018F79809363017E
:1016C0009091630189818076892B809363010E94C8
:1016D000D4021FBF8CE090E00F90DF91CF911F915B
:1016E0000895CF93DF93D0916301CFB7F894A89575
:1016F00061E08FEF9FEF0E94C0028FE39CE90197AA
:10170000F1F700C000008D2F0E940803882331F0FC
:101710000E94D402CFBF89EF90E005C00E94D4029E
:10172000CFBF8DE090E0DF91CF910895CF93DF930D
:10173000DFB7F894A89510925001CADE059711F40E
:1017400082E01BDF81E090E09093270180932601E7
:10175000DBDE80916400877F8093640010928000BC
:1017600080918100877E80938100809181008068D4
:10177000809381008091630186FF04C08091810085
:101780008F7B03C080918100806480938100809171
:10179000810081608093810080918100897F8093A6
:1017A0008100C1E0C0936F003F98479A2098289A23
:1017B00085B78F7E85BFC093680010926B00D5DE21
:1017C000E898809169008360809369008FEF86BB01
:1017D0008BBBCCBB2BDF8E3F910521F4DFBF8EEF9F
:1017E00090E00DC0809163018B7F809363018091B5
:1017F0006301816080936301DFBF84E090E0DF914B
:10180000CF910895CF93DF93CFB7F894A895109216
:1018100050015EDE049711F482E0AFDE81E090E0DB
:1018200090932701809326016FDE80916400877F6B
:10183000809364008091630185FF09C080918000DE
:10184000806C8093800081E080934E010CC0809179
:101850008000806880938000809180008F7B8093DF
:10186000800010924E0180918200806880938200F7
:1018700010924F01809180008C7F8093800088E0DF
:1018800080938100809181008F7E80938100809180
:10189000810081608093810080918100897F8093A5
:1018A000810082E080936F003E9A2098289A85B745
:1018B0008F7E85BFD1E0D093680010926B0055DE1B
:1018C000E898809169008360809369008FEF86BB00
:1018D0008BBBDCBBABDE8E3F910521F4CFBF8EEF1F
:1018E00090E013C080916301877F8093630180E85B
:1018F0009BEB9093890080938800809163018260C4
:1019000080936301CFBF85E090E0DF91CF91089590
:10191000DFDD8D3F910571F0CEDD8E3F910521F425
:1019200081E02BDE8EEF07C0189B02C087E003C06A
:1019300086E001C08DEF90E00895CF93DF93DFB78D
:10194000C7DD8D3F9105E1F07894C0E0B4DD8E3FB6
:10195000910551F0C11108C080915001811104C05E
:10196000C3B1C170A895F2CFDFBF80915001811142
:101970000AC0C1110BC081E000DE8EEF90E008C00C
:101980008DEF90E005C087EF90E002C087E090E027
:10199000DF91CF910895CF93DF93DFB799DD8D3F2E
:1019A0009105E1F07894C1E086DD8E3F910551F01C
:1019B000CC2341F080915001811104C0C3B1C170AA
:1019C000A895F2CFDFBF8091500181110AC0CC23CE
:1019D00059F081E0D2DD8EEF90E008C08DEF90E00D
:1019E00005C087EF90E002C086E090E0DF91CF91E4
:1019F00008952FDEEFE6F0E080818E7D8083EBE6B8
:101A0000F0E080818E7F8083E8988FEF86BB8BBB70
:101A100081E08CBB809163018B7F8093630108958B
:101A200057DD0497C1F547DD8E3F910529F481E02C
:101A3000A4DD8EEF90E0089521E02CBBE89A10928F
:101A400085001092840010925F0110926001109244
:101A500061011092620110925C0110925B019FEF94
:101A600096BB8091630184608093630120936B0037
:101A700080916F00806280936F009BBBB59A48DFB6
:101A8000069721F0B6DF8BEF90E008958091260154
:101A90009091270108958DEF90E00895DADD10927E
:101AA0004F01EBE6F0E080818E7F8083E8988FEF36
:101AB00086BB8BBB81E08CBB80E09DE79093890067
:101AC0008093880080916301877F809363010895EC
:101AD000CF93CFB7F89481E0809350018091630158
:101AE00082FD87DF8091630183FDD8DF0DDD81E01A
:101AF00044DD3BDD87EF90E0909327018093260142
:101B0000CFBFCF91089580915F0190916001A09126
:101B10006101B09162018093570190935801A093A5
:101B20005901B0935A0180915D0190915E0120911D
:101B30005B0130915C01821B930B90935601809363
:101B4000550120915D0130915E0180915B01909182
:101B50005C012817390798F480915701909158013A
:101B6000A0915901B0915A010197A109B10980933F
:101B7000570190935801A0935901B0935A011092C4
:101B80005F011092600110926101109262018091D8
:101B90005D0190915E0190935C0180935B01809167
:101BA000570190915801A0915901B0915A01892B88
:101BB0008A2B8B2B31F4809155019091560197FF20
:101BC00026C0609157017091580180915901909100
:101BD0005A0180680E94080381112AC08091570130
:101BE00090915801A0915901B0915A01892F0E94FA
:101BF000080381111DC08091570190915801A09157
:101C00005901B0915A010E940803811111C08091BD
:101C1000550190915601892F0E940803811108C037
:101C200080915501909156010E940803882339F054
:101C3000E0DE89EF90E090932701809326010895DC
:101C4000CF93DF9300D0CDB7DEB7CE0102960E94CE
:101C50005703811185C0CE0101960E94570381115F
:101C60007FC02A81498127FD25C01092570110921B
:101C700058011092590110925A0130E030935601E8
:101C8000209355018091550190915601982F8827F6
:101C9000840F911D909356018093550180915101BD
:101CA00090915201A0915301B09154010297A10962
:101CB000B10976C0822F8F7790E0A0E0B0E08093EA
:101CC000570190935801A0935901B0935A01809104
:101CD000570190915801A0915901B0915A01BA2F22
:101CE000A92F982F8827840F911DA11DB11D8093C6
:101CF000570190935801A0935901B0935A01CE0116
:101D000002960E94570381112BC080915701909138
:101D10005801A0915901B0915A012A81BA2FA92FD7
:101D2000982F8827820F911DA11DB11D8093570107
:101D300090935801A0935901B0935A01CE01029695
:101D40000E94570381110CC08A8190E09093560144
:101D500080935501CE0102960E945703882341F0DB
:101D60009DDE88EF90E0909327018093260120C0AC
:101D700080915501909156012A81982F8827820FD2
:101D8000911D90935601809355018091510190913E
:101D90005201A0915301B09154010597A109B109D5
:101DA0008093510190935201A0935301B093540139
:101DB0000F900F90DF91CF910895CF9389DB059716
:101DC00009F070C078DB8E3F910529F481E0D5DB06
:101DD0008EEF90E069C08091630188608093630119
:101DE000C1E0CCBBE89AC0936B002ADF109285005B
:101DF000109284008091570190915801A09159014F
:101E0000B0915A01892B8A2B8B2B19F580915501A2
:101E1000909156019093890080938800C0934F0160
:101E200080914E01811108C080918000806C809368
:101E30008000C0934E0127C080918000806880930D
:101E40008000809180008F7B8093800010924E01F3
:101E50001AC010924F01809155019091560197FD43
:101E60000CC0809155019091560190589093560165
:101E70008093550180E090E802C08FEF9FEF909330
:101E80008900809388008FEF86BB8BBB41DD06976E
:101E900021F004DE8CEF90E007C080912601909144
:101EA000270102C08DEF90E0CF9108951F920F920D
:101EB0000FB60F9211242F933F934F935F936F931D
:101EC0007F938F939F93AF93BF93EF93FF938091F3
:101ED000630182FD8EDD8091630183FF07C0DEDD3B
:101EE0008AEF90E09093270180932601FF91EF9174
:101EF000BF91AF919F918F917F916F915F914F9122
:101F00003F912F910F900FBE0F901F9018951F9229
:101F10000F920FB60F9211242F933F934F935F931D
:101F20006F937F938F939F93AF93BF93EF93FF93A1
:101F3000E89881E08CBB8091630182FD5ADD80913D
:101F4000630183FDABDDB1DA8EEF90E09093270162
:101F500080932601FF91EF91BF91AF919F918F9157
:101F60007F916F915F914F913F912F910F900FBE95
:101F70000F901F9018951F920F920FB60F92112479
:101F80002F933F934F935F936F937F938F939F9381
:101F9000AF93BF93EF93FF9380918600909187005A
:101FA00090935E0180935D018091810090E4892788
:101FB0008093810080915D0190915E0181159E4F1B
:101FC000B0F4B09B14C080915F0190916001A0912A
:101FD0006101B09162010196A11DB11D80935F0165
:101FE00090936001A0936101B0936201B09A8BDD80
:101FF000FF91EF91BF91AF919F918F917F916F91E1
:102000005F914F913F912F910F900FBE0F901F90B6
:1020100018951F920F920FB60F9211248F939F93D2
:10202000AF93BF938091630182FF14C080915F01E1
:1020300090916001A0916101B09162010196A11D92
:10204000B11D80935F0190936001A0936101B093F3
:10205000620101C0A895BF91AF919F918F910F90A0
:102060000FBE0F901F9018951F920F920FB60F92F0
:1020700011242F933F934F935F936F937F938F938D
:102080009F93AF93BF93EF93FF938091630183FD81
:1020900002C0A8957DC080914F01811120C0809120
:1020A000570190915801A0915901B0915A0101979F
:1020B000A109B1098093570190935801A093590148
:1020C000B0935A018091570190915801A091590104
:1020D000B0915A01892B8A2B8B2BE1F053C0809150
:1020E000510190915201A0915301B0915401892B5B
:1020F0008A2B8B2B11F4D2DC4BC0A2DD80915701CF
:1021000090915801A0915901B0915A01892B8A2BC5
:102110008B2B21F580915501909156019093890068
:102120008093880091E090934F0180914E0181113E
:1021300008C080918000806C8093800090934E0155
:1021400027C080918000806880938000809180000B
:102150008F7B8093800010924E011AC010924F0125
:10216000809155019091560197FD0CC080915501C9
:10217000909156019058909356018093550180E0BC
:1021800090E802C08FEF9FEF9093890080938800C2
:10219000FF91EF91BF91AF919F918F917F916F913F
:1021A0005F914F913F912F910F900FBE0F901F9015
:1021B0001895CF93CFB7F894A89561E08FEF9FEF74
:1021C0000E94C0028FE39CE90197F1F700C0000074
:1021D0009FEF26E781E0915020408040E1F700C06A
:1021E00000001EDC90932701809326017894809153
:1021F000630182FF02C0A895FACF80E090E00E94C0
:102200008D020E94D40281E0B8D9CFBF809126010F
:1022100090912701019729F0809126019091270143
:1022200002C08AE090E0CF910895CF93CFB7F894A1
:10223000A89560E08FEF9FEF0E94C0028FE39CE9BA
:102240000197F1F700C00000FBDC809157019091ED
:102250005801A0915901B0915A0180935101909376
:102260005201A0935301B0935401409151015091F8
:1022700052016091530170915401809155019091E8
:102280005601A0E0B0E0BA0155274427842B952BD6
:10229000A62BB72B8093510190935201A093530129
:1022A000B09354018ADD909327018093260178949E
:1022B0008091630183FF02C0A895FACF80E090E08F
:1022C0000E948D028091510190915201A091530181
:1022D000B0915401892B8A2B8B2B31F08091EB002C
:1022E00080628093EB0002C00E94D40281E045D955
:1022F000CFBF8091260190912701019729F080910D
:1023000026019091270102C08BE090E0CF910895C3
:102310001F93CF93DF9300D01F92CDB7DEB7EEE6C9
:10232000F1E08091F100819381E0E637F807C9F789
:1023300020916E0130916F01832F90E08A309105DA
:1023400008F0F4C0FC01E65CFF4F0C94641A2038DE
:1023500079F0223809F0EAC0809172018093E90097
:102360008091EB0085FB882780F91092E90006C078
:102370008091690190916A01911182609091E800C9
:10238000977F9093E8008093F1001092F1009BC03A
:10239000822F8D7F09F0CAC0222319F0223061F00C
:1023A000B6C080917001813009F0B1C0333009F0BE
:1023B00080E080936A0128C080917001811124C05F
:1023C00020917201277009F4A2C02093E900809146
:1023D000EB0080FF19C08091EB00333011F4806274
:1023E00011C080618093EB0081E090E0022E01C07B
:1023F000880F0A94EAF78093EA001092EA0080912D
:10240000EB0088608093EB001092E9008091E80077
:10241000877F60C021118AC0109170018091E8000F
:10242000877F8093E800B6D08091E80080FD05C0EA
:1024300080916D018111F8CF6AC0812F8F7719F0DB
:1024400093E090936D0180688093E30060C0205812
:10245000223008F06BC09E012D5F3F4FAE014F5FF1
:102460005F4F6091720180917001909171010E94A3
:10247000FD06BC01009709F44AC08091E800877FFF
:102480008093E8002B8189819A81211102C0C4D1F7
:1024900005C0213011F422D201C05ED18091E80044
:1024A000982F9B7F9093E8008F778093E8002FC050
:1024B0002038E1F58091E800877F8093E8008091E3
:1024C0006B018093F1008091E800982F9E7F90939C
:1024D000E8008F778093E8005DD019C0211126C0F5
:1024E00090917001923098F48091E800877F8093FA
:1024F000E80090936B014ED080916B01882311F01E
:1025000084E001C083E080936D010E947F0180918F
:10251000E80083FF0EC08091EB0080628093EB00A7
:102520008091E800877F8093E80003C00E94D80074
:10253000EECF0F900F900F90DF91CF911F910895E4
:102540008093E900EBEEF0E0808181608083EDEE26
:10255000F0E010826093EC0040838091EE00881FD1
:102560008827881F08951092F40080E08093E90086
:102570001092F0001092E8009091ED009D7F9093F2
:10258000ED009091EB009E7F9093EB008F5F853084
:1025900069F7089580916E0187FD05C08091E8007C
:1025A00080FF0FC013C08091E80082FD05C08091BC
:1025B0006D018111F8CF08958091E800982F9B7FDD
:1025C00009C080916D018111E9CF08958091E800E3
:1025D000982F9E7F9093E8008F778093E80008956E
:1025E00085E69091EC0090FF05C09091E80090FF87
:1025F00005C019C09091E80092FD15C090916D0141
:10260000992399F09091EB0095FD11C09091E10014
:1026100092FFE7CF9091E1009B7F9093E100815082
:1026200001F783E0089580E0089582E0089581E055
:1026300008950F931F93CF93DF93EC018B01D0DFAD
:1026400081111DC02097D1F08091E80085FD12C056
:102650008091E800982F9B7F9093E8008F7780937C
:10266000E8000115110559F3F8010995813039F792
:1026700084E005C08091F1002197E4CF80E0DF91F4
:10268000CF911F910F910895EF92FF920F931F9397
:10269000CF93DF93EC018B017A01A2DF811121C07E
:1026A00001151105E9F08091E80085FD12C08091C7
:1026B000E800982F9E7F9093E8008F778093E80042
:1026C000E114F10451F3F7010995813031F784E009
:1026D00008C088818093F100015011092196E0CF54
:1026E00080E0DF91CF911F910F91FF90EF900895BF
:1026F000EF92FF920F931F93CF93DF93EC018B0127
:102700007A016EDF811121C001151105E9F0809178
:10271000E80085FD12C08091E800982F9B7F909380
:10272000E8008F778093E800E114F10451F3F7019A
:102730000995813031F784E008C08091F1008883E9
:10274000015011092196E0CF80E0DF91CF911F91D8
:102750000F91FF90EF9008952091740130917501D1
:102760002617370768F06115710559F42091E800C4
:10277000322F3E7F3093E8002F772093E80001C08E
:10278000B90120E061157105D9F13091E80033FD00
:102790003FC03091E80032FF06C08091E80082FF20
:1027A00032C080E0089530916D01332399F130916A
:1027B000E80030FFE7CF2091F20030E0FC01281B59
:1027C000390BA9014E0F5F1FCF016115710549F04B
:1027D0004830510530F481918093F10061507109C6
:1027E000F0CF21E04830510509F020E03091E800B9
:1027F000432F4E7F4093E8003F773093E800C2CFED
:102800002111C3CFCACF80916D018111C6CF02C003
:1028100081E0089582E0089520917401309175015E
:102820002617370768F06115710559F42091E80003
:10283000322F3E7F3093E8002F772093E80001C0CD
:10284000B90120E06115710509F43CC03091E80040
:1028500033FD40C03091E80032FF06C08091E800AF
:1028600082FF33C080E0089530916D013323A1F1E0
:102870003091E80030FFE6CF2091F20030E0FC011B
:10288000281B390BA9014E0F5F1FCF016115710580
:1028900051F04830510538F484918093F100615033
:1028A00071093196EFCF21E04830510509F020E061
:1028B0003091E800432F4E7F4093E8003F773093FC
:1028C000E800C0CF2111C2CFC9CF80916D01811125
:1028D000C5CF02C081E0089582E00895EF92FF9293
:1028E0000F931F93CF93DF93582FE92FEB01209184
:1028F0007401309175012617370760F0209759F45D
:102900008091E800982F9E7F9093E8008F778093C6
:10291000E80001C0E90140E0209709F440C080913F
:10292000E80083FD44C08091E80082FF06C08091EA
:10293000E80082FF37C080E03DC080916D018823B0
:10294000C1F18091E80080FFE7CF0091F20010E034
:10295000852F9E2F081B190B9C01200F311F2097DC
:1029600069F02830310550F47C012FEFE21AF20AA9
:10297000B1D58093F1002197C701EECF41E0283017
:10298000310509F040E02091E800322F3E7F30937E
:10299000E8002F772093E800582FE92FBDCF411191
:1029A000BECFC5CF80916D018111C1CF02C081E042
:1029B00001C082E0DF91CF911F910F91FF90EF90C6
:1029C000089566D068D010926D0110926B0110923C
:1029D0006A011092690184E089BD89B5826089BD70
:1029E00009B400FEFDCF8091D800982F9F77909377
:1029F000D80080688093D800809163008E7F809398
:102A000063008091D8008F7D8093D8008091E00092
:102A10008E7F8093E0008091E1008E7F8093E100C3
:102A20008091E20081608093E2008091E100877FE5
:102A30008093E1008091E20088608093E200089535
:102A4000C0DF81E080936C0178940895BADFE0EEF6
:102A5000F0E0808181608083E8EDF0E080818F7715
:102A6000808319BC10926C0108950895CF938091D2
:102A70006D01882359F0C091E900C7701092E900F8
:102A80008091E80083FD44DCC093E900CF91089574
:102A90001092E20008951092E10008951F920F92A3
:102AA0000FB60F9211242F933F934F935F936F9321
:102AB0007F938F939F93AF93BF93EF93FF938091F7
:102AC000E10080FF1DC08091E20080FF19C080916D
:102AD000E1008E7F8093E1008091E2008E7F809301
:102AE000E2008091E20080618093E2008091D80052
:102AF00080628093D80019BC10926D010E94D200B0
:102B00008091E10084FF2BC08091E20084FF27C008
:102B100084E089BD89B5826089BD09B400FEFDCF1E
:102B20008091D8008F7D8093D8008091E1008F7EC6
:102B30008093E1008091E2008F7E8093E20080919B
:102B4000E20081608093E20080916B01882311F0A4
:102B500084E001C081E080936D010E94CA008091F1
:102B6000E10083FF28C08091E20083FF24C08091B0
:102B7000E100877F8093E10082E080936D011092F5
:102B80006B018091E1008E7F8093E1008091E200F3
:102B90008E7F8093E2008091E20080618093E2006A
:102BA000E2DC42E060E080E0CBDC8091F000886015
:102BB0008093F0005ADF8091E10082FF0AC080918B
:102BC000E20082FF06C08091E1008B7F8093E100EC
:102BD0004CDFFF91EF91BF91AF919F918F917F91CA
:102BE0006F915F914F913F912F910F900FBE0F907A
:102BF0001F9018951F920F920FB60F9211241F93DA
:102C00002F933F934F935F936F937F938F939F93F4
:102C1000AF93BF93CF93DF93EF93FF93C9EED0E0D1
:102C20001881177023DFE8EEF0E08081877F8083D2
:102C30001883FF91EF91DF91CF91BF91AF919F9159
:102C40008F917F916F915F914F913F912F911F9144
:102C50000F900FBE0F901F9018950E947407982F29
:102C600083FB882780F921E0822790FF826097FF0D
:102C7000846008951F93CF93DF93D82F162FC9EC4C
:102C80000E9474078D23811307C0C15029F085E38A
:102C90008A95F1F70000F4CF0E947407D82381E0F1
:102CA000D11301C080E0DF91CF911F910895CF93A0
:102CB000DF93E82FF0E0EC5BFE4FD491611102C08E
:102CC000C0E00AC0CD2F08C00E943C01882351F00B
:102CD00085E38A95F1F700000E9474078D238C1715
:102CE00099F381E0DF91CF9108951F93CF93DF9304
:102CF000182F47989BB1967F9BB95E9A2FEF81EE74
:102D000094E0215080409040E1F700C000005E98C0
:102D1000CCE4DDE147989BB1967B9BB987EC90E0D2
:102D20000197F1F700C000004A9905C087E592E0DD
:102D30000197F1F70CC087EC90E00197F1F700C024
:102D400000004A9907C08FE891E00197F1F700C0B1
:102D5000000014C0479A8FE891E00197F1F700C096
:102D600000004A9B02C0479809C047988FE891E04D
:102D70000197F1F700C000004A9909C00E943C0188
:102D8000882329F02197209729F61111C3CFDF91CD
:102D9000CF911F910895CF92DF92EF92FF920F9300
:102DA0001F93CF93DF937C0161E00E94C002C0E0DB
:102DB000D0E0CC24C39401E513EC499913C0015031
:102DC00011090115110521F00E943C01811105C076
:102DD0000E94D40280E090E05CC08AE68A95F1F718
:102DE00000C0EBCF809165018111F2CF5B9889EC37
:102DF000499B07C0815029F09AE09A95F1F700C0ED
:102E0000F7CF499B0AC0C09265015B9A87E191E0C8
:102E10000197F1F700C000005B98F89461E081E051
:102E200029DF182F88E0D82E00E0112379F060E028
:102E300081E020DF182F882339F006954A99006831
:102E400061E081E017DF182FDA9479F77894112385
:102E500069F05B9A802F0E940803811117C02196A8
:102E600087EC90E00197F1F700C00000A895CE151F
:102E7000DF0541F0112341F080916501882309F4B9
:102E80009ACF04C0111102C0C0E0D0E00E94D40269
:102E9000CE01DF91CF911F910F91FF90EF90DF90C6
:102EA000CF900895CF92DF92EF92FF920F931F93EE
:102EB000CF93DF931F92CDB7DEB78C01D62E109241
:102EC0006501009709F491C060E00E94C00260E0D3
:102ED00080ECD0DE882391F05B982D2D2270C22EDD
:102EE000D1FC479A589A8AE08A95F1F700C068E0C9
:102EF00088E0C0DE811105C0479858980E94D4022E
:102F000074C095ED9A95F1F7000078014A9B03C0D3
:102F100000E010E048C058984A9905C00E943C0162
:102F20008111FACFF5CF91E0E916F10441F4C11017
:102F300006C068E088E09EDE60E088E09BDE589A8C
:102F4000CE0101960E9457038111E2CF998188E05A
:102F5000EBE2F1E03197F1F700C0000090FD05C011
:102F60005B9AFAE0FA95F1F700C058982AE62A959C
:102F7000F1F700C0589A5B989695815049F768E040
:102F800088E078DE882309F4C3CF81E0E81AF108ED
:102F9000EFE8F1E03197F1F700C00000A895E114E7
:102FA000F10409F0B3CF0E94D40201151105B9F064
:102FB000D0FE12C05B9A4798F5E0FA95F1F7000051
:102FC00058982AE02A95F1F700C0499B06C00E9454
:102FD0003C018111FACF09C04798C80108C08AE6B0
:102FE0008A95F1F700C04798589880E090E00F90DC
:102FF000DF91CF911F910F91FF90EF90DF90CF90D5
:10300000089561110FC0E82FF0E0EC5BFE4FE491F2
:10301000E7FF02C0479AEF77EE2379F18BB18E2B51
:103020008BB90895E62FF0E0EC5BFE4F81110CC0E8
:10303000E491E7FF02C04798EF77EE23F1F08BB100
:10304000E095E823EBB908959491E82FF0E0EC5B6C
:10305000FE4FE491E7FF02C0479AEF77EE2319F0A5
:103060008BB18E2B8BB997FF02C047989F7799231E
:1030700021F08BB1909598239BB9089547988BB117
:10308000867B8BB985E38A95F1F7000088E291E0B1
:103090000895CF93DF93C82FD8E0C7FF02C05B9A93
:1030A00001C05B988AE08A95F1F700C058988AE0E1
:1030B0008A95F1F700C0499B05C00E943C0181112F
:1030C000FACF1CC0C7FF02C05B9806C05B9A04C061
:1030D0000E943C01882391F0499BFACF589A5B9853
:1030E0008AE08A95F1F700C04A9B05C00E943C0126
:1030F0008111FACF03C0CC0FD15079F6DF91CF9177
:103100000895FF920F931F93CF93DF9318E0C0E0D1
:10311000FF24F3944A9906C00E943C018111FACF22
:103120008FEF2BC058988AE08A95F1F700C0D9B18B
:10313000D695D170DF2511F000E801C000E05B9A60
:1031400089B1869581708F25D81305C00E943C01F6
:103150008111F6CFE5CF5B988AE08A95F1F700C040
:103160004A9B05C00E943C018111FACFD9CFC69578
:10317000C02B589A115071F68C2FDF91CF911F916F
:103180000F91FF900895CF93DF93D82FC4E0D0FF25
:1031900002C05B9A01C05B988AE08A95F1F700C093
:1031A0004798499905C00E943C018111FACF1AC085
:1031B000D695D0FF02C05B9A01C05B988AE08A95E1
:1031C000F1F700C0D695479A499B05C00E943C0183
:1031D0008111FACF07C0C150D1F65B988AE08A9579
:1031E000F1F700C0DF91CF9108951F93CF93DF9344
:1031F000D4E0C0E0499906C00E943C018111FACF99
:103200008FEF23C08AE08A95F1F700C04A9902C087
:1032100010E801C010E04798499B05C00E943C019E
:103220008111FACFEDCF8AE08A95F1F700C08C2F9B
:103230008695812B86954A9902C0C0E801C0C0E0FE
:10324000C82B479AD150B1F68C2FDF91CF911F91A7
:103250000895CF93DF93EC014A9B05C00E943C0187
:103260008111FACF19C088819FEF94B985B982E0A6
:103270008A95F1F700C058984A9905C00E943C0110
:103280008111FACF09C089819FEF94B985B982E095
:103290008A95F1F700C0589ADF91CF910895CF93A6
:1032A000DF93EC014A9B05C00E943C018111FACFDB
:1032B00011C014B815B883B1888358984A9905C0CD
:1032C0000E943C018111FACF05C014B815B883B132
:1032D0008983589ADF91CF9108959FEF94B985B96A
:1032E00082E08A95F1F700C058984A9905C00E947B
:1032F0003C018111FACF07C0589A4A9B04C00E9432
:103300003C018111FACF0895CF9358984A9906C08D
:103310000E943C018111FACFCFEF0BC014B815B851
:10332000C3B1589A4A9B05C00E943C018111FACF53
:10333000F3CF8C2FCF910895479A8BB1867F8BB9AD
:103340008AE18A95F1F700C04A9BFECF95E09A95F5
:10335000F1F7000014B815B883B147984A99FECF29
:103360009AE19A95F1F700C0089531E029B122FB66
:10337000222720F923272613F9CF14B815B823B133
:10338000FC01208380E00895479A9BB1967F9BB90A
:103390009AE19A95F1F700C04A9BFECF9FEF94B94E
:1033A00085B985E08A95F1F70000479895E39A95ED
:1033B000F1F700004A99FECF14B815B883B108950B
:1033C00021E099B192FB992790F992279613F9CFB2
:1033D0009FEF94B985B980E00895479A8BB1867EB6
:1033E0008BB925E02A95F1F7000098E080E04D992F
:1033F000FECF4D9BFECF22E02A95F1F729B1880F31
:1034000022FB222720F9822B915089F74798499B6C
:10341000FECF0895479A9BB1967E9BB92AE12A95E3
:10342000F1F700C04999FECF98E087FF02C05B9892
:1034300001C05B9A5C9A880F00C000C000005C98D5
:1034400025E02A95F1F7915081F785E08A95F1F70B
:1034500000004798499BFECF0895982F24E630E05E
:1034600041E089B1869581708427861739F0215013
:10347000310921153105A9F78FEF089588E097FFED
:1034800002C05B9801C05B9A5C9A990F00C000C0B3
:1034900000005C9825E02A95F1F7815081F70895A6
:1034A000AA1BBB1B51E107C0AA1FBB1FA617B7076A
:1034B00010F0A61BB70B881F991F5A95A9F7809586
:1034C0009095BC01CD010895EE0FFF1F0590F4917A
:1034D000E02D0994F999FECF92BD81BDF89A992704
:0834E00080B50895F894FFCFB8
:1034E8000304000F08033000300030000000120908
:1034F80073095008EA07D907EC07680D00000000B7
:10350800000000000000010075165217CB16571670
:083518002D1601180055AAFF51
:00000001FF
