:10000000BDC00000D7C00000D5C00000D3C00000B4
:10001000D1C00000CFC00000CDC00000CBC00000A8
:10002000C9C00000C7C00000C5C000000C94200A71
:100030000C94CB0ABFC00000BDC00000BBC00000D4
:10004000B9C00000B7C00000B5C00000B3C00000D8
:10005000B1C00000AFC00000ADC00000ABC00000E8
:10006000A9C00000A7C00000A5C00000A3C00000F8
:10007000A1C000003404B4049F059F059F059F059F
:100080009F059F059F059F059F059F059F059F0550
:100090009F0544054D0578058005600550056905F7
:1000A0008B0595057D069E066A079E066A07E00693
:1000B000FD066A072D0743074003780075006D00B1
:1000C0003100350034003100200066006C006F0004
:1000D0007000700079002000610064006100700011
:1000E000740065007200200028004F004C00490099
:1000F0004D0045005800290000003A034E00610001
:100100007400650020004C006100770073006F00F0
:100110006E00200061006E00640020004F0070003F
:1001200065006E00430042004D0020007400650031
:1001300061006D00000004030904090220000101B0
:100140000080320904000002FF000000070583025E
:100150002000000705040220000012011001FF002A
:100160000008D01604050703010203010008010975
:100170008088818940484149C0C8C1C911241FBE37
:10018000CFEFD2E0DEBFCDBF11E0A0E0B1E0E8E903
:10019000FDE102C005900D92AE31B107D9F721E023
:1001A000AEE1B1E001C01D92AE33B207E1F7F9D084
:1001B0000C94CA0E25CF80912E01089581E05CD564
:1001C00010922E0181E080931E01089510921E016D
:1001D00010922C0180E050C50F931F93CF93DF93B3
:1001E000CDB7DEB728970FB6F894DEBF0FBECDBFF0
:1001F000809136018076803291F58E010F5F1F4F1E
:1002000088E0F80111928A95E9F7B80180913701E9
:1002100064D28F3F19F484E02FD521C09091E8007B
:10022000977F9093E8009091360197FF0BC0682F5D
:10023000772767FD7095C80162D78091E800982FF5
:100240009B7F08C08091E80080FFFCCF8091E80090
:10025000982F9E7F9093E8008F778093E8002896F0
:100260000FB6F894DEBF0FBECDBFDF91CF911F91C7
:100270000F910895E9EEF0E08081877091E090930E
:100280002E0194E09083ABEEB0E09C9190629C9341
:1002900093E090839C9190629C9380830895CF9388
:1002A000DF931F92CDB7DEB7A89580912E01811103
:1002B00007C0FDD4882331F08983EFD4898103C03E
:1002C00080E001C081E00F90DF91CF9108954091CF
:1002D000E9004770E0E0F1E081E090E0DF0120819B
:1002E0002223E9F02093E90031969C010C9002C092
:1002F000220F331F0A94E2F72093EA001092EA00DB
:100300002091EB0028602093EB002091EB0025FF6B
:10031000E5CF2091EB0020612093EB00DFCF4093ED
:10032000E9000895D4DF46E261E883E0DCD546E2E7
:1003300060E884E0D8D582E09FD481E080932C01EE
:10034000089524E02093E90070E04BED50E0A3D63F
:1003500080912E0181110BC08091E800982F9B7F26
:100360009093E8008F778093E80081E0089580E023
:10037000089523E02093E90070E04BED50E057D65C
:1003800080912E0181110BC08091E800982F9E7FF3
:100390009093E8008F778093E80081E0089580E0F3
:1003A0000895CF93DF93CDB7DEB727970FB6F894B4
:1003B000DEBF0FBECDBF90E080E80FB6F89480930B
:1003C0006100909361000FBE2EE088E190E00FB6CF
:1003D000F894A895809360000FBE209360000E945F
:1003E000F20980911E01811102C0A895FACF13D4A1
:1003F00080E042D47ED0A89580912C01882399F189
:1004000080913501843049F58093E9008091E800BE
:1004100085FF23C064E0CE01019693DF811103C004
:1004200084E02AD41AC01D821E821F82BE016B5F27
:100430007F4FCE010196F1D1181634F48D8363E01D
:10044000CE01059696DF09C0882339F084E014D4E4
:100450008091EB0080628093EB0021DF8111CCCF93
:1004600010922E01C9CF80911E018111C4CFA89591
:10047000FACF80912601811102C00C94570E88E8B2
:10048000089590912601992369F0E0912001F0915F
:1004900021019F012F5F3F4F3093210120932001C5
:1004A0008083089590911F01943081F49DEF980FFF
:1004B000933040F08B3031F09DEE980F923010F079
:1004C000863199F491E0909326010FC0E92FF0E076
:1004D000E65EFE4F2081281302C09F5F03C081119A
:1004E00004C091E090931F0102C010921F010C9470
:1004F0007F0E109227019ED30C94FF0C613011F4F3
:1005000023E003C061110DC024E02093E900909323
:100510002A0180932901609303018091E80085FFFF
:10052000FCCF089580910301813079F48091F2002D
:10053000811106C08091290190912A01892BE9F04F
:100540008091E800982F9E7F13C0811116C0809182
:10055000290190912A01009719F06BED70E03CD5CC
:100560008091E80085FD09C08091E800982F9B7F6D
:100570009093E8008F778093E8008FE080930301E9
:1005800010922A011092290108958093F100809120
:10059000290190912A01019790932A0180932901C2
:1005A0008091E80085FF04C080912E018195089517
:1005B0008091E800982F9E7F9093E8008F7780933A
:1005C000E8008091E80085FDEFCF80912E0188231F
:1005D000C1F3EACFCF92DF92FF920F931F93CF9395
:1005E000DF931F92CDB7DEB78C01F62E61E08F2D21
:1005F000972F798383DFCF2C7981D72EC114D10433
:1006000041F0F8010995C1DFF1E0CF1AD108882344
:10061000A9F388DF80E00F90DF91CF911F910F91B8
:10062000FF90DF90CF9008952091E80025FF13C040
:1006300020912E01211121C02091F100FC01208385
:100640008091290190912A01019790932A0180932A
:10065000290180E008952091E800322F3B7F3093FC
:10066000E8002F772093E8002091E80025FDE0CFF7
:1006700020912E012223C1F3DBCF8FEF0895DF926B
:10068000EF92FF920F931F93CF93DF9300D0CDB7DC
:10069000DEB77C01D62E60E08D2D972F7A832EDF7A
:1006A0000D2D7A81172F0115110559F0CE010196F4
:1006B000BBDF01501109811104C08981F70109953F
:1006C000F2CF30DF80E00F900F90DF91CF911F913C
:1006D0000F91FF90EF90DF900895CF93DF93EB01A0
:1006E000823009F484C038F4882309F438C081309A
:1006F00009F438C08AC0833009F474C0843009F02A
:1007000084C08091E800877F8093E8008091E800B2
:1007100080FFFCCF8091E800982F9E7F9093E800A7
:100720008F778093E8002FEF80E792E021508040A0
:100730009040E1F700C0000088E10FB6F894809384
:100740006000109260000FBE53D6F89410928100A2
:1007500010928900109288000C9400185AC01882D8
:1007600081E058C082E291E09093210180932001C2
:1007700083E082D280912F0190913001892B29F45E
:10078000B8DE9093300180932F0180912F019091DA
:100790003001892BD1F187E0888383E089838091C0
:1007A00027018A8390912801992379F081608A83B7
:1007B00081E080932801E0912F01F09130010190B8
:1007C000F081E02D80E0099555DD80912801806859
:1007D0008093280180912C01811119C08A81826047
:1007E0008A8315C01092280182E046D212C08091FF
:1007F000280180FD0EC0E0912F01F09130010190A1
:10080000F081E02D80E0099504C08FEF03C088E0FF
:1008100001C080E0DF91CF910895BF92CF92DF9227
:10082000EF92FF920F931F93CF93DF9300D0CDB73A
:10083000DEB77C016B01809128018E7F80932801B7
:10084000D701BC9012960D911C91139783E014D29E
:100850004B2D50E0FA013897E831F10508F06FC1EF
:10086000E65CFF4F0C94BC0E8091270184FD1AC0FA
:10087000F7018181807F803439F140F48032E1F0EA
:100880008033F1F0803109F05AC10CC0803691F10B
:10089000803709F464C0803509F051C1B8018FE395
:1008A0009EE060C0E0912F01F09130010480F5815D
:1008B000E02DC8010995E6C0B80182E49DE052C070
:1008C000B80186EB9DE04EC061E0C80117DE01155E
:1008D000110509F4C3C0CE0101960E940C0E898156
:1008E00054DE8111BBC08A8150DE8111B7C0025035
:1008F0001109EDCF6801E894D7F8C114D10409F4C7
:10090000C1C01092260161E0C601F8DD5B988FE15D
:100910009EE40197F1F700C000000E94570EE12C01
:10092000F12C002710786E2D6170CE0101960E9487
:10093000700E87FDA7C0898128DE81110CC00115CA
:10094000110519F08981853531F09FEFE91AF90A0F
:10095000EC14FD0441F7E6DD0E94570E93C0B80188
:1009600089E392E037DE8EC080912701D70111968E
:100970006C9184FD19C0862F807F803441F140F452
:100980008032E9F08033F9F0803109F0D8C00CC032
:100990008036A9F1803709F471C0803509F0CFC0E5
:1009A000B8018AE29EE06DC0E0912F01F091300124
:1009B0006F700280F381E02DC8010995B2C0B801C3
:1009C0008AE09DE05EC0B80184E89DE05AC060E026
:1009D000C80194DD0115110509F440C0CE0101964E
:1009E00023DE81113BC0CE0102961EDE811136C08E
:1009F000CE0101960E94EA0D02501109EBCF0115BC
:100A0000110509F43FC01092260160E0C80176DDAF
:100A10005B9882E2E82E81E0F82E8091200190918F
:100A20002101E816F90631F0D7018D917D010E9470
:100A30007F0EF3CF82E291E0909321018093200119
:100A4000E12CF12CCE010196EFDD882349F06E2DCB
:100A5000617080E00E949B0E0E94570E63DD12C001
:100A60006E2D617089810E949B0E87FD0BC0BFEFC8
:100A7000EB1AFB0AE016F10629F7E9CFB80181E489
:100A800092E0FDDD80E05CC020912D0181E090E0EE
:100A9000211147C080E090E044C010922D014DC06C
:100AA000E0912F01F09130010680F781E02DD70110
:100AB00012966C91129711968C910995882311F3D7
:100AC000E0912F01F09130010084F185E02D09952E
:100AD00027C0E0912F01F09130010284F385E02DD1
:100AE000D70112966C91129711968C91099525C099
:100AF0008091270184FD23C014B815B883B110C0BC
:100B00008091270184FD1BC0D70111968C919FEF26
:100B100094B985B912C08091270184FD10C0A9DC69
:100B200090E0F6019283818308C08091270184FDC3
:100B300006C0D70111968C91A4DC82E001C08FEF32
:100B40000F900F90DF91CF911F910F91FF90EF9039
:100B5000DF90CF90BF9008950F931F93CF93DF93B3
:100B6000EA018901F9011082692F77276230710546
:100B700061F06330710571F06130710509F040C0BA
:100B800082E190E02AE531E03FC080E290E02AE394
:100B900031E03AC0992781309105B1F090F0823070
:100BA0009105A9F0039761F580E090E00E94C20EE4
:100BB00090E0809590959927ECE0F1E02AE030E014
:100BC0000CC0E6E3F1E005C0EAEFF0E002C0E8EBBC
:100BD000F0E0849190E09F0117C0009741F0B901C7
:100BE0000E94A80EC09692938293CB01F6CF80917B
:100BF000040190E022E0F801208324E031E004C009
:100C000080E090E020E030E039832883DF91CF91CD
:100C10001F910F91089518B884E087B98DE093E093
:100C20009093890080938800E1E8F0E080818D60F6
:100C30008083089518B81BB884E887B989E58AB914
:100C400015B814B8089539B159B199B146B186B102
:100C5000569551703072232F30E035952795252B0E
:100C60009470990F922B4074440F492B807890E038
:100C700095958795842B089580932B01823049F0B8
:100C800018F4882341F00895833029F0843019F056
:100C9000089542980895429A089580912B018350B7
:100CA000823020F488B194E0892788B90895B19BF7
:100CB00003C0B19A81E0089580E008951F93CF9317
:100CC000DF9300D01F92CDB7DEB7E6E3F1E080916D
:100CD000F100819381E0EE33F807C9F720913601E6
:100CE00030913701832F90E08A30910508F0F2C0EF
:100CF000FC01EE5AFF4F0C94BC0E203879F02238DC
:100D000009F0E8C080913A018093E9008091EB00FE
:100D100085FB882780F91092E90006C08091310197
:100D200090913201911182609091E800977F9093A9
:100D3000E8008093F1001092F1009AC0822F8D7F1D
:100D400009F0C8C0222319F0223061F0B4C08091AC
:100D50003801813009F0AFC0333009F080E0809372
:100D6000320128C080913801811124C020913A01BC
:100D7000277009F4A0C02093E9008091EB0080FF68
:100D800019C08091EB00333011F4806211C0806192
:100D90008093EB0081E090E0022E01C0880F0A945E
:100DA000EAF78093EA001092EA008091EB008860F5
:100DB0008093EB001092E9008091E800877F5FC08C
:100DC000211188C0109138018091E800877F8093BD
:100DD000E800B3D08091E80080FD05C08091350126
:100DE0008111F8CF68C0812F8F7719F093E090932D
:100DF000350180688093E3005EC02058223008F0FF
:100E000069C09E012D5F3F4FAE014F5F5F4F609104
:100E10003A0180913801909139019EDEBC01009722
:100E200009F449C08091E800877F8093E8002B8116
:100E300089819A81211102C0C2D105C0213011F4EB
:100E400020D201C05CD18091E800982F9B7F9093C5
:100E5000E8008F778093E8002EC02038D9F5809184
:100E6000E800877F8093E800809133018093F10050
:100E70008091E800982F9E7F9093E8008F77809371
:100E8000E8005BD018C0211125C090913801923044
:100E900090F48091E800877F8093E800909333017D
:100EA0004CD080913301882311F084E001C083E0AD
:100EB0008093350137DA8091E80083FF0DC080917F
:100EC000EB0080628093EB008091E800877F809345
:100ED000E80002C081D9EFCF0F900F900F90DF9103
:100EE000CF911F9108958093E900EBEEF0E08081AF
:100EF00081608083EDEEF0E010826093EC0040832F
:100F00008091EE00881F8827881F08951092F400B2
:100F100080E08093E9001092F0001092E800909138
:100F2000ED009D7F9093ED009091EB009E7F90935C
:100F3000EB008F5F853069F708958091360187FD5A
:100F400005C08091E80080FF0FC013C08091E800C9
:100F500082FD05C0809135018111F8CF08958091FF
:100F6000E800982F9B7F09C0809135018111E9CF5E
:100F700008958091E800982F9E7F9093E8008F77E6
:100F80008093E800089585E69091EC0090FF05C0FD
:100F90009091E80090FF05C019C09091E80092FD83
:100FA00015C090913501992399F09091EB0095FD32
:100FB00011C09091E10092FFE7CF9091E1009B7FFB
:100FC0009093E100815001F783E0089580E0089557
:100FD00082E0089581E008950F931F93CF93DF93EC
:100FE000EC018B01D0DF81111DC02097D1F08091E1
:100FF000E80085FD12C08091E800982F9B7F9093B8
:10100000E8008F778093E8000115110559F3F80186
:101010000995813039F784E005C08091F10021976E
:10102000E4CF80E0DF91CF911F910F910895EF926F
:10103000FF920F931F93CF93DF93EC018B017A0103
:10104000A2DF811121C001151105E9F08091E800AE
:1010500085FD12C08091E800982F9E7F9093E80054
:101060008F778093E800E114F10451F3F7010995BB
:10107000813031F784E008C088818093F10001500D
:1010800011092196E0CF80E0DF91CF911F910F9160
:10109000FF90EF900895EF92FF920F931F93CF93DD
:1010A000DF93EC018B017A016EDF811121C0011504
:1010B0001105E9F08091E80085FD12C08091E800FB
:1010C000982F9B7F9093E8008F778093E800E1143E
:1010D000F10451F3F7010995813031F784E008C03C
:1010E0008091F1008883015011092196E0CF80E0C2
:1010F000DF91CF911F910F91FF90EF900895209174
:101100003C0130913D012617370768F061157105E4
:1011100059F42091E800322F3E7F3093E8002F777A
:101120002093E80001C0B90120E061157105D9F1F3
:101130003091E80033FD3FC03091E80032FF06C037
:101140008091E80082FF32C080E00895309135013F
:10115000332399F13091E80030FFE7CF2091F2007E
:1011600030E0FC01281B390BA9014E0F5F1FCF0196
:101170006115710549F04830510530F48191809333
:10118000F10061507109F0CF21E04830510509F0BC
:1011900020E03091E800432F4E7F4093E8003F77F6
:1011A0003093E800C2CF2111C3CFCACF809135015F
:1011B0008111C6CF02C081E0089582E00895209198
:1011C0003C0130913D012617370768F06115710524
:1011D00059F42091E800322F3E7F3093E8002F77BA
:1011E0002093E80001C0B90120E06115710509F400
:1011F0003CC03091E80033FD40C03091E80032FF40
:1012000006C08091E80082FF33C080E008953091ED
:1012100035013323A1F13091E80030FFE6CF209172
:10122000F20030E0FC01281B390BA9014E0F5F1FB3
:10123000CF016115710551F04830510538F48491A2
:101240008093F100615071093196EFCF21E0483071
:10125000510509F020E03091E800432F4E7F409384
:10126000E8003F773093E800C0CF2111C2CFC9CF4B
:10127000809135018111C5CF02C081E0089582E0DF
:101280000895EF92FF920F931F93CF93DF93582F00
:10129000E92FEB0120913C0130913D0126173707E2
:1012A00060F0209759F48091E800982F9E7F9093EA
:1012B000E8008F778093E80001C0E90140E02097C3
:1012C00009F440C08091E80083FD44C08091E800AB
:1012D00082FF06C08091E80082FF37C080E03DC0F9
:1012E000809135018823C1F18091E80080FFE7CF2C
:1012F0000091F20010E0852F9E2F081B190B9C0116
:10130000200F311F209769F02830310550F47C01FF
:101310002FEFE21AF20A36D58093F1002197C70128
:10132000EECF41E02830310509F040E02091E8009F
:10133000322F3E7F3093E8002F772093E800582F1C
:10134000E92FBDCF4111BECFC5CF809135018111AD
:10135000C1CF02C081E001C082E0DF91CF911F9137
:101360000F91FF90EF90089565D067D010923501EE
:1013700010923301109232011092310119BC89B5DB
:10138000826089BD09B400FEFDCF8091D800982FFE
:101390009F779093D80080688093D80080916300F5
:1013A0008E7F809363008091D8008F7D8093D800DA
:1013B0008091E0008E7F8093E0008091E1008E7F3D
:1013C0008093E1008091E20081608093E20080914F
:1013D000E100877F8093E1008091E2008860809344
:1013E000E2000895C1DF81E080933401789408958C
:1013F000BBDFE0EEF0E0808181608083E8EDF0E02B
:1014000080818F77808319BC1092340108950895EC
:10141000CF9380913501882359F0C091E900C770BE
:101420001092E9008091E80083FD48DCC093E90058
:10143000CF9108951092E20008951092E10008956E
:101440001F920F920FB60F9211242F933F934F9339
:101450005F936F937F938F939F93AF93BF93EF931C
:10146000FF938091E10080FF1DC08091E20080FF2A
:1014700019C08091E1008E7F8093E1008091E200AD
:101480008E7F8093E2008091E20080618093E20091
:101490008091D80080628093D80019BC10923501E9
:1014A0000E94E6008091E10084FF2AC08091E20062
:1014B00084FF26C019BC89B5826089BD09B400FECD
:1014C000FDCF8091D8008F7D8093D8008091E1007E
:1014D0008F7E8093E1008091E2008F7E8093E20016
:1014E0008091E20081608093E20080913301882343
:1014F00011F084E001C081E0809335010E94DE009C
:101500008091E10083FF28C08091E20083FF24C026
:101510008091E100877F8093E10082E08093350134
:10152000109233018091E1008E7F8093E1008091E1
:10153000E2008E7F8093E2008091E20080618093E0
:10154000E200E4DC42E060E080E0CDDC8091F0008D
:1015500088608093F0005BDF8091E10082FF0AC029
:101560008091E20082FF06C08091E1008B7F809332
:10157000E1004DDFFF91EF91BF91AF919F918F916E
:101580007F916F915F914F913F912F910F900FBE7F
:101590000F901F9018951F920F920FB60F92112463
:1015A0001F932F933F934F935F936F937F938F93EB
:1015B0009F93AF93BF93CF93DF93EF93FF93C9EEC6
:1015C000D0E01881177024DFE8EEF0E08081877F9B
:1015D00080831883FF91EF91DF91CF91BF91AF91FD
:1015E0009F918F917F916F915F914F913F912F913B
:1015F0001F910F900FBE0F901F90189524DB982F0E
:1016000083FB882780F921E0822790FF826097FF83
:10161000846008951F93CF93DF93D82F162FC9ECC2
:1016200012DB8D23811307C0C15029F08AE18A950E
:10163000F1F700C0F5CF07DBD82381E0D11301C05B
:1016400080E0DF91CF911F910895CF93DF93E82F32
:10165000F0E0E459FE4FD491611102C0C0E00AC02D
:10166000CD2F08C00E944F01882349F08AE18A9556
:10167000F1F700C0E8DA8D238C17A1F381E0DF9148
:10168000CF9108951F93CF93DF93182F47989BB165
:10169000967F9BB95E9A2FEF80E792E021508040C1
:1016A0009040E1F700C000005E98CCE4DDE147988F
:1016B0009BB1967B9BB925E82A95F1F700004A99E2
:1016C00005C08BE291E00197F1F70AC095E89A9581
:1016D000F1F700004A9907C087EC90E00197F1F715
:1016E00000C0000014C0479A87EC90E00197F1F722
:1016F00000C000004A9B02C0479809C0479887EC89
:1017000090E00197F1F700C000004A9909C00E94DB
:101710004F01882329F02197209749F61111C7CF4F
:10172000DF91CF911F910895CF92DF92EF92FF92B8
:101730000F931F93CF93DF937C0161E00E947E02A1
:10174000C0E0D0E0CC24C39401E513EC499913C068
:10175000015011090115110521F00E944F0181115D
:1017600005C00E94920280E090E058C085E38A950F
:10177000F1F70000EBCF80912D018111F2CF5B9842
:1017800089EC499B07C0815029F095E09A95F1F7C3
:101790000000F7CF499B08C0C0922D015B9A8AEBED
:1017A0008A95F1F700C05B98F89461E081E032DF40
:1017B000182F88E0D82E00E0112379F060E081E056
:1017C00029DF182F882339F006954A99006861E0CF
:1017D00081E020DF182FDA9479F77894112359F0FB
:1017E0005B9A802F0E94C502811115C0219695E851
:1017F0009A95F1F70000A895CE15DF0541F0112369
:1018000041F080912D01882309F49ECF04C011116D
:1018100002C0C0E0D0E00E949202CE01DF91CF91E1
:101820001F910F91FF90EF90DF90CF900895CF928E
:10183000DF92EF92FF920F931F93CF93DF931F924C
:10184000CDB7DEB78C01D62E10922D01009709F48A
:101850008DC060E00E947E0260E080ECDBDE8823C9
:1018600091F05B982D2D2270C22ED1FC479A589A88
:1018700085E08A95F1F7000068E088E0CBDE811111
:1018800005C0479858980E94920270C09AE69A95AF
:10189000F1F700C078014A9B03C000E010E044C0AB
:1018A00058984A9905C00E944F018111FACFF5CF8F
:1018B00091E0E916F10441F4C11006C068E088E047
:1018C000A9DE60E088E0A6DE589ACE0101960E946B
:1018D00014038111E2CF998188E028EC2A95F1F771
:1018E00090FD05C05B9A25E02A95F1F70000589815
:1018F00025E32A95F1F70000589A5B989695815058
:1019000061F768E088E086DE882339F281E0E81A32
:10191000F10887EC90E00197F1F700C00000A8956E
:10192000E114F10409F0B7CF0E94920201151105EC
:10193000B9F0D0FE12C05B9A479892E09A95F1F701
:1019400000C0589825E02A95F1F70000499B06C091
:101950000E944F018111FACF09C04798C80108C001
:1019600085E38A95F1F700004798589880E090E069
:101970000F90DF91CF911F910F91FF90EF90DF902B
:10198000CF90089561110FC0E82FF0E0E459FE4FA9
:10199000E491E7FF02C0479AEF77EE2379F18BB12C
:1019A0008E2B8BB90895E62FF0E0E459FE4F81119C
:1019B0000CC0E491E7FF02C04798EF77EE23F1F007
:1019C0008BB1E095E823EBB908959491E82FF0E00E
:1019D000E459FE4FE491E7FF02C0479AEF77EE2308
:1019E00019F08BB18E2B8BB997FF02C047989F7768
:1019F000992321F08BB1909598239BB9089547982E
:101A00008BB1867B8BB98AE18A95F1F700C08EE0B5
:101A100091E00895CF93DF93C82FD8E0C7FF02C0AD
:101A20005B9A01C05B9885E08A95F1F700005898B1
:101A300085E08A95F1F70000499B05C00E944F019F
:101A40008111FACF1CC0C7FF02C05B9806C05B9A29
:101A500004C00E944F01882391F0499BFACF589A05
:101A60005B9885E08A95F1F700004A9B05C00E94CB
:101A70004F018111FACF03C0CC0FD15079F6DF911D
:101A8000CF910895FF920F931F93CF93DF9318E0A8
:101A9000C0E0FF24F3944A9906C00E944F018111CF
:101AA000FACF8FEF2BC0589885E08A95F1F70000A8
:101AB000D9B1D695D170DF2511F000E801C000E062
:101AC0005B9A89B1869581708F25D81305C00E94D5
:101AD0004F018111F6CFE5CF5B9885E08A95F1F74C
:101AE00000004A9B05C00E944F018111FACFD9CF57
:101AF000C695C02B589A115071F68C2FDF91CF915B
:101B00001F910F91FF900895CF93DF93D82FC4E0DA
:101B1000D0FF02C05B9A01C05B9885E08A95F1F71F
:101B200000004798499905C00E944F018111FACFE2
:101B30001AC0D695D0FF02C05B9A01C05B9885E0C1
:101B40008A95F1F70000D695479A499B05C00E94F7
:101B50004F018111FACF07C0C150D1F65B9885E0E3
:101B60008A95F1F70000DF91CF9108951F93CF93ED
:101B7000DF93D4E0C0E0499906C00E944F01811173
:101B8000FACF8FEF23C085E08A95F1F700004A99DC
:101B900002C010E801C010E04798499B05C00E94B0
:101BA0004F018111FACFEDCF85E08A95F1F7000062
:101BB0008C2F8695812B86954A9902C0C0E801C07A
:101BC000C0E0C82B479AD150B1F68C2FDF91CF914E
:101BD0001F910895CF93DF93EC014A9B05C00E94AB
:101BE0004F018111FACF15C088819FEF94B985B953
:101BF00000C000C058984A9905C00E944F01811149
:101C0000FACF07C089819FEF94B985B900C000C0A1
:101C1000589ADF91CF910895CF93DF93EC014A9BBF
:101C200005C00E944F018111FACF11C014B815B838
:101C300083B1888358984A9905C00E944F01811149
:101C4000FACF05C014B815B883B18983589ADF91CB
:101C5000CF9108959FEF94B985B900C000C05898FE
:101C60004A9905C00E944F018111FACF07C0589AC6
:101C70004A9B04C00E944F018111FACF0895CF936F
:101C800058984A9906C00E944F018111FACFCFEFB0
:101C90000BC014B815B8C3B1589A4A9B05C00E942E
:101CA0004F018111FACFF3CF8C2FCF910895479A2E
:101CB0008BB1867F8BB98DE08A95F1F700004A9B46
:101CC000FECF92E09A95F1F700C014B815B883B131
:101CD00047984A99FECF9DE09A95F1F70000089544
:101CE00031E029B122FB222720F923272613F9CF3F
:101CF00014B815B823B1FC01208380E00895479AF9
:101D00009BB1967F9BB99DE09A95F1F700004A9BA5
:101D1000FECF9FEF94B985B982E08A95F1F700C0B4
:101D200047989AE19A95F1F700C04A99FECF14B806
:101D300015B883B1089521E099B192FB992790F9E4
:101D400092279613F9CF9FEF94B985B980E0089553
:101D5000AA1BBB1B51E107C0AA1FBB1FA617B707D1
:101D600010F0A61BB70B881F991F5A95A9F78095ED
:101D70009095BC01CD010895EE0FFF1F0590F491E1
:101D8000E02D0994F999FECF92BD81BDF89A99276B
:081D900080B50895F894FFCF1F
:101D98000304000F08033000300030000000420B3D
:0E1DA800170C940B250BFE0AC20C0055AAFF67
:00000001FF
