:10000000BEC00000D8C00000D6C00000D4C00000B0
:10001000D2C00000D0C00000CEC00000CCC00000A4
:10002000CAC00000C8C000000C94030B0C94C90B9C
:10003000C2C00000C0C00000BEC00000BCC00000C4
:10004000BAC00000B8C00000B6C00000B4C00000D4
:10005000B2C00000B0C00000AEC00000ACC00000E4
:10006000AAC00000A8C00000A6C00000A4C00000F4
:10007000A2C00000A0C000009EC000009CC0000004
:100080009AC0000098C0000096C0000094C0000014
:1000900092C0000090C000008EC000008CC0000024
:1000A0008AC0000088C0000086C000004E037800AF
:1000B00075006D003100350034003100200066000D
:1000C0006C006F0070007000790020006100640017
:1000D000610070007400650072002000280050006C
:1000E00052004F004D004900430052004F005F0096
:1000F0003700340030003600290000003A034E007B
:1001000061007400650020004C00610077007300FE
:100110006F006E00200061006E00640020004F0040
:10012000700065006E00430042004D002000740026
:10013000650061006D00000004030904090220004D
:1001400001010080320904000002FF0000000705E1
:1001500083022000000705040220000012011001A4
:10016000FF000008D0160405080601020301000480
:10017000080C1014181C4044484C5054585C11246E
:100180001FBECFEFDAE0DEBFCDBF11E0A0E0B1E0EF
:10019000EAEDF1E202C005900D92AE31B107D9F758
:1001A00021E0AEE1B1E001C01D92AE33B207E1F74C
:1001B000F2D00C94C71024CF80912E01089581E0D5
:1001C00019D610922E0181E080931E01089510929D
:1001D0001E0110922C0180E00DC60F931F93CF9348
:1001E000DF93CDB7DEB728970FB6F894DEBF0FBE0A
:1001F000CDBF809136018076803289F48E010F5F09
:100200001F4F88E0F80111928A95E9F7B8018091B3
:10021000370163D2682F8F3F69F484E0EBD52896CD
:100220000FB6F894DEBF0FBECDBFDF91CF911F9107
:100230000F9108958091E800877F8093E800809176
:10024000360187FF10C0062E000C770BC8010E94F4
:1002500059098091E800982F9B7F9093E8008F7751
:100260008093E800DCCF8091E80080FFFCCF809194
:10027000E800982F9E7FF1CFE9EEF0E08081877053
:1002800091E090932E0194E09083ABEEB0E09C91CE
:1002900090629C9393E090839C9190629C93808366
:1002A0000895CF93A89580912E01C0E0811105C0DB
:1002B000BCD5C82F882321F0AED58C2FCF910895BF
:1002C000C1E0FBCF8091E9008770E0E0F1E021E040
:1002D00030E09191911103C08093E90008959093CB
:1002E000E900DF0111979C91A90101C0440F9A9583
:1002F000EAF74093EA001092EA009091EB009860D0
:100300009093EB009091EB0095FFE3CF9091EB0081
:1003100090619093EB00DDCFD5DF46E261E883E0AA
:100320009ED646E260E884E09AD682E063D581E01A
:1003300080932C01089524E02093E90070E04CEDB7
:1003400050E078D780912E0181110BC08091E80098
:10035000982F9B7F9093E8008F778093E80081E04F
:10036000089580E0089523E02093E90070E04CEDCB
:1003700050E021D780912E0181110BC08091E800BF
:10038000982F9E7F9093E8008F778093E80081E01C
:10039000089580E0089500D000D000D00F92CDB72E
:1003A000DEB780E890E00FB6F894809361009093F8
:1003B00061000FBE88E19EE00FB6F894A895809387
:1003C00060000FBE909360000E94C60A80911E01DB
:1003D0008823A1F0D4D480E00DD5A6D08E010B5F88
:1003E0001F4F83E0F82EA89580912C01811108C041
:1003F00080911E018111F7CFA895FACFA895E6CF7D
:1004000080913501843071F48093E9008091E80097
:1004100085FF08C064E0CE0101968DDF811108C020
:1004200084E0E8D43EDF8111DFCF10922E01DCCFD3
:10043000F8018F2D11928A95E9F7B801CE01019646
:10044000E5D118162CF48D8363E0C8018CDFEACF68
:10045000882341F384E0CED48091EB0080628093C6
:10046000EB00E0CF80912601811102C00C94A80F0F
:1004700088E8089580912601811102C00C944410EF
:1004800088E8089590912601992379F0E091200160
:10049000F09121019F012F5F3F4F30932101209365
:1004A0002001808390E080E0089590911F019430B6
:1004B00091F49DEF980F933040F08B3031F09DEE2A
:1004C000980F923010F0863119F481E08093260164
:1004D00010921F010AC0E92FF0E0E65EFE4F208176
:1004E000281306C09F5F90931F0181E090E008955C
:1004F0008111EECF81E080931F01F7CFCF93C82FFA
:10050000C1DF892B21F08C2FCF910C94EC0FCF9170
:100510000895CF93C82FB6DF892B21F08C2FCF9170
:100520000C946110CF9108951092270137D40C9448
:10053000EB0D23E0613019F061110DC024E0209330
:10054000E9008093290190932A016093030180912F
:10055000E80085FFFCCF0895809103018130E9F424
:100560002091F3003091F2008091290190912A01AD
:10057000832B922B892B49F08091E800982F9E7F46
:100580009093E8008F778093E8008FE080930301D9
:1005900010922A011092290108958111F6CF8091BD
:1005A000290190912A01009719F06CED70E0CFD5E8
:1005B0008091E80085FDE9CF8091E800982F9B7F2E
:1005C000DFCF8093F1008091290190912A0101975A
:1005D00090932A01809329018091E80085FD11C044
:1005E0008091E800982F9E7F9093E8008F7780930A
:1005F000E8008091E80085FD04C080912E018823E9
:10060000C1F380912E01819508950F931F93CF938D
:10061000DF938C01EB0161E0CE018BDF209731F09D
:10062000F8010995CEDF21978823C1F395DF80E09B
:10063000DF91CF911F910F910895FC018091E80007
:1006400085FD11C08091E800982F9B7F9093E80072
:100650008F778093E8008091E80085FD04C0809149
:100660002E018823C1F380912E0181110EC080914B
:10067000F10080838091290190912A010197909344
:100680002A018093290180E008958FEF0895EF9269
:10069000FF920F931F93CF93DF930F92CDB7DEB7E7
:1006A0007C018B0160E0C80144DF0115110551F4A4
:1006B00053DF80E00F90DF91CF911F910F91FF905A
:1006C000EF900895CE010196B8DF01501109811114
:1006D000EFCF8981F7010995E8CFCF93DF93EB0145
:1006E000823009F485C038F481113DC0188281E060
:1006F000DF91CF910895833009F475C0843009F0FB
:1007000060C08091E800877F8093E8008091E800D6
:1007100080FFFCCF8091E800982F9E7F9093E800A7
:100720008F778093E8002FEF81EE94E02150804096
:100730009040E1F700C000000FB6F894A8958091B2
:100740006000886180936000109260000FBE29D71E
:10075000F8941092810010928900109288000C94F5
:10076000801F80E0C5CF82E291E0909321018093C9
:10077000200183E03FD380912F0190913001892B9C
:10078000C9F088E0888383E08983809127018A8388
:1007900090912801911117C0809128018068809361
:1007A000280180912C01811103C08A8182608A8393
:1007B00088E09ECFB9DE9093300180932F01892B82
:1007C00001F78FEF95CF81608A8381E080932801C4
:1007D000E0912F01F09130010190F081E02D80E057
:1007E00009954ADDD9CF1092280182E003D3B9CF11
:1007F0008091280180FDB5CFE0912F01F09130016B
:100800000190F081E02D80E00995ABCFBF92CF92AF
:10081000DF92EF92FF920F931F93CF93DF9300D05D
:10082000CDB7DEB77C016B01809128018E7F80936C
:100830002801D701BC9012960D911C9183E0DAD269
:10084000E8EFEB0DEA31C8F4F0E0E753FF4E0C940B
:10085000B9108091270184FD36C0F7018181807F26
:10086000803509F456C0E8F4803309F447C038F401
:10087000803149F1803209F43CC08FEF2EC08034C2
:10088000E1F761E0C80155DE0115110541F0CE0127
:1008900001960E941D0F898194DE882399F15CDE08
:1008A0001BC0803809F46AC040F48036B1F180374B
:1008B00021F7B80182E392E01FC08039F1F6B80158
:1008C0008AE392E019C0E0912F01F0913001048099
:1008D000F581E02DC801099580E00F900F90DF9120
:1008E000CF911F910F91FF90EF90DF90CF90BF902D
:1008F0000895B8018DE29EE088DEEECFB80180EA6F
:100900009EE0FACF8A815DDE8111C9CF02501109C4
:10091000BBCFB80180E89FE0EFCF6801E894D7F83B
:10092000C114D104C9F21092260161E0C60101DEB2
:100930002A988FE39CE90197F1F700C000000E941C
:10094000A80FF12CE12C6E2D6170CE0101960E9452
:10095000CF0F87FDC1CF898134DE81110BC017FF16
:1009600003C08981853531F09FEFE91AF90ACE1469
:10097000DF0449F7F1DD0E94A80FAECF0115110584
:1009800009F4AACF1092260161E0C801D2DD85B139
:10099000837C85B9AFE3BCE91197F1F700C0000093
:1009A0000E9444102B9AF12CE12C6801B2E0CB1A82
:1009B000D1089B2D80E04C99FECF4C9BFECFE2E00E
:1009C000EA95F1F726B126FB222720F9880F822B22
:1009D000915089F7EC14FD0409F42B98F2DD88237B
:1009E00021F0BADD0E94441077CFFFEFEF1AFF0A23
:1009F0000E151F05F1F6F5CFD70111966C91809178
:100A0000270184FD43C0862F807F803509F450C0C4
:100A100048F5803309F448C050F48031B9F1803290
:100A200009F02BCFB80185EF9DE031DE55CF803442
:100A300009F023CF60E0C8017CDD0115110509F440
:100A40002ECFCE010196F9DD811129CFCE0102967C
:100A5000F4DD811124CFCE0101960E94D30E025005
:100A60001109EBCF803809F466C048F4803621F1D3
:100A7000803709F002CFB8018EE792E0D6CF8039F7
:100A800009F0FBCEB80189E892E0CFCF6F70E0911A
:100A90002F01F09130010280F381E02DC80109950A
:100AA000F601928381838DC0B8018EE69EE0BDCFB2
:100AB000B80187E59FE0B9CF0115110509F40CCF06
:100AC0001092260160E0C80134DD2A9892E2E92EF6
:100AD00091E0F92E8091200190912101E816F9060C
:100AE000D1F482E291E09093210180932001F12CD6
:100AF000E12CEE2DE170DE2E0E151F0529F0CE0142
:100B000001969BDD882369F06D2D80E00E94251001
:100B10000E94A80FC4CED7018D917D010E94EC0FD9
:100B2000D9CF6D2D89810E94251087FDD5CEBFEFCD
:100B3000EB1AFB0ADECF0115110509F4CDCE109298
:100B4000260160E0C801F5DC85B1837C85B982E2CD
:100B5000E82E81E0F82E8091200190912101E81685
:100B6000F90681F482E291E09093210180932001C3
:100B7000F12CE12CCE01019660DD882349F00E9422
:100B800044108DCED7018D917D010E946110E3CF7D
:100B90006E2D617089810E94841081119DCEBFEFFE
:100BA000EB1AFB0A0E151F0529F7E9CF20912D013D
:100BB00081E090E0211174CF90E080E071CF10923D
:100BC0002D0182E08ACEE0912F01F0913001068064
:100BD000F781E02DD70112966C91129711968C91A6
:100BE0000995882309F478CEE0912F01F091300126
:100BF0000084F185E02D099590E052CFE0912F011E
:100C0000F09130010284F385E02DD70112966C91AA
:100C1000129711968C910995D4CF8091270184FD6C
:100C20002CCE80B38F7080BB8AB1807F8AB981B3AC
:100C30008F7081BB8BB1807F8BB99FB189B18F7071
:100C4000907F892BD9CF8091270184FD16CED701C3
:100C500011968C9190B3906F90BB9AB19F609AB9A6
:100C600091B39F7091BB9BB1907F9BB921B3982F9B
:100C7000907F922B91BB9BB18F70892B8BB9A1CFA9
:100C80008091270184FDF9CDEDDBB6CF809127015E
:100C900084FDF3CDD70111968C9130DC92CF8091F9
:100CA000270184FDEACDE6DBA7CF8091270184FDF3
:100CB000E4CDD70111968C912CDC83CF0F931F9339
:100CC000CF93DF93BC01EA018901F9011082872FDC
:100CD00099278230910509F44DC08330910569F060
:100CE0000197C1F482E190E02CE531E0398328835B
:100CF000DF91CF911F910F910895CB019927623019
:100D000069F18330910558F4009711F1ECEFF0E0B0
:100D1000019701F190E080E030E020E0E7CF039719
:100D2000C9F790E080E00E94BF1090E08095909518
:100D30009927EAE0F1E02AE030E0009791F4809111
:100D4000040190E022E0F801208324E031E0CECFDE
:100D5000E8E3F1E0849190E09F01C8CFECEAF0E095
:100D6000F9CFB9010E94A510C09691838083CB0171
:100D70003297E3CF80E290E02CE331E0B7CF80E21E
:100D80008AB98BB98AE196E09093890080938800B4
:100D9000E1E8F0E080818D60808308958CE784B97C
:100DA00085B917B818B81DB81EB880B38F7080BB4E
:100DB0008AB1807F8AB981B38F7081BB8BB1807F0C
:100DC0008BB9089599B143B136B12CB189B1990F5E
:100DD000907264E0469FA00111244870942B3295D4
:100DE0003470932B269526952071922B86958074CE
:100DF000892B089580932B01833059F028F48823A0
:100E000041F0823021F00895843019F008955D9802
:100E100008955D9A089580912B018350823020F4CB
:100E20008BB190E289278BB90895B19B03C0B19A29
:100E300081E0089580E008951F93CF93DF9300D061
:100E40000F92CDB7DEB786E391E0FC0101962091C9
:100E5000F100208321E08E339207B9F780913601AB
:100E6000909137019A3008F0E4C0E92FF0E0ED519D
:100E7000FF4E0C94B910803879F0823809F0D9C04F
:100E800080913A018093E9008091EB0085FB8827EF
:100E900080F91092E90006C08091310190913201F1
:100EA000911182609091E800977F9093E800809381
:100EB000F1001092F1008091E800982F9E7F9093AE
:100EC000E8008F77C8C0882309F4B5C0823009F0E4
:100ED000B0C0809138018111B9C080913A0187700A
:100EE00009F43DC08093E9002091EB0020FFAEC0E3
:100EF000933031F48091EB0080628093EB00A6C0C8
:100F00009091EB0090619093EB0021E030E001C004
:100F1000220F8A95EAF72093EA001092EA00809166
:100F2000EB008860EACF811184C010913801809174
:100F3000E800877F8093E800BCD08091E80080FFC4
:100F40000AC0812F8F7719F093E090933501806864
:100F50008093E30004C0809135018111EECF809130
:100F6000E80083FF0AC08091EB0080628093EB0071
:100F70008091E800877F8093E8000F900F900F909A
:100F8000DF91CF911F9108958058823008F051C0B1
:100F90009E012D5F3F4FAE014F5F5F4F60913A0161
:100FA000809138019091390189DEBC01892BB9F219
:100FB0008091E800877F8093E8002B8189819A8166
:100FC00021110BC0D2D18091E800982F9B7F909384
:100FD000E8008F778093E800C2CF213011F422D24D
:100FE000F2CF67D1F0CF803821F58091E800877F7C
:100FF0008093E800809133018093F1005CCF8111F0
:1010000018C090913801923008F0A9CF8091E80083
:10101000877F8093E800909333014BD08091330118
:10102000811105C083E08093350176D998CF84E0A3
:10103000FACFD3D894CF80913801813009F08FCF87
:1010400081E0933009F080E0809332011092E90052
:101050008091E800877F8093E8002BD080CF809339
:10106000E900EBEEF0E0808181608083EDEEF0E05E
:1010700010826093EC0040838091EE00881F8827E7
:10108000881F08951092F40080E08093E900109288
:10109000F0001092E8009091ED009D7F9093ED009C
:1010A0009091EB009E7F9093EB008F5F873069F704
:1010B00008958091360187FF17C08091E80082FF74
:1010C0000AC08091E800982F9B7F9093E8008F776B
:1010D0008093E80004C0809135018111EECF08951E
:1010E000809135018823D9F38091E80080FFF8CF03
:1010F0008091E800982F9E7FE8CF95E62091EC0044
:10110000822F817020FF06C08091E80080FF06C01A
:1011100080E008952091E80022FD18C080913501FB
:10112000882389F08091EB0085FD0FC08091E1005C
:1011300082FFE4CF8091E1008B7F8093E1009150AA
:10114000E9F683E0089582E0089581E00895EF9242
:10115000FF920F931F93CF938C017B01CEDFC82F9B
:10116000882389F08C2FCF911F910F91FF90EF90E2
:101170000895F70109958130C9F4C4E0F3CF809157
:10118000F100015011090115110561F38091E8008A
:1011900085FDF5CF8091E800982F9B7F9093E80024
:1011A0008F778093E800E114F10419F7A6DF882314
:1011B00051F3C82FD7CFDF92EF92FF920F931F9377
:1011C000CF93DF93D82FD92E8B017A0196DFC82FCA
:1011D0008823C1F08C2FDF91CF911F910F91FF9049
:1011E000EF90DF900895F70109958130F1F4C4E0A4
:1011F000F1CFED2FFD2D81918093F1000150110968
:10120000DE2FDF2E0115110529F38091E80085FD01
:10121000F0CF8091E800982F9E7F9093E8008F7721
:101220008093E800E114F104F1F667DF882351F3BD
:10123000C82FD0CFDF92EF92FF920F931F93CF93DF
:10124000DF93D82FD92E8B017A0157DFC82F88233F
:10125000C1F08C2FDF91CF911F910F91FF90EF90F4
:10126000DF900895F70109958130F1F4C4E0F1CFE2
:10127000ED2FFD2D8091F100819301501109DE2F9A
:10128000DF2E0115110529F38091E80085FDF0CFCF
:101290008091E800982F9B7F9093E8008F77809350
:1012A000E800E114F104F1F628DF882351F3C82F98
:1012B000D0CF9B0140913C0150913D01461757070B
:1012C000B8F0672B49F44091E800542F5E7F5093AB
:1012D000E8004F774093E80060E02115310551F4B4
:1012E000611108C08091E80082FF37C080E0089556
:1012F0009A01F2CF4091E80043FD35C04091E800EB
:1013000042FDF0CF40913501442359F14091E8006E
:1013100040FFE3CF5091F3004091F20021153105D9
:1013200019F04830510578F061E04830510509F076
:1013300060E04091E800542F5E7F5093E8004F77C3
:101340004093E800CACFFC0181918093F1002150C5
:1013500031094F5F5F4FCF01E1CF8091350181119E
:10136000C1CF82E0089581E008959B0140913C0146
:1013700050913D0146175707B8F0672B49F440914B
:10138000E800542F5E7F5093E8004F774093E800C9
:1013900060E02115310551F4611108C08091E80029
:1013A00082FF38C080E008959A01F2CF4091E800B2
:1013B00043FD36C04091E80042FDF0CF4091350139
:1013C000442361F14091E80040FFE3CF5091F300E6
:1013D0004091F200FC01CF012115310519F0483090
:1013E000510578F061E04830510509F060E0409126
:1013F000E800542F5E7F5093E8004F774093E80059
:10140000C8CF84918093F100215031094F5F5F4F25
:101410003196E1CF809135018111C0CF82E00895EE
:1014200081E00895EF92FF920F931F93CF93DF9384
:10143000EB0120913C0130913D0126173707E0F088
:10144000209749F42091E800322F3E7F3093E80046
:101450002F772093E80030E0209781F431110EC0FF
:101460008091E80082FF3FC080E0DF91CF911F9123
:101470000F91FF90EF900895E901EDCF2091E800E2
:1014800023FD37C02091E80022FDEACF20913501ED
:10149000222369F12091E80020FFDECF2091F300A4
:1014A0000091F200122F209719F00830110578F002
:1014B00031E00830110509F030E02091E800422FBA
:1014C0004E7F4093E8002F772093E800C5CF7C0142
:1014D0002FEFE21AF20A53D68093F10021970F5FA3
:1014E0001F4FC701E0CF809135018111B9CF82E054
:1014F000BCCF81E0BACF7AD081D010923501109262
:10150000330110923201109231018AE482BF80E1EE
:1015100089BD89B5826089BD09B400FEFDCF809187
:10152000D800982F9F779093D80080688093D80038
:101530008091D70081608093D7008091D8008F7D03
:101540008093D8008091E0008B7F8093E0008091B1
:10155000E0008E7F8093E0008091E1008E7F809399
:10156000E1008091E20081608093E2008091E100DF
:10157000877F8093E1008091E20088608093E200A1
:101580008091D80081608093D8000895B4DFE8EDA1
:10159000F0E080818061808381E0809334017894E1
:1015A0000895A9DFE0EEF0E0808181608083E8EDBE
:1015B000F0E080818F77808319BC80818F7E80836B
:1015C0001092340108950895CF93809135018823B6
:1015D00059F0C091E900C7701092E9008091E800CD
:1015E00083FD2ADCC093E900CF910895E8EDF0E097
:1015F00080818E7F80831092E20008951092DA003D
:101600001092E10008951F920F920FB60F921124CD
:101610002F933F934F935F936F937F938F939F93FA
:10162000AF93BF93EF93FF938091DA0080FF12C0D6
:101630008091D80080FF0EC08091DA008E7F809369
:10164000DA008091D90080FF9DC081E08093350150
:101650000E94DF008091E10080FF1DC08091E200C8
:1016600080FF19C08091E1008E7F8093E10080911E
:10167000E2008E7F8093E2008091E200806180939F
:10168000E2008091D80080628093D80019BC85E088
:101690008093350198DF8091E10084FF28C080911C
:1016A000E20084FF24C080E189BD89B5826089BDE4
:1016B00009B400FEFDCF8091D8008F7D8093D800C3
:1016C0008091E1008F7E8093E1008091E2008F7E27
:1016D0008093E2008091E20081608093E20080913B
:1016E0003301811154C083E0809335016CDF809118
:1016F000E10083FF28C08091E20083FF24C0809135
:10170000E100877F8093E10082E0809335011092B1
:1017100033018091E1008E7F8093E1008091E200AF
:101720008E7F8093E2008091E20080618093E200EE
:10173000A9DC42E060E080E092DC8091F00088600B
:101740008093F00040DF8091E10082FF0AC0809129
:10175000E20082FF06C08091E1008B7F8093E10070
:1017600032DFFF91EF91BF91AF919F918F917F9168
:101770006F915F914F913F912F910F900FBE0F90FE
:101780001F901895109235010E94E70063CF84E006
:10179000ABCF1F920F920FB60F9211240F931F938E
:1017A0002F933F934F935F936F937F938F939F9369
:1017B000AF93BF93CF93EF93FF9309EE10E0F8013F
:1017C000C081C77001DFE8EEF0E08081877F808311
:1017D000F801C083FF91EF91CF91BF91AF919F919D
:1017E0008F917F916F915F914F913F912F911F91B9
:1017F0000F910F900FBE0F901F901895E3DA982F5E
:1018000082FB882780F921E0822793FF826094FF82
:10181000846008951F93CF93DF93D82FC62F19ECC0
:10182000D1DA8D238C1302C0115051F4CBDAD823B6
:1018300081E0DC1301C080E0DF91CF911F9108951A
:1018400085E38A95F1F70000EBCFCF93DF93D62F96
:10185000E82FF0E0E259FE4FC4916111DC2FB2DABB
:101860008C238D1721F081E0DF91CF9108950E94A4
:1018700051018823C9F385E38A95F1F70000EFCF82
:101880000F931F93CF93C82F85B1837E85B92E9A6E
:101890002FEF81EE94E0215080409040E1F700C0AE
:1018A00000002E980CE41DE185B1837A85B987ECA0
:1018B00090E00197F1F700C00000369910C087E56D
:1018C00092E00197F1F700C000000E9451018823C7
:1018D00039F10150110941F7C111E6CF21C087EC60
:1018E00090E00197F1F700C00000369905C08FE83D
:1018F00091E00197F1F7E7CF2C9A8FE891E00197FB
:10190000F1F700C00000369B02C02C98DECF2C9867
:101910008FE891E00197F1F700C00000369BD5CF2A
:10192000CF911F910F910895CF92DF92EF92FF9286
:101930000F931F93CF93DF937C0161E00E94990284
:1019400010E000E0CC24C394C1E5D3EC199B4FC058
:10195000D0912D01D11151C02A9889EC199B03C057
:10196000815009F05DC0199B0AC0C0922D012A9ACE
:1019700087E191E00197F1F700C000002A98F89400
:1019800068E088E047DFC82F88E0D82ECC2381F0BC
:1019900060E088E03FDFC82F882339F0D69536997C
:1019A000D06868E088E036DFC82FDA94D110EECF37
:1019B0007894CC2371F02A9A8D2F0E94E102811134
:1019C00013C00F5F1F4F87EC90E00197F1F700C045
:1019D0000000A8950E151F0541F1CC2341F180911F
:1019E0002D01882309F4B0CF0E94AC020AC02197D0
:1019F00021F00E94510181110EC00E94AC0210E042
:101A000000E0C801DF91CF911F910F91FF90EF90FF
:101A1000DF90CF9008958AE68A95F1F700C096CFBF
:101A20009AE09A95F1F700C099CFC111DDCF10E08F
:101A300000E0DACFCF92DF92EF92FF920F931F93E5
:101A4000CF93DF930F92CDB7DEB78C01F62E1092B5
:101A50002D01009769F410E000E0C8010F90DF91BC
:101A6000CF911F910F91FF90EF90DF90CF9008954D
:101A700060E00E94990260E080E5CCDE811103C045
:101A80000E94AC02E8CF2A982F2D2270E22E88E027
:101A9000F1FC88E195B1892B85B98AE08A95F1F747
:101AA00000C064E084E0B6DE811104C085B1877EA9
:101AB00085B9E6CF95ED9A95F1F700006801369962
:101AC0005CC02B98369B55C091E0C916D10441F4F7
:101AD000E11006C064E084E09DDE60E084E09ADE10
:101AE0002B9ACE0101960E941D03811146C0998157
:101AF00088E0EBE2F1E03197F1F700C0000090FDE3
:101B000005C02A9AFAE0FA95F1F700C02B982AE668
:101B10002A95F1F700C02B9A2A989695815049F79B
:101B200064E084E077DE882341F181E0C81AD108BF
:101B3000EFE8F1E03197F1F700C00000A895C1147B
:101B4000D10409F0BCCF0E94AC02F0FE20C02A9A5A
:101B50002C9825E02A95F1F700002B988AE08A95C9
:101B6000F1F700C0199B79CF0E9451018111FACF82
:101B700072CF0E9451018111A5CF0E94AC02FAE6FA
:101B8000FA95F1F700C085B1877E85B964CF2C98AE
:101B900064CF611109C0E82FF0E0E259FE4FE491F3
:101BA00085B1E82BE5B90895E62FF0E0E259FE4F44
:101BB000811105C0E49185B1E095E823F3CF6491EC
:101BC000E82FF0E0E259FE4FE49185B1E82BE5B94A
:101BD00085B1E62FF1CF85B1837A85B985E38A9502
:101BE000F1F700008EE091E00895CF93DF93C82FC6
:101BF000D8E0C7FF1DC02A9A8AE08A95F1F700C095
:101C00002B988AE08A95F1F700C0199913C0C7FF95
:101C100018C02A98199B17C02B9A2A988AE08A958F
:101C2000F1F700C0369914C0CC0FD15039F0E1CF94
:101C30002A98E2CF0E9451018111E7CFDF91CF9125
:101C400008952A9AE7CF0E9451018111E3CFF6CF80
:101C50000E9451018111E6CFF1CFFF920F931F93A4
:101C6000CF93DF93D8E0C0E0FF24F394369B24C0E9
:101C70002B988AE08A95F1F700C001E0199B22C0F9
:101C800000E010E02A9A83B1869581708F250817AD
:101C9000D9F02A988AE08A95F1F700C0369919C0E0
:101CA000C695C12B2B9AD15009F78C2FDF91CF917C
:101CB0001F910F91FF9008950E9451018111D6CF7D
:101CC000CFEFF3CF10E8DECF0E9451018111DBCFBF
:101CD000F7CF0E9451018111E1CFF2CFCF93DF9373
:101CE000C82FD4E0C0FF1CC02A9A8AE08A95F1F779
:101CF00000C02C98199B16C0C1FF1BC02A9A8AE00D
:101D00008A95F1F700C0C695C6952C9A199913C00B
:101D1000D15041F72A988AE08A95F1F700C006C0B1
:101D20002A98E3CF0E9451018111E4CFDF91CF9136
:101D300008952A98E4CF0E9451018111E7CFF6CF90
:101D40001F93CF93DF93D4E0C0E0199B1DC08AE0BE
:101D50008A95F1F700C0369B1DC010E02C981999A8
:101D60001BC08AE08A95F1F700C0C695C12BC695C5
:101D7000369B17C080E0C82B2C9AD15031F78C2F9E
:101D8000DF91CF911F9108950E9451018111DDCF04
:101D9000CFEFF5CF10E8E2CF0E9451018111DFCFE4
:101DA000F7CF80E8E8CFCF93DF93EC01369939C0C5
:101DB000888190B3906F90BB9AB19F609AB991B3AC
:101DC0009F7091BB9BB1907F9BB921B3982F907F5F
:101DD000922B91BB9BB18F70892B8BB982E08A9536
:101DE000F1F700C02B98369B23C0898190B3906F88
:101DF00090BB9AB19F609AB991B39F7091BB9BB110
:101E0000907F9BB921B3982F907F922B91BB9BB170
:101E10008F70892B8BB982E08A95F1F700C02B9ADD
:101E200004C00E9451018111C1CFDF91CF9108956B
:101E30000E9451018111D7CFF8CFCF93DF93EC01EE
:101E4000369929C080B38F7080BB8AB1807F8AB9F0
:101E500081B38F7081BB8BB1807F8BB99FB189B10A
:101E60008F70907F892B88832B98369B1BC080B303
:101E70008F7080BB8AB1807F8AB981B38F7081BB3C
:101E80008BB1807F8BB99FB189B18F70907F892B87
:101E900089832B9A04C00E9451018111D1CFDF9117
:101EA000CF9108950E9451018111DFCFF8CF90B3F7
:101EB000906F90BB9AB19F609AB991B39F7091BB9C
:101EC0009BB1907F9BB921B3982F907F922B91BBB0
:101ED0009BB18F70892B8BB982E08A95F1F700C096
:101EE0002B98369B08C02B9A369B09C00E94510143
:101EF0008111FACF04C00E9451018111F2CF0895DF
:101F0000CF93DF932B98369B16C080B38F7080BB26
:101F10008AB1807F8AB981B38F7081BB8BB1807F9A
:101F20008BB9DFB1C9B12B9A36990DC08C2F8F7048
:101F3000D07F8D2B05C00E9451018111E4CF8FEF1E
:101F4000DF91CF9108950E9451018111EDCFF7CF1C
:101F50002C9A85B1837F85B98AE18A95F1F700C013
:101F6000369BFECF95E09A95F1F7000080B38F7015
:101F700080BB8AB1807F8AB981B38F7081BB8BB1FE
:101F8000807F8BB99FB189B18F70907F892B2C98FE
:101F90003699FECF9AE19A95F1F700C00895FC01B9
:101FA00091E086B186FB882780F989276813F9CFED
:101FB00080B38F7080BB8AB1807F8AB981B38F7004
:101FC00081BB8BB1807F8BB99FB189B18F70907FBE
:101FD000892B808380E008952C9A95B1937F95B9E1
:101FE0009AE19A95F1F700C0369BFECF90B3906FBF
:101FF00090BB9AB19F609AB991B39F7091BB9BB10E
:10200000907F9BB921B3982F907F922B91BB9BB16E
:102010008F70892B8BB985E08A95F1F700002C9899
:1020200095E39A95F1F700003699FECF80B38F7053
:1020300080BB8AB1807F8AB981B38F7081BB8BB13D
:10204000807F8BB98FB189B1089521E096B196FB5D
:10205000992790F992276913F9CF90B3906F90BBAD
:102060009AB19F609AB991B39F7091BB9BB1907FD9
:102070009BB921B3982F907F922B91BB9BB18F700E
:10208000892B8BB980E008952C9A85B1837D85B921
:1020900025E02A95F1F7000098E080E04C99FECF0A
:1020A0004C9BFECF22E02A95F1F726B126FB222792
:1020B00020F9880F822B915089F72C98199BFECF1D
:1020C00008952C9A95B1937D95B92AE12A95F1F757
:1020D00000C01999FECF98E087FF14C02A982D9A66
:1020E000880F00C000C000002D9825E02A95F1F768
:1020F000915091F785E08A95F1F700002C98199B93
:10210000FECF08952A9AEBCF982F24E630E041E0E5
:1021100083B1869581708427681310C088E097FF8B
:1021200012C02A982D9A990F00C000C000002D9867
:1021300025E02A95F1F7815091F708952150310952
:1021400039F78FEF08952A9AEDCFAA1BBB1B51E1F7
:1021500007C0AA1FBB1FA617B70710F0A61BB70B17
:10216000881F991F5A95A9F780959095BC01CD01BC
:102170000895EE0FFF1F0590F491E02D0994F99951
:10218000FECF92BD81BDF89A992780B50895F89445
:10219000FFCF2904FC043D043D043D043D043D04FF
:1021A0003D043D043D043D043D043D043D043D0427
:1021B000D605DF050D062306F405E305FE054006FA
:1021C00046064F0655063B076307190863071908BB
:0A21D0009307C4071908F307FF077F
:1021DA000304000F08033000300030000000400CF8
:0E21EA001A0D940C250CFE0BC90D0055AAFF12
:00000001FF
