:10000000B8C00000D2C00000D0C00000CEC00000C8
:10001000CCC00000CAC00000C8C00000C6C00000BC
:10002000C4C00000C2C000000C94680B0C942E0CDD
:10003000BCC00000BAC00000B8C00000B6C00000DC
:10004000B4C00000B2C00000B0C00000AEC00000EC
:10005000ACC00000AAC00000A8C00000A6C00000FC
:10006000A4C00000A2C00000A0C000009EC000000C
:100070009CC000009AC0000098C0000096C000001C
:1000800094C0000092C0000090C000008EC000002C
:100090008CC000008AC0000088C0000086C000003C
:1000A00084C0000082C0000080C0000042037800CD
:1000B00075006D003100350034003100200066000D
:1000C0006C006F0070007000790020006100640017
:1000D0006100700074006500720020002800540068
:1000E000450045004E005300590032002900000031
:1000F0003A034E0061007400650020004C0061006E
:10010000770073006F006E00200061006E006400D5
:1001100020004F00700065006E00430042004D005B
:1001200020007400650061006D00000004030904F4
:100130000902200001010080320904000002FF00D2
:1001400000000705830220000007050402200000CC
:1001500012011001FF000008D01604050704010277
:100160000301000102031011121340414243505198
:10017000525311241FBECFEFDAE0DEBFCDBF11E036
:10018000A0E0B1E0EAE0F1E202C005900D92AE31EC
:10019000B107D9F721E0AEE1B1E001C01D92AE3365
:1001A000B207E1F7F0D00C9483102ACF80912E0192
:1001B000089581E029D610922E0181E080931E01DE
:1001C000089510921E0110922C0180E01DC60F931D
:1001D0001F93CF93DF93CDB7DEB728970FB6F89470
:1001E000DEBF0FBECDBF809136018076803299F59B
:1001F0008E010F5F1F4F88E0F80111928A95E9F791
:10020000B801809137016DD28F3F19F484E0FCD59D
:1002100022C09091E800977F9093E800909136017A
:1002200097FF0CC0682F772767FD7095C8010E9463
:10023000A2098091E800982F9B7F08C08091E80078
:1002400080FFFCCF8091E800982F9E7F9093E8007C
:100250008F778093E80028960FB6F894DEBF0FBE24
:10026000CDBFDF91CF911F910F910895E9EEF0E09E
:100270008081877091E090932E0194E09083ABEEA3
:10028000B0E09C9190629C9393E090839C919062EB
:100290009C9380830895A89580912E01811105C0BB
:1002A000CED5882321F0C1D502C080E0089581E039
:1002B00008954091E9004770E0E0F1E081E090E0CE
:1002C0001CC02093E90031969C010C9002C0220FC3
:1002D000331F0A94E2F72093EA001092EA0020917B
:1002E000EB0028602093EB002091EB0025FF05C078
:1002F0002091EB0020612093EB00DF012081211190
:10030000E0CF4093E9000895D4DF46E261E883E05E
:10031000CED646E260E884E0CAD682E075D581E0B8
:1003200080932C01089524E02093E90046ED50E0ED
:1003300070E0BAD780912E0181110BC08091E80046
:10034000982F9B7F9093E8008F778093E80081E05F
:10035000089580E0089523E02093E90046ED50E001
:1003600070E054D780912E0181110BC08091E8007C
:10037000982F9E7F9093E8008F778093E80081E02C
:10038000089580E00895CF93DF93CDB7DEB7279728
:100390000FB6F894DEBF0FBECDBF90E080E80FB679
:1003A000F89480936100909361000FBE2EE088E185
:1003B00090E00FB6F894A895809360000FBE20934C
:1003C00060000E943D0B01C0A89580911E0188230A
:1003D000D9F303D580E018D5A0D0A89532C080917C
:1003E0003501843049F58093E9008091E80085FF6C
:1003F00023C064E0CE01019696DF811103C084E042
:1004000003D51AC01D821E821F82BE016B5F7F4F03
:10041000CE01019606D2181634F48D8363E0CE0126
:10042000059699DF09C0882339F084E0EDD48091E6
:10043000EB0080628093EB002EDF811102C01092EE
:100440002E0180912C018111CACF01C0A895809105
:100450001E018823D9F3C1CF80912901811102C0E7
:100460000C94BA0F88E8089580912901811102C087
:100470000C94071088E8089590912901992361F060
:10048000E0912201F09123018193F0932301E09305
:10049000220120E030E029C090912A01943081F4BB
:1004A000982F9350933040F08B3031F0833121F00E
:1004B000843111F0863189F481E0809329010DC0E7
:1004C000E92FF0E0E65EFE4F2081281304C09F5F15
:1004D00090932A0108C0882319F010922A0103C0C2
:1004E00081E080932A0121E030E0C9010895CF9393
:1004F000C82FC2DF892B21F08C2FCF910C94E00FF5
:10050000CF910895CF93C82FB7DF892B21F08C2F7F
:10051000CF910C942210CF910895109221016CD4A8
:100520000C94590E613011F423E003C061110DC029
:1005300024E02093E9009093200180931F016093B1
:1005400003018091E80085FFFCCF089580910301AD
:100550008130A1F43091F3002091F200932F80E0DC
:10056000822B892B31F480911F0190912001892BDE
:10057000E9F08091E800982F9E7F13C0811116C08A
:1005800080911F0190912001009719F066ED70E0B5
:1005900007D68091E80085FD09C08091E800982F7A
:1005A0009B7F9093E8008F778093E8008FE08093A3
:1005B00003011092200110921F0108958093F10011
:1005C00080911F01909120010197909320018093C9
:1005D0001F018091E80085FF05C080912E018111E7
:1005E00013C008958091E800982F9E7F9093E800B3
:1005F0008F778093E8008091E80085FDEECF8091B1
:100600002E018823C1F3E9CF8FEF08950F931F9335
:10061000CF93DF938C01EB0161E0CE0183DF06C055
:10062000F8010995CBDF2197811102C02097C1F70E
:100630008DDF80E0DF91CF911F910F910895209180
:10064000E80025FF05C020912E01222399F021C04A
:100650002091E800322F3B7F3093E8002F772093E2
:10066000E8002091E80025FDEECF20912E01222305
:10067000C1F3E9CF2091F100FC01208380911F019B
:100680009091200101979093200180931F0180E0B9
:1006900008958FEF0895EF92FF920F931F93CF93DA
:1006A000DF931F92CDB7DEB77C018B0160E0C801FC
:1006B00039DF0AC0CE010196C2DF01501109811154
:1006C00006C08981F70109950115110599F73EDFEB
:1006D00080E00F90DF91CF911F910F91FF90EF90ED
:1006E0000895CF93DF93EB01823009F484C038F48E
:1006F000882309F438C0813009F08BC037C08330BB
:1007000009F474C0843009F084C08091E800877FC8
:100710008093E8008091E80080FFFCCF8091E800A2
:10072000982F9E7F9093E8008F778093E8002FEFBB
:1007300081EE94E0215080409040E1F700C000003D
:1007400088E10FB6F89480936000109260000FBEAD
:1007500082D7F8941092810010928900109288003C
:100760000C94801F5AC0188281E058C084E291E046
:10077000909323018093220183E046D380912F013F
:1007800090913001892B29F4C8DE90933001809339
:100790002F0180912F0190913001892BD1F187E0B9
:1007A000888383E08983809121018A839091280145
:1007B000992379F081608A8381E080932801E09118
:1007C0002F01F09130010190F081E02D80E009953A
:1007D0004DDD8091280180688093280180912C0153
:1007E000811119C08A8182608A8315C01092280104
:1007F00082E00AD312C08091280180FD0EC0E091F2
:100800002F01F09130010190F081E02D80E00995F9
:1008100004C08FEF03C088E001C080E0DF91CF917A
:100820000895CF92DF92EF92FF920F931F93CF9391
:10083000DF9300D000D0CDB7DEB77C016B01809193
:1008400028018E7F80932801D7019C9112960D91EB
:100850001C91139783E09C83D7D29C819B3109F430
:10086000F9C180F4973109F4D3C130F49830F1F034
:10087000993009F03BC2E8C0993109F403C208F08D
:1008800009C2D5C19E3109F410C238F49C3109F473
:10089000D1C19D3109F02AC2E6C1903209F414C2D7
:1008A00008F409C2913209F021C217C280912101D6
:1008B00084FD23C0F7018181807F803509F445C024
:1008C00068F4803221F120F4803109F00FC215C0A4
:1008D000803309F1803409F009C221C0803709F45E
:1008E0006EC020F4803609F001C233C0803809F4AC
:1008F0006AC0803909F0FAC1A2C0E0912F01F091DD
:1009000030010480F581E02DC80109957FC1B8014F
:100910008BE99EE097C0B80180E19FE093C061E061
:10092000C80100DE0EC0CE0101960E946B0F8981C6
:1009300045DE811156C18A8141DE811152C10250CA
:1009400011090115110579F74CC1B80181EA9FE041
:1009500079C06801E894D7F8C114D10409F456C1EC
:100960001092290161E0C601DDDD80988FE39CE9EA
:100970000197F1F700C000000E94BA0FE12CF12CA2
:1009800000271078B70161707727CE0103960E9487
:10099000D30F87FD3BC18B8111DE81110CC0011586
:1009A000110519F08B81853531F09FEFE91AF90AAD
:1009B000EC14FD0439F7CADD0E94BA0F27C1B80153
:1009C0008CE292E03FC00115110509F41FC110929D
:1009D000290161E0C801A6DD80B38C7C80BBAFE358
:1009E000BCE91197F1F700C000000E940710819A3E
:1009F000E12CF12C6801B2E0CB1AD10898E080E03C
:100A00007D99FECF7D9BFECFE2E0EA95F1F72FB115
:100A1000880F2170822B915099F7EC14FD0409F492
:100A20008198CCDD882321F091DD0E940710EEC073
:100A3000FFEFEF1AFF0AE016F10601F7F5CFB80154
:100A400084E392E0E3DDE2C08091210184FD24C0D3
:100A5000D70111968C91807F803509F44EC068F4DF
:100A6000803259F120F4803109F040C115C0803343
:100A700041F1803409F03AC128C0803709F481C0BF
:100A800020F4803609F032C13CC0803809F47DC0C2
:100A9000803909F02BC1B6C0E0912F01F0913001EF
:100AA000D70111966C916F700280F381E02DC8011F
:100AB0000995F60192838183B8C0B80183E69EE070
:100AC000A4C0B8018EED9EE0A0C060E0C8012ADDA0
:100AD00010C0CE010196B3DD811183C0CE01029614
:100AE000AEDD81117EC0CE0101960E94450F0250FD
:100AF00011090115110569F774C0B80189E89FE073
:100B000084C00115110509F481C01092290160E02B
:100B1000C80108DD809894E2E92E91E0F92E05C025
:100B2000D7018D917D010E94E00F8091220190916B
:100B30002301E816F906A1F784E291E090932301DE
:100B400080932201E12CF12CCE01039678DD8823DD
:100B500049F0B7016170772780E00E94FC0F0E9486
:100B6000BA0F3FC0B701617077278B810E94FC0FDD
:100B700087FD4CC0BFEFEB1AFB0AE016F10621F728
:100B8000E8CFB80187E792E040C00115110509F4EC
:100B90003DC01092290160E0C801C4DC80B38C7CA8
:100BA00080BB84E2E82E81E0F82E05C0F701819138
:100BB0007F010E9422108091220190912301E8166A
:100BC000F906A1F784E291E090932301809322013A
:100BD000E12CF12CCE01039632DD882321F00E9416
:100BE0000710B4DC13C0B701617077278B810E94B6
:100BF000451081110BC0FFEFEF1AFF0AE016F10656
:100C000049F7EDCFB80182E892E045DD80E06FC0A2
:100C100020912D0181E090E0211102C080E090E060
:100C2000D60112969C938E93119782E060C0109229
:100C30002D01FBCFE0912F01F09130010680F7816B
:100C4000E02DD70112966C91129711968C9109950F
:100C50008823E1F2E0912F01F09130010084F185C9
:100C6000E02D099536C0E0912F01F091300102840A
:100C7000F385E02DD70112966C91129711968C9105
:100C80000995D3CF8091210184FD30C014B815B8E7
:100C900083B11FC08091210184FD28C0D701119626
:100CA0008C919FEF94B985B9C0CF8091210184FDCB
:100CB0001DC0D2DB0EC08091210184FD17C0D70179
:100CC00011968C9114DCB1CF8091210184FD0EC06E
:100CD000CBDBF60181831282A8CF8091210184FDB4
:100CE00005C0D70111968C910DDC9FCF8FEF0F902F
:100CF0000F900F900F90DF91CF911F910F91FF9068
:100D0000EF90DF90CF9008950F931F93CF93DF93D1
:100D1000EA018901D9011C92692F77276230710598
:100D200041F06330710551F06130710509F444C040
:100D300048C0E0E2F0E080E391E047C099278130CD
:100D4000910579F038F08230910591F0039709F020
:100D500038C015C0ECE2F1E0E491F0E08CE291E003
:100D600034C0E0EFF0E0E491F0E080EF90E02DC0DF
:100D7000ECEAF0E0E491F0E08CEA90E026C080E05C
:100D800090E00E947B10809590E0ECE0F1E02AE09A
:100D900030E007C0B9010E946710C0969293829319
:100DA000CB010097B9F7E0910401F0E082E0D801AF
:100DB0008C9384E091E009C0E2E1F0E080E591E00D
:100DC00004C0E0E0F0E080E090E099838883CF0108
:100DD000DF91CF911F910F91089580E48AB98BB96B
:100DE0008AE196E09093890080938800E1E8F0E042
:100DF00080818D608083089510BA11BA14B815B837
:100E000008958FB18377089580932B01823049F044
:100E100018F4882341F00895833029F0843021F4B8
:100E200002C05E9808955E9A089580912B018350C8
:100E3000823020F48BB190E489278BB90895B19B5F
:100E400003C0B19A81E0089580E008950F931F9345
:100E5000CF93DF9300D01F92CDB7DEB7E6E3F1E08A
:100E60008091F100819381E0EE33F807C9F780911A
:100E7000360190913701953009F480C038F49130F3
:100E800091F170F0933009F008C12DC0983009F449
:100E9000C7C0993009F4DAC0963009F0FEC090C09E
:100EA000803821F0823809F0F8C008C08091310103
:100EB00090913201992369F082600BC080913A01D0
:100EC0008093E9008091EB0085FB882780F91092E0
:100ED000E9009091E800977F9093E8008093F100FB
:100EE0001092F100A8C0882319F0823009F0D5C013
:100EF0008F7121F0823009F0C1C00BC080913801A0
:100F0000813009F0BBC0933009F080E0809332015A
:100F10002FC08091380181112BC080913A019091AE
:100F20003B0187709927009709F4A8C08093E900D6
:100F30002091EB0020FF1CC020913701233021F4C9
:100F40008091EB00806212C09091EB0090619093D1
:100F5000EB0021E030E001C0220F8A95EAF72093F0
:100F6000EA001092EA008091EB0088608093EB0029
:100F70001092E9008091E800877F64C081118DC0E4
:100F800000913801109139018091E800877F8093AA
:100F9000E800B7D005C080913501882309F46EC000
:100FA0008091E80080FFF7CFC8018F7799270097DD
:100FB00019F023E02093350180688093E3005EC040
:100FC0008058823008F069C09E012D5F3F4FAE010E
:100FD0004F5F5F4F60913A018091380190913901E4
:100FE00093DEBC01009709F449C08091E800877F37
:100FF0008093E8002B8189819A81211102C002D25D
:1010000005C0213011F462D201C09CD18091E8006A
:10101000982F9B7F9093E8008F778093E8002EC0F5
:101020008038D9F58091E800877F8093E80080912F
:1010300033018093F1008091E800982F9E7F909378
:10104000E8008F778093E8005CD018C0811125C03C
:1010500090913801923090F48091E800877F8093DE
:10106000E800909333014DD080913301882311F033
:1010700084E001C083E08093350146D98091E80087
:1010800083FF0DC08091EB0080628093EB00809124
:10109000E800877F8093E80002C099D8EFCF0F90D7
:1010A0000F900F90DF91CF911F910F910895809332
:1010B000E900EBEEF0E0808181608083EDEEF0E00E
:1010C00010826093EC0040838091EE00881F882797
:1010D000881F08951092F40080E08093E900109238
:1010E000F0001092E8009091ED009D7F9093ED004C
:1010F0009091EB009E7F9093EB008F5F873069F7B4
:1011000008958091360187FD05C08091E80080FF39
:101110000FC013C08091E80082FD05C080913501A9
:101120008111F8CF08958091E800982F9B7F09C026
:10113000809135018111E9CF08958091E800982FC1
:101140009E7F9093E8008F778093E800089585E66E
:101150009091EC0090FF05C09091E80090FF05C0D1
:1011600019C09091E80092FD15C090913501992326
:1011700099F09091EB0095FD11C09091E10092FFE4
:10118000E7CF9091E1009B7F9093E100815001F7C0
:1011900083E0089580E0089582E0089581E0089555
:1011A000FF920F931F93CF93DF93EC018B01CFDF5F
:1011B000F82E8823E9F023C08091E80085FD15C052
:1011C0008091E800982F9B7F9093E8008F77809321
:1011D000E8000115110521F4BADF882349F00BC09E
:1011E000F80109958130C1F708C08091F10021977D
:1011F000209711F704C0F82E02C064E0F62E8F2D60
:10120000DF91CF911F910F91FF900895AF92BF9200
:10121000CF92DF92EF92FF920F931F93CF93DF93C2
:101220001F92CDB7DEB7C82E8B017A0199838FDF6D
:10123000D82E998181112BC0AC2CB92E20C0809161
:10124000E80085FD15C08091E800982F9E7F90935F
:10125000E8008F778093E800E114F10421F477DF50
:10126000882369F010C0F70109958130C1F70DC0DE
:10127000F50181915F018093F10001501109011581
:101280001105E9F604C0D82E02C074E0D72E8D2DCA
:101290000F90DF91CF911F910F91FF90EF90DF9012
:1012A000CF90BF90AF900895AF92BF92CF92DF9250
:1012B000EF92FF920F931F93CF93DF931F92CDB7BF
:1012C000DEB7C82E8B017A01998341DFD82E998130
:1012D00081112BC0AC2CB92E20C08091E80085FD77
:1012E00015C08091E800982F9B7F9093E8008F773E
:1012F0008093E800E114F10421F429DF882369F0E8
:1013000010C0F70109958130C1F70DC08091F1003F
:10131000F50181935F010150110901151105E9F6ED
:1013200004C0D82E02C014E0D12E8D2D0F90DF9175
:10133000CF911F910F91FF90EF90DF90CF90BF90D2
:10134000AF90089540913C0150913D0146175707D9
:1013500068F06115710559F44091E800542F5E7FE3
:101360005093E8004F774093E80001C0BA01FC01B8
:1013700040E039C08091E80083FD40C08091E800E2
:1013800082FF06C08091E80082FF33C080E00895AC
:10139000809135018823A1F18091E80080FF23C06E
:1013A0009091F3008091F200392F20E0A901482BA1
:1013B000CA0106C041914093F10061507109019644
:1013C0006115710519F088309105A0F341E0089787
:1013D00009F040E08091E800982F9E7F9093E8000C
:1013E0008F778093E8006115710521F64111C2CF16
:1013F000C9CF809135018111C5CF02C081E0089528
:1014000082E0089520913C0130913D012617370775
:1014100068F06115710559F42091E800322F3E7F84
:101420003093E8002F772093E80001C0B9019C01B8
:10143000E0E03CC08091E80083FD44C08091E8007A
:1014400082FF06C08091E80082FF37C080E00895E7
:10145000809135018823C1F18091E80080FF26C08A
:101460009091F3008091F200592F40E0FA01E82BAF
:10147000CF0109C0F9012F5F3F4FE491E093F100E4
:101480006150710901966115710519F08830910557
:1014900088F3E1E0089709F0E0E08091E800982FF8
:1014A0009E7F9093E8008F778093E8006115710527
:1014B00009F0C0CFE111BECFC5CF809135018111B8
:1014C000C1CF02C081E0089582E00895CF92DF92FB
:1014D000EF92FF920F931F93CF93DF93EB01209135
:1014E0003C0130913D012617370760F0209759F4F1
:1014F0002091E800322F3E7F3093E8002F77209331
:10150000E80001C0E9019C0180E03EC09091E80044
:1015100093FD48C09091E80092FD3BC09091350149
:10152000992309F441C09091E80090FF2DC090915B
:10153000F3008091F200F92EE12C8701082B69015C
:10154000C01AD10A07C0CA01D6D58093F1002197ED
:101550000F5F1F4FA601400F511F742F652F20975B
:1015600019F00830110578F381E00830110509F011
:1015700080E09091E800292F2E7F2093E8009F774C
:101580009093E800272F362F209709F0BFCF8111C5
:10159000BDCF8091E80082FD09C0809135018111A5
:1015A000F8CF02C081E003C082E001C080E0DF919B
:1015B000CF911F910F91FF90EF90DF90CF90089502
:1015C0007AD081D0109235011092330110923201FD
:1015D000109231018AE482BF80E189BD89B58260C1
:1015E00089BD09B400FEFDCF8091D800982F9F7768
:1015F0009093D80080688093D8008091D700816054
:101600008093D7008091D8008F7D8093D8008091FF
:10161000E0008B7F8093E0008091E0008E7F8093DC
:10162000E0008091E1008E7F8093E1008091E200F4
:1016300081608093E2008091E100877F8093E100E8
:101640008091E20088608093E2008091D800816000
:101650008093D8000895B4DFE0EEF0E080818160EF
:101660008083E8EDF0E080818F77808319BC8081F2
:101670008F7E8083109234010895A2DFE8EDF0E0C0
:1016800080818061808381E0809334017894089523
:101690000895CF9380913501882359F0C091E900D6
:1016A000C7701092E9008091E80083FDCFDBC09302
:1016B000E900CF910895E8EDF0E080818E7F80838E
:1016C0001092E20008951092DA001092E10008955D
:1016D0001F920F920FB60F9211242F933F934F93A7
:1016E0005F936F937F938F939F93AF93BF93EF938A
:1016F000FF938091DA0080FF17C08091D80080FFAF
:1017000013C08091DA008E7F8093DA008091D90037
:1017100080FF06C081E0809335010E94D90004C09B
:10172000109235010E94E1008091E10080FF1DC010
:101730008091E20080FF19C08091E1008E7F80934C
:10174000E1008091E2008E7F8093E2008091E200D0
:1017500080618093E2008091D80080628093D800FD
:1017600019BC85E08093350193DF8091E10084FF0F
:101770002AC08091E20084FF26C080E189BD89B53E
:10178000826089BD09B400FEFDCF8091D8008F7DB5
:101790008093D8008091E1008F7E8093E10080915A
:1017A000E2008F7E8093E2008091E200816080936E
:1017B000E20080913301882311F084E001C083E0CE
:1017C0008093350165DF8091E10083FF28C080911F
:1017D000E20083FF24C08091E100877F8093E100D5
:1017E00082E080933501109233018091E1008E7F79
:1017F0008093E1008091E2008E7F8093E2008091EF
:10180000E20080618093E20065DC42E060E080E01D
:101810004EDC8091F00088608093F00039DF809189
:10182000E10082FF0AC08091E20082FF06C0809141
:10183000E1008B7F8093E1002BDFFF91EF91BF915F
:10184000AF919F918F917F916F915F914F913F9158
:101850002F910F900FBE0F901F9018951F920F920F
:101860000FB60F9211241F932F933F934F935F93C3
:101870006F937F938F939F93AF93BF93CF93DF9398
:10188000EF93FF93C9EED0E01881177002DFE8EE06
:10189000F0E08081877F80831883FF91EF91DF9153
:1018A000CF91BF91AF919F918F917F916F915F91F8
:1018B0004F913F912F911F910F900FBE0F901F904E
:1018C00018959FDA982F8095817091FF826094FF20
:1018D000846008951F93CF93DF93D82F162FC9EC00
:1018E00004C085E38A95F1F700008BDA8D2381131C
:1018F00002C0C150B1F785DAD82381E0D11301C00D
:1019000080E0DF91CF911F910895CF93DF93E82F6F
:10191000F0E0EE59FE4FD491611102C0C0E00AC060
:10192000CD2F08C00E944B01882351F085E38A9592
:10193000F1F7000066DA8D238C17A1F381E001C076
:1019400080E0DF91CF9108951F93CF93DF93182FFD
:1019500090B39C7E90BB869A2FEF81EE94E021504D
:1019600080409040E1F700C000008698CCE4DDE1C3
:1019700090B39C7A90BB87EC90E00197F1F700C0A0
:101980000000789905C087E592E00197F1F70CC057
:1019900087EC90E00197F1F700C00000789907C04C
:1019A0008FE891E00197F1F700C0000014C0849A1D
:1019B0008FE891E00197F1F700C00000789B02C02A
:1019C000849809C084988FE891E00197F1F700C0EE
:1019D0000000789908C00E944B01882321F02197CC
:1019E00039F61111C5CFDF91CF911F910895CF9294
:1019F000DF92EF92FF920F931F93CF93DF937C01BF
:101A000061E00E949202C0E0D0E0CC24C39401E5E2
:101A100013EC10C00150110921F00E944B018111FB
:101A200005C00E94A602C0E0D0E05DC08AE68A95AB
:101A3000F1F700C0799BEECF80912D018111F1CF9C
:101A4000809889EC04C09AE09A95F1F700C0799BE0
:101A500002C08150C1F7799B0AC0C0922D01809AC3
:101A600087E191E00197F1F700C000008098F894B9
:101A700062E082E02FDF182F88E0D82E00E00FC050
:101A800060E082E027DF182F882339F006957899E7
:101A9000006862E082E01EDF182FDA9411F0111165
:101AA000EFCF7894112369F0809A802F0E94DE0294
:101AB000811117C0219687EC90E00197F1F700C0E3
:101AC0000000A895CE15DF0541F0112341F080916B
:101AD0002D01882309F49BCF04C0111102C0C0E07E
:101AE000D0E00E94A602CE01DF91CF911F910F910D
:101AF000FF90EF90DF90CF900895CF92DF92EF921A
:101B0000FF920F931F93CF93DF931F92CDB7DEB752
:101B10008C01D62E10922D01009709F40AC060E0C6
:101B20000E94920260E080E5D5DE811105C00E942E
:101B3000A60200E010E092C0809892E0C92ECD206D
:101B4000D1FE02C092E101C092E080B3892B80BB3C
:101B50002AE02A95F1F700C061E081E0BBDE811147
:101B600004C080B38D7E80BBE2CF85ED8A95F1F70E
:101B700000007801789B03C000E010E044C0819829
:101B800004C00E944B018823B9F3789BFACF60C050
:101B9000C11006C061E081E09DDE60E081E09ADE78
:101BA000819ACE0101960E941F038111E5CF998190
:101BB00088E0EBE2F1E03197F1F700C0000090FD22
:101BC00005C0809AFAE0FA95F1F700C081982AE6FC
:101BD0002A95F1F700C0819A80989695815049F72F
:101BE00061E081E077DE882339F281E0E81AF108CC
:101BF000EFE8F1E03197F1F700C00000A895E1149B
:101C0000F10409F0B7CF0E94A60201151105C1F039
:101C1000D0FE14C0809A8498F5E0FA95F1F70000A0
:101C200081982AE02A95F1F700C005C00E944B0177
:101C3000882309F47ECF7999F9CF10C084980EC01B
:101C40008AE68A95F1F700C080B38D7E80BB06C01E
:101C500091E0E916F10409F0A3CF9ACFC8010F90E3
:101C6000DF91CF911F910F91FF90EF90DF90CF9078
:101C70000895611109C0E82FF0E0EE59FE4FE4919C
:101C800080B3E82BE0BB089570E0FB01EE59FE4FF6
:101C90006491811101C008C0E82FF0E0EE59FE4FB9
:101CA000E49180B3E82BE0BB80B36095682360BB10
:101CB000089580B38C7A80BB85E38A95F1F70000A4
:101CC0008EE091E00895CF93DF93C82FD8E0C7FF4F
:101CD00002C0809A01C080988AE08A95F1F700C01E
:101CE00081988AE08A95F1F700C004C00E944B01F8
:101CF0008823F1F07999FACFC7FF02C0809806C017
:101D0000809A04C00E944B01882391F0799BFACFFE
:101D1000819A80988AE08A95F1F700C004C00E94F9
:101D20004B01882329F07899FACFCC0FD15079F65E
:101D3000DF91CF910895FF920F931F93CF93DF937D
:101D400018E0C0E0FF24F39406C00E944B0181110B
:101D500002C0CFEF2CC0789BF8CF81988AE08A959B
:101D6000F1F700C0DFB1D695D170DF2511F000E8A2
:101D700001C000E0809A04C00E944B01882349F30F
:101D80008FB1869581708F25D817B1F380988AE03E
:101D90008A95F1F700C004C00E944B018823C9F264
:101DA0007899FACFC695C02B819A1150A1F68C2F45
:101DB000DF91CF911F910F91FF900895CF93DF9303
:101DC000D82FC4E0D0FF02C0809A01C080988AE07A
:101DD0008A95F1F700C0849804C00E944B018823C3
:101DE000E1F0799BFACFD695D0FF02C0809A01C06E
:101DF00080988AE08A95F1F700C0D695849A04C04D
:101E00000E944B01882349F07999FACFC150D1F64D
:101E100080988AE08A95F1F700C0DF91CF9108950C
:101E20001F93CF93DF93D4E0C0E006C00E944B0124
:101E3000811102C0CFEF24C0799BF8CF8AE08A9548
:101E4000F1F700C0789902C010E801C010E0849852
:101E500004C00E944B01882369F37999FACF8AE084
:101E60008A95F1F700C08C2F8695812B86957899FD
:101E700002C0C0E801C0C0E0C82B849AD150E1F68E
:101E80008C2FDF91CF911F910895CF93DF93EC01B9
:101E900004C00E944B018823D9F07899FACF888139
:101EA0009FEF94B985B982E08A95F1F700C08198D7
:101EB00004C00E944B01882359F0789BFACF898196
:101EC0009FEF94B985B982E08A95F1F700C0819AB5
:101ED000DF91CF910895CF93DF93EC0104C00E946E
:101EE0004B01882399F07899FACF14B815B883B1CB
:101EF0008883819804C00E944B01882339F0789B25
:101F0000FACF14B815B883B18983819ADF91CF9144
:101F100008959FEF94B985B982E08A95F1F700C0E2
:101F2000819804C00E944B01882351F0789BFACF1E
:101F3000819A04C00E944B01882311F07899FACF4E
:101F40000895CF93819806C00E944B01811102C071
:101F5000CFEF0DC0789BF8CF14B815B8C3B1819AF4
:101F600004C00E944B01882399F37899FACF8C2FF3
:101F7000CF910895849A80B38C7F80BB8AE18A9543
:101F8000F1F700C0789BFECF95E09A95F1F700003D
:101F900014B815B883B184987899FECF9AE19A95D0
:101FA000F1F700C0089531E02FB1217023272613E7
:101FB000FBCF14B815B823B1FC01208380E008954D
:101FC000849A90B39C7F90BB9AE19A95F1F700C0F8
:101FD000789BFECF9FEF94B985B985E08A95F1F79C
:101FE0000000849895E39A95F1F700007899FECF68
:101FF00014B815B883B1089521E09FB1917092276C
:102000009613FBCF9FEF94B985B980E00895849A29
:1020100080B38C7D80BB25E02A95F1F7000098E025
:1020200080E07D99FECF7D9BFECF22E02A95F1F7DF
:102030002FB1880F2170822B915099F78498799B4A
:10204000FECF0895849A90B39C7D90BB2AE12A9597
:10205000F1F700C07999FECF98E087FF02C0809821
:1020600001C0809A859A880F00C000C00000859842
:1020700025E02A95F1F7915081F785E08A95F1F7EF
:1020800000008498799BFECF089524E630E041E07B
:1020900003C021503109C9F09FB1969591709427E2
:1020A0009613F7CF98E087FF02C0809801C0809A0E
:1020B000859A880F00C000C00000859825E02A9509
:1020C000F1F7915081F780E008958FEF0895AA1BF2
:1020D000BB1B51E107C0AA1FBB1FA617B70710F013
:1020E000A61BB70B881F991F5A95A9F78095909545
:1020F000BC01CD010895F999FECF92BD81BDF89A3A
:0A210000992780B50895F894FFCFE9
:10210A000304000F08033000300030000000A40C64
:0E211A007D0DF70C850C610C390E0055AAFFE7
:00000001FF
