:10000000DCC00000F6C00000F4C00000F2C0000038
:10001000F0C00000EEC00000ECC00000EAC000002C
:10002000E8C00000E6C000000C940D0B0C94D30B4C
:10003000E0C00000DEC00000DCC00000DAC000004C
:10004000D8C00000D6C00000D4C00000D2C000005C
:10005000D0C00000CEC00000CCC00000CAC000006C
:10006000C8C00000C6C00000C4C00000C2C000007C
:10007000C0C00000BEC00000BCC00000BAC000008C
:10008000B8C00000B6C00000B4C00000B2C000009C
:10009000B0C00000AEC00000ACC00000AAC00000AC
:1000A000A8C00000A6C00000A4C000007B04460554
:1000B0008E068E068E068E068E068E068E068E06A0
:1000C0008E068E068E068E068E061F062E06590694
:1000D0006106410631064A066C0672067B068506F5
:1000E000520773073F0873073F08B507D2073F0859
:1000F000020818084203780075006D0031003500D1
:1001000034003100200066006C006F007000700049
:1001100079002000610064006100700074006500D7
:100120007200200028005400450045004E00530096
:1001300059003200290000003A034E0061007400AB
:10014000650020004C006100770073006F006E00B6
:10015000200061006E00640020004F007000650008
:100160006E00430042004D002000740065006100F5
:100170006D00000004030904090220000101008051
:10018000320904000002FF0000000705830220007E
:10019000000705040220000012011001FF00000802
:1001A000D016040507040102030100010203101127
:1001B0001213404142435051525311241FBECFEFFE
:1001C000DAE0DEBFCDBF11E0A0E0B1E0E6E5F0E2AD
:1001D00002C005900D92AE31B107D9F721E0AEE132
:1001E000B1E001C01D92AE33B207E1F7FAD00C9432
:1001F000291006CF80912E01089581E012D6109229
:100200002E0181E080931E01089510921E0110922C
:100210002C0180E006C60F931F93CF93DF93CDB7D9
:10022000DEB728970FB6F894DEBF0FBECDBF809122
:1002300036018076803299F58E010F5F1F4F88E07E
:10024000F80111928A95E9F7B801809137018CD2B3
:100250008F3F19F484E0E5D522C09091E800977FA4
:100260009093E8009091360197FF0CC0682F772794
:1002700067FD7095C8010E9454098091E800982F8D
:100280009B7F08C08091E80080FFFCCF8091E80050
:10029000982F9E7F9093E8008F778093E8002896B0
:1002A0000FB6F894DEBF0FBECDBFDF91CF911F9187
:1002B0000F910895E9EEF0E08081877091E09093CE
:1002C0002E0194E09083ABEEB0E09C9190629C9301
:1002D00093E090839C9190629C9380830895CF9348
:1002E000DF931F92CDB7DEB7A89580912E018111C3
:1002F00007C0B2D5882331F08983A4D5898103C092
:1003000080E001C081E00F90DF91CF91089540918E
:10031000E9004770E0E0F1E081E090E0DF0120815A
:100320002223E9F02093E90031969C010C9002C051
:10033000220F331F0A94E2F72093EA001092EA009A
:100340002091EB0028602093EB002091EB0025FF2B
:10035000E5CF2091EB0020612093EB00DFCF4093AD
:10036000E9000895D4DF46E261E883E091D646E2F1
:1003700060E884E08DD682E054D581E080932C0142
:10038000089524E02093E90070E04AEF50E058D748
:1003900080912E0181110BC08091E800982F9B7FE6
:1003A0009093E8008F778093E80081E0089580E0E3
:1003B000089523E02093E90070E04AEF50E00CD765
:1003C00080912E0181110BC08091E800982F9E7FB3
:1003D0009093E8008F778093E80081E0089580E0B3
:1003E0000895CF93DF93CDB7DEB727970FB6F89474
:1003F000DEBF0FBECDBF90E080E80FB6F8948093CB
:100400006100909361000FBE2EE088E190E00FB68E
:10041000F894A895809360000FBE209360000E941E
:10042000D00A80911E01811102C0A895FACFE2D4B2
:1004300080E0F7D4A1D0A89580912C01882399F170
:1004400080913501843049F58093E9008091E8007E
:1004500085FF23C064E0CE01019693DF811103C0C4
:1004600084E0DFD41AC01D821E821F82BE016B5F32
:100470007F4FCE01019618D2181634F48D8363E0B5
:10048000CE01059696DF09C0882339F084E0C9D4EF
:100490008091EB0080628093EB0021DF8111CCCF53
:1004A00010922E01C9CF80911E018111C4CFA89551
:1004B000FACF80912601811102C00C94590F88E86F
:1004C000089580912601811102C00C94A60F88E83E
:1004D000089590912601992379F0E0912001F091FF
:1004E00021019F012F5F3F4F309321012093200175
:1004F000808380E090E0089590911F01943081F412
:100500009DEF980F933040F08B3031F09DEE980FB7
:10051000923010F0863189F481E0809326010DC07D
:10052000E92FF0E0E65EFE4F2081281304C09F5FB4
:1005300090931F0108C0882319F010921F0103C077
:1005400081E080931F0181E090E00895CF93C82F50
:10055000C0DF892B21F08C2FCF910C947F0FCF918E
:100560000895CF93C82FB5DF892B21F08C2FCF9121
:100570000C94C10FCF910895109227014AD40C9486
:10058000FC0D613011F423E003C061110DC024E0C3
:100590002093E90090932A0180932901609303013D
:1005A0008091E80085FFFCCF0895809103018130A0
:1005B00099F42091F3008091F20090E0922B892B26
:1005C00031F48091290190912A01892BE9F08091E1
:1005D000E800982F9E7F13C0811116C080912901D9
:1005E00090912A01009719F06AEF70E0CAD58091C6
:1005F000E80085FD09C08091E800982F9B7F9093CB
:10060000E8008F778093E8008FE0809303011092D9
:100610002A011092290108958093F1008091290107
:1006200090912A01019790932A018093290180914A
:10063000E80085FF04C080912E0181950895809186
:10064000E800982F9E7F9093E8008F778093E800D2
:100650008091E80085FDEFCF80912E018823C1F3C2
:10066000EACFCF92DF92FF920F931F93CF93DF9346
:100670001F92CDB7DEB78C01F62E61E08F2D972F3C
:1006800079837FDFCF2C7981D72EC114D10441F03B
:10069000F8010995C1DFF1E0CF1AD1088823A9F349
:1006A00084DF80E00F90DF91CF911F910F91FF9039
:1006B000DF90CF9008952091E80025FF13C020918E
:1006C0002E01211121C02091F100FC012083809195
:1006D000290190912A01019790932A018093290181
:1006E00080E008952091E800322F3B7F3093E800AE
:1006F0002F772093E8002091E80025FDE0CF20919E
:100700002E012223C1F3DBCF8FEF0895DF92EF920A
:10071000FF920F931F93CF93DF9300D0CDB7DEB737
:100720007C01D62E60E08D2D972F7A832ADF0D2D48
:100730007A81172F0115110559F0CE010196BBDF03
:1007400001501109811104C08981F7010995F2CF87
:100750002CDF80E00F900F90DF91CF911F910F91D0
:10076000FF90EF90DF900895CF93DF93EB018230FD
:1007700009F484C038F4882309F438C0813009F4BE
:1007800038C08AC0833009F474C0843009F084C052
:100790008091E800877F8093E8008091E80080FFE7
:1007A000FCCF8091E800982F9E7F9093E8008F7790
:1007B0008093E8002FEF81EE94E02150804090403C
:1007C000E1F700C0000088E10FB6F8948093600064
:1007D000109260000FBEEFD6F89410928100109234
:1007E0008900109288000C94801F5AC0188281E002
:1007F00058C082E291E0909321018093200183E030
:1008000010D380912F0190913001892B29F4B4DE0F
:100810009093300180932F0180912F0190913001AE
:10082000892BD1F187E0888383E089838091270138
:100830008A8390912801992379F081608A8381E0ED
:1008400080932801E0912F01F09130010190F08117
:10085000E02D80E009952EDD80912801806880934D
:10086000280180912C01811119C08A8182608A83BC
:1008700015C01092280182E0D4D212C080912801C4
:1008800080FD0EC0E0912F01F09130010190F081C8
:10089000E02D80E0099504C08FEF03C088E001C01F
:1008A00080E0DF91CF910895BF92CF92DF92EF92D7
:1008B000FF920F931F93CF93DF9300D0CDB7DEB796
:1008C0007C016B01809128018E7F80932801D701E4
:1008D000BC9012960D911C91139783E0A2D24B2DE0
:1008E00050E0FA013897EA31F10508F017C2EA5AE8
:1008F000FF4F0C941B108091270184FD28C0F70145
:100900008181807F803509F446C080F4803249F1CE
:1009100020F4803109F002C21AC0803331F18034F2
:1009200009F0FCC161E0C8012CDE31C0803709F458
:100930006BC018F4803699F1F1C1803809F468C0B1
:10094000803909F0EBC1B80181E692E09DC0E091E9
:100950002F01F09130010480F581E02DC801099547
:100960006CC1B8018EE39EE08FC0B80182EB9EE0BF
:100970008BC0CE0101960E940C0F89814DDE811142
:100980004BC18A8149DE811147C10250110901150D
:10099000110579F741C1B80181E49FE075C0680194
:1009A000E894D7F8C114D10409F447C11092260184
:1009B00061E0C601E6DD80988FE39CE90197F1F7DD
:1009C00000C000000E94590FE12CF12C0027107884
:1009D0006E2D6170CE0101960E94720F87FD2DC1B0
:1009E00089811ADE81110CC00115110519F0898168
:1009F000853531F09FEFE91AF90AEC14FD0441F74F
:100A0000D4DD0E94590F19C1B80189E592E03CC0BC
:100A10000115110509F411C11092260161E0C80108
:100A2000B0DD80B38C7C80BBAFE3BCE91197F1F7FC
:100A300000C000000E94A60F819AE12CF12C6801F1
:100A4000B2E0CB1AD10898E080E07D99FECF7D9B83
:100A5000FECFE2E0EA95F1F72FB1880F2170822BEB
:100A6000915099F7EC14FD0409F48198D5DD8823A1
:100A700021F09BDD0E94A60FE0C0FFEFEF1AFF0AF6
:100A8000E016F10601F7F5CFECDDD7C08091270124
:100A9000D70111966C9184FD27C0862F807F803509
:100AA00009F449C080F4803251F120F4803109F01A
:100AB00035C11AC0803339F1803409F02FC160E0AC
:100AC000C8015FDD34C0803709F477C018F4803680
:100AD000B1F124C1803809F474C0803909F01EC115
:100AE000B80181EB92E0A8C0E0912F01F0913001B4
:100AF0006F700280F381E02DC801099502C1B80131
:100B000086E09EE099C0B80180E89EE095C0CE01E5
:100B10000196D1DD811180C0CE010296CCDD81111C
:100B20007BC0CE0101960E94E60E0250110901150C
:100B3000110569F771C0B8018AE29FE07DC0011517
:100B4000110509F47AC01092260160E0C80119DD90
:100B5000809892E2E92E91E0F92E80912001909107
:100B60002101E816F90631F0D7018D917D010E942F
:100B70007F0FF3CF82E291E09093210180932001D7
:100B8000E12CF12CCE01019696DD882341F06E2DEB
:100B9000617080E00E949B0F0E94590F3DC06E2D36
:100BA000617089810E949B0F87FD47C0BFEFEB1AE0
:100BB000FB0AE016F10631F7EACFB80186EA92E0C7
:100BC0003BC001151105C9F11092260160E0C80172
:100BD000D8DC80B38C7C80BB82E2E82E81E0F82EEA
:100BE0008091200190912101E816F90631F0F7017A
:100BF00081917F010E94C10FF3CF82E291E0909337
:100C0000210180932001E12CF12CCE01019653DDCE
:100C1000882321F00E94A60FC8DC0FC06E2D6170E2
:100C200089810E94E40F811108C0FFEFEF1AFF0ACB
:100C3000E016F10651F7EECF69DD80E070C020913B
:100C40002D0181E090E0211102C080E090E0D6010A
:100C500012969C938E93119782E061C010922D01A1
:100C6000FBCFE0912F01F09130010680F781E02D5C
:100C7000D70112966C91129711968C910995882341
:100C8000E1F2E0912F01F09130010084F185E02D37
:100C9000099536C0E0912F01F09130010284F3856F
:100CA000E02DD70112966C91129711968C910995AF
:100CB000D3CF8091270184FD31C014B815B883B11A
:100CC0001FC08091270184FD29C0D70111968C9106
:100CD0009FEF94B985B9C0CF8091270184FD1EC0D4
:100CE000E8DB0EC08091270184FD18C0D701119662
:100CF0008C912CDCB1CF8091270184FD0FC0E1DB0A
:100D000090E0F60192838183A7CF8091270184FD33
:100D100005C0D70111968C9124DC9ECF8FEF0F90E8
:100D20000F90DF91CF911F910F91FF90EF90DF9087
:100D3000CF90BF9008950F931F93CF93DF93EA0155
:100D40008901F9011082692F77276230710561F0FE
:100D50006330710571F06130710509F040C082E1C6
:100D600090E028E931E03FC080E290E028E731E000
:100D70003AC0992781309105B1F090F08230910509
:100D8000A9F0039761F580E090E00E94211090E0C7
:100D9000809590959927ECE0F1E02AE030E00CC0D6
:100DA000E4E7F1E005C0E8E3F1E002C0E4EFF0E0E1
:100DB000849190E09F0117C0009741F0B9010E9413
:100DC0000710C09692938293CB01F6CF80910401D5
:100DD00090E022E0F801208324E031E004C080E0CC
:100DE00090E020E030E039832883DF91CF911F919C
:100DF0000F91089580E48AB98BB98AE196E09093C7
:100E0000890080938800E1E8F0E080818D60808334
:100E1000089510BA11BA14B815B808958FB1837730
:100E2000089580932B01823049F018F4882341F013
:100E30000895833029F0843019F008955E9808955C
:100E40005E9A089580912B018350823020F48BB1FB
:100E500090E489278BB90895B19B03C0B19A81E0D2
:100E6000089580E008951F93CF93DF9300D01F92E1
:100E7000CDB7DEB7E6E3F1E08091F100819381E048
:100E8000EE33F807C9F72091360130913701832FEF
:100E900090E08A30910508F0F2C0FC01E059FF4F64
:100EA0000C941B10203879F0223809F0E8C08091AA
:100EB0003A018093E9008091EB0085FB882780F957
:100EC0001092E90006C08091310190913201911198
:100ED00082609091E800977F9093E8008093F10002
:100EE0001092F1009AC0822F8D7F09F0C8C0222392
:100EF00019F0223061F0B4C080913801813009F0DE
:100F0000AFC0333009F080E08093320128C0809177
:100F10003801811124C020913A01277009F4A0C042
:100F20002093E9008091EB0080FF19C08091EB00D5
:100F3000333011F4806211C080618093EB0081E056
:100F400090E0022E01C0880F0A94EAF78093EA002D
:100F50001092EA008091EB0088608093EB00109281
:100F6000E9008091E800877F5FC0211188C010915F
:100F700038018091E800877F8093E800B3D08091AA
:100F8000E80080FD05C0809135018111F8CF68C06F
:100F9000812F8F7719F093E09093350180688093CB
:100FA000E3005EC02058223008F069C09E012D5F2A
:100FB0003F4FAE014F5F5F4F60913A018091380122
:100FC00090913901B8DEBC01009709F449C08091C5
:100FD000E800877F8093E8002B8189819A81211125
:100FE00002C0C2D105C0213011F420D201C05CD1B1
:100FF0008091E800982F9B7F9093E8008F778093F3
:10100000E8002EC02038D9F58091E800877F8093D2
:10101000E800809133018093F1008091E800982FDF
:101020009E7F9093E8008F778093E8005BD018C094
:10103000211125C090913801923090F48091E80000
:10104000877F8093E800909333014CD080913301E7
:10105000882311F084E001C083E08093350182D9B8
:101060008091E80083FF0DC08091EB008062809347
:10107000EB008091E800877F8093E80002C0CBD826
:10108000EFCF0F900F900F90DF91CF911F910895A8
:101090008093E900EBEEF0E0808181608083EDEEEB
:1010A000F0E010826093EC0040838091EE00881F96
:1010B0008827881F08951092F40080E08093E9004B
:1010C0001092F0001092E8009091ED009D7F9093B7
:1010D000ED009091EB009E7F9093EB008F5F873047
:1010E00069F708958091360187FD05C08091E80079
:1010F00080FF0FC013C08091E80082FD05C0809181
:1011000035018111F8CF08958091E800982F9B7FD9
:1011100009C0809135018111E9CF08958091E800DF
:10112000982F9E7F9093E8008F778093E800089532
:1011300085E69091EC0090FF05C09091E80090FF4B
:1011400005C019C09091E80092FD15C0909135013D
:10115000992399F09091EB0095FD11C09091E100D9
:1011600092FFE7CF9091E1009B7F9093E100815047
:1011700001F783E0089580E0089582E0089581E01A
:1011800008950F931F93CF93DF93EC018B01D0DF72
:1011900081111DC02097D1F08091E80085FD12C01B
:1011A0008091E800982F9B7F9093E8008F77809341
:1011B000E8000115110559F3F8010995813039F757
:1011C00084E005C08091F1002197E4CF80E0DF91B9
:1011D000CF911F910F910895EF92FF920F931F935C
:1011E000CF93DF93EC018B017A01A2DF811121C043
:1011F00001151105E9F08091E80085FD12C080918C
:10120000E800982F9E7F9093E8008F778093E80006
:10121000E114F10451F3F7010995813031F784E0CD
:1012200008C088818093F100015011092196E0CF18
:1012300080E0DF91CF911F910F91FF90EF90089583
:10124000EF92FF920F931F93CF93DF93EC018B01EB
:101250007A016EDF811121C001151105E9F080913D
:10126000E80085FD12C08091E800982F9B7F909345
:10127000E8008F778093E800E114F10451F3F7015F
:101280000995813031F784E008C08091F1008883AE
:10129000015011092196E0CF80E0DF91CF911F919D
:1012A0000F91FF90EF90089520913C0130913D0106
:1012B0002617370768F06115710559F42091E80089
:1012C000322F3E7F3093E8002F772093E80001C053
:1012D000B90140E061157105D9F12091E80023FDC5
:1012E0003FC02091E80022FF06C08091E80082FF05
:1012F00032C080E0089520913501222399F1209198
:10130000E80020FFE7CF4091F3002091F20030E0A9
:10131000342BFC01CF016115710559F028303105DE
:1013200040F481918093F100615071092F5F3F4F2C
:10133000F1CF41E02830310509F040E02091E8008C
:10134000322F3E7F3093E8002F772093E800C2CF02
:101350004111C3CFCACF809135018111C6CF02C0E0
:1013600081E0089582E0089520913C0130913D0193
:101370002617370768F06115710559F42091E800C8
:10138000322F3E7F3093E8002F772093E80001C092
:10139000B90140E06115710509F43CC02091E800F5
:1013A00023FD40C02091E80022FF06C08091E800A4
:1013B00082FF33C080E00895209135012223A1F1FE
:1013C0002091E80020FFE6CF4091F3002091F20049
:1013D00030E0342BFC01CF016115710561F028303C
:1013E000310548F484918093F100615071092F5FB9
:1013F0003F4F3196F0CF41E02830310509F040E011
:101400002091E800322F3E7F3093E8002F77209321
:10141000E800C0CF4111C2CFC9CF80913501811101
:10142000C5CF02C081E0089582E00895EF92FF9257
:101430000F931F93CF93DF938B0120913C01309149
:101440003D012617370768F06115710559F42091A1
:10145000E800322F3E7F3093E8002F772093E8009A
:1014600001C0890120E001151105E9F13091E80082
:1014700033FD41C03091E80032FF06C08091E800A2
:1014800082FF34C080E03AC0309135013323A9F1A6
:101490003091E80030FFE7CF2091F300C091F200D7
:1014A000D0E0D22B7C01EC1AFD0AC7018C0F9D1FE6
:1014B0000115110551F0C830D10538F4C2D580931B
:1014C000F100015011092196F0CF21E0289709F091
:1014D00020E03091E800432F4E7F4093E8003F77B3
:1014E0003093E800C0CF2111C1CFC8CF8091350122
:1014F0008111C4CF02C081E001C082E0DF91CF91B1
:101500001F910F91FF90EF9008957AD081D01092A3
:1015100035011092330110923201109231018AE4A8
:1015200082BF80E189BD89B5826089BD09B400FEB2
:10153000FDCF8091D800982F9F779093D800806836
:101540008093D8008091D70081608093D7008091EC
:10155000D8008F7D8093D8008091E0008B7F8093AE
:10156000E0008091E0008E7F8093E0008091E100B8
:101570008E7F8093E1008091E20081608093E200A1
:101580008091E100877F8093E1008091E200886094
:101590008093E2008091D80081608093D800089504
:1015A000B4DFE8EDF0E080818061808381E08093AA
:1015B000340178940895A9DFE0EEF0E08081816045
:1015C0008083E8EDF0E080818F77808319BC808193
:1015D0008F7E80831092340108950895CF93809177
:1015E0003501882359F0C091E900C7701092E900D5
:1015F0008091E80083FD37DCC093E900CF91089526
:10160000E8EDF0E080818E7F80831092E200089503
:101610001092DA001092E10008951F920F920FB617
:101620000F9211242F933F934F935F936F937F9368
:101630008F939F93AF93BF93EF93FF938091DA00C3
:1016400080FF17C08091D80080FF13C08091DA001E
:101650008E7F8093DA008091D90080FF06C081E000
:10166000809335010E94FD0004C0109235010E9454
:1016700005018091E10080FF1DC08091E20080FFA4
:1016800019C08091E1008E7F8093E1008091E2009B
:101690008E7F8093E2008091E20080618093E2007F
:1016A0008091D80080628093D80019BC85E0809337
:1016B000350193DF8091E10084FF2AC08091E20030
:1016C00084FF26C080E189BD89B5826089BD09B4E7
:1016D00000FEFDCF8091D8008F7D8093D80080914F
:1016E000E1008F7E8093E1008091E2008F7E809305
:1016F000E2008091E20081608093E20080913301FA
:10170000882311F084E001C083E08093350165DF18
:101710008091E10083FF28C08091E20083FF24C014
:101720008091E100877F8093E10082E08093350122
:10173000109233018091E1008E7F8093E1008091CF
:10174000E2008E7F8093E2008091E20080618093CE
:10175000E200B1DC42E060E080E09ADC8091F000E1
:1017600088608093F00039DF8091E10082FF0AC039
:101770008091E20082FF06C08091E1008B7F809320
:10178000E1002BDFFF91EF91BF91AF919F918F917E
:101790007F916F915F914F913F912F910F900FBE6D
:1017A0000F901F9018951F920F920FB60F92112451
:1017B0001F932F933F934F935F936F937F938F93D9
:1017C0009F93AF93BF93CF93DF93EF93FF93C9EEB4
:1017D000D0E01881177002DFE8EEF0E08081877FAB
:1017E00080831883FF91EF91DF91CF91BF91AF91EB
:1017F0009F918F917F916F915F914F913F912F9129
:101800001F910F900FBE0F901F90189507DB982F18
:101810008095817091FF826094FF846008951F938A
:10182000CF93DF93D82F162FC9ECF8DA8D238113CD
:1018300007C0C15029F085E38A95F1F70000F5CF84
:10184000EDDAD82381E0D11301C080E0DF91CF91A0
:101850001F910895CF93DF93E82FF0E0E655FE4FF8
:10186000D491611102C0C0E00AC0CD2F08C00E940F
:101870006F01882349F085E38A95F1F70000CEDAFD
:101880008D238C17A1F381E0DF91CF9108951F93F1
:10189000CF93DF93182F90B39C7E90BB869A2FEF47
:1018A00081EE94E0215080409040E1F700C00000BC
:1018B0008698CCE4DDE190B39C7A90BB87EC90E015
:1018C0000197F1F700C00000789905C087E592E024
:1018D0000197F1F70CC087EC90E00197F1F700C099
:1018E0000000789907C08FE891E00197F1F700C0F8
:1018F000000014C0849A8FE891E00197F1F700C0CE
:101900000000789B02C0849809C084988FE891E019
:101910000197F1F700C00000789909C00E946F019B
:10192000882329F02197209731F61111C4CFDF9138
:10193000CF911F910895CF92DF92EF92FF920F9374
:101940001F93CF93DF937C0161E00E94C102C0E04E
:10195000D0E0CC24C39401E513EC799913C0015075
:1019600011090115110521F00E946F01811105C0B7
:101970000E94D50280E090E05CC08AE68A95F1F78B
:1019800000C0EBCF80912D018111F2CF809889ECBE
:10199000799B07C0815029F09AE09A95F1F700C031
:1019A000F7CF799B0AC0C0922D01809A87E191E020
:1019B0000197F1F700C000008098F89462E082E09F
:1019C0002EDF182F88E0D82E00E0112379F060E098
:1019D00082E025DF182F882339F006957899006872
:1019E00062E082E01CDF182FDA9479F778941123F3
:1019F00069F0809A802F0E940C03811117C02196F4
:101A000087EC90E00197F1F700C00000A895CE1593
:101A1000DF0541F0112341F080912D01882309F465
:101A20009ACF04C0111102C0C0E0D0E00E94D502DC
:101A3000CE01DF91CF911F910F91FF90EF90DF903A
:101A4000CF900895CF92DF92EF92FF920F931F9362
:101A5000CF93DF931F92CDB7DEB78C01D62E1092B5
:101A60002D01009709F498C060E00E94C10260E077
:101A700080E5D5DE8823C1F080982D2D2270C22EFE
:101A8000D1FE02C092E101C092E080B3892B80BBFD
:101A90008AE08A95F1F700C061E081E0C0DE811143
:101AA00006C080B38D7E80BB0E94D50275C095EDC7
:101AB0009A95F1F700007801789B03C000E010E0F0
:101AC00048C08198789905C00E946F018111FACFB2
:101AD000F5CF91E0E916F10441F4C11006C061E0D0
:101AE00081E09DDE60E081E09ADE819ACE01019680
:101AF0000E945B038111E2CF998188E0EBE2F1E083
:101B00003197F1F700C0000090FD05C0809AFAE01F
:101B1000FA95F1F700C081982AE62A95F1F700C0FE
:101B2000819A80989695815049F761E081E077DE4F
:101B3000882309F4C3CF81E0E81AF108EFE8F1E067
:101B40003197F1F700C00000A895E114F10409F005
:101B5000B3CF0E94D50201151105B9F0D0FE12C015
:101B6000809A8498F5E0FA95F1F7000081982AE0D0
:101B70002A95F1F700C0799B06C00E946F01811180
:101B8000FACF0AC08498C80109C08AE68A95F1F79D
:101B900000C080B38D7E80BB80E090E00F90DF912D
:101BA000CF911F910F91FF90EF90DF90CF9008950C
:101BB000611108C0E82FF0E0E655FE4FE49180B3D4
:101BC000E82B0AC0E62FF0E0E655FE4F811106C073
:101BD000E49180B3E095E823E0BB08959491E82F69
:101BE000F0E0E655FE4FE49180B3E82BE0BB80B314
:101BF0009095982390BB089580B38C7A80BB85E341
:101C00008A95F1F700008EE091E00895CF93DF937D
:101C1000C82FD8E0C7FF02C0809A01C080988AE030
:101C20008A95F1F700C081988AE08A95F1F700C0A3
:101C3000799B05C00E946F018111FACF1CC0C7FFBC
:101C400002C0809806C0809A04C00E946F01882359
:101C500091F0799BFACF819A80988AE08A95F1F782
:101C600000C0789B05C00E946F018111FACF03C0AC
:101C7000CC0FD15079F6DF91CF910895FF920F9359
:101C80001F93CF93DF9318E0C0E0FF24F39478997B
:101C900006C00E946F018111FACF8FEF2BC081988F
:101CA0008AE08A95F1F700C0DFB1D695D170DF25C3
:101CB00011F000E801C000E0809A8FB18695817034
:101CC0008F25D81305C00E946F018111F6CFE5CF93
:101CD00080988AE08A95F1F700C0789B05C00E9441
:101CE0006F018111FACFD9CFC695C02B819A1150BF
:101CF00071F68C2FDF91CF911F910F91FF90089576
:101D0000CF93DF93D82FC4E0D0FF02C0809A01C0E8
:101D100080988AE08A95F1F700C08498799905C087
:101D20000E946F018111FACF1AC0D695D0FF02C070
:101D3000809A01C080988AE08A95F1F700C0D69514
:101D4000849A799B05C00E946F018111FACF07C068
:101D5000C150D1F680988AE08A95F1F700C0DF91F2
:101D6000CF9108951F93CF93DF93D4E0C0E079998A
:101D700006C00E946F018111FACF8FEF23C08AE065
:101D80008A95F1F700C0789902C010E801C010E010
:101D90008498799B05C00E946F018111FACFEDCF25
:101DA0008AE08A95F1F700C08C2F8695812B869565
:101DB000789902C0C0E801C0C0E0C82B849AD15015
:101DC000B1F68C2FDF91CF911F910895CF93DF93C0
:101DD000EC01789B05C00E946F018111FACF19C0F8
:101DE00088819FEF94B985B982E08A95F1F700C0A8
:101DF0008198789905C00E946F018111FACF09C0BE
:101E000089819FEF94B985B982E08A95F1F700C086
:101E1000819ADF91CF910895CF93DF93EC01789B66
:101E200005C00E946F018111FACF11C014B815B816
:101E300083B188838198789905C00E946F018111D0
:101E4000FACF05C014B815B883B18983819ADF91A0
:101E5000CF9108959FEF94B985B982E08A95F1F703
:101E600000C08198789905C00E946F018111FACF56
:101E700007C0819A789B04C00E946F018111FACF3C
:101E80000895CF938198789906C00E946F018111BF
:101E9000FACFCFEF0BC014B815B8C3B1819A789BB5
:101EA00005C00E946F018111FACFF3CF8C2FCF9123
:101EB0000895849A80B38C7F80BB8AE18A95F1F77C
:101EC00000C0789BFECF95E09A95F1F7000014B81A
:101ED00015B883B184987899FECF9AE19A95F1F775
:101EE00000C0089531E02FB1217023272613FBCFC6
:101EF00014B815B823B1FC01208380E00895849ABA
:101F000090B39C7F90BB9AE19A95F1F700C0789BC3
:101F1000FECF9FEF94B985B985E08A95F1F700006F
:101F2000849895E39A95F1F700007899FECF14B85C
:101F300015B883B1089521E09FB19170922796134F
:101F4000FBCF9FEF94B985B980E00895849A80B360
:101F50008C7D80BB25E02A95F1F7000098E080E0B9
:101F60007D99FECF7D9BFECF22E02A95F1F72FB120
:101F7000880F2170822B915099F78498799BFECF1E
:101F80000895849A90B39C7D90BB2AE12A95F1F73D
:101F900000C07999FECF98E087FF02C0809801C009
:101FA000809A859A880F00C000C00000859825E0BF
:101FB0002A95F1F7915081F785E08A95F1F70000B5
:101FC0008498799BFECF0895982F24E630E041E075
:101FD0008FB1869581708427861739F02150310999
:101FE00021153105A9F78FEF089588E097FF02C00A
:101FF000809801C0809A859A990F00C000C00000A7
:10200000859825E02A95F1F7815081F70895AA1B5C
:10201000BB1B51E107C0AA1FBB1FA617B70710F0D3
:10202000A61BB70B881F991F5A95A9F78095909505
:10203000BC01CD010895EE0FFF1F0590F491E02D36
:102040000994F999FECF92BD81BDF89A992780B580
:062050000895F894FFCF93
:102056000304000F08033000300030000000470C76
:0E206600220D9B0C2A0C060CD80D0055AAFF6B
:00000001FF
