:10000000CFC00000EBC00000E9C00000E7C0000066
:10001000E5C00000E3C00000E1C00000DFC0000058
:10002000DDC00000DBC000000C94810A0C944B0B77
:10003000D5C00000D3C00000D1C00000CFC0000078
:10004000CDC00000CBC00000C9C00000C7C0000088
:10005000C5C00000C3C00000C1C00000BFC0000098
:10006000BDC00000BBC00000B9C00000B7C00000A8
:10007000B5C00000B3C00000B1C00000AFC00000B8
:10008000ADC00000ABC00000A9C00000A7C00000C8
:10009000A5C00000A3C000005304D304BE05BE05E4
:1000A000BE05BE05BE05BE05BE05BE05BE05BE0538
:1000B000BE05BE05BE0563056C0597059F057F055A
:1000C0006F058805AA05B4059906BA06B607BA06EB
:1000D000B607FC061907B60779078F0740037800B3
:1000E00075006D00310035003400310020006600DD
:1000F0006C006F00700070007900200061006400E7
:100100006100700074006500720020002800550036
:10011000530042004B0045005900290000003A03FB
:100120004E0061007400650020004C006100770003
:1001300073006F006E00200061006E0064002000FC
:100140004F00700065006E00430042004D0020002B
:100150007400650061006D000000040309040902D9
:10016000200001010080320904000002FF000000AD
:100170000705830240000007050402400000120149
:100180001001FF000008D01604050700010203015A
:1001900000100414011105154050445441514555B7
:1001A00011241FBECFEFD0E2DEBFCDBF11E0A0E033
:1001B000B1E0E8E7FEE100E00BBF02C007900D925E
:1001C000AE31B107D9F721E0AEE1B1E001C01D9237
:1001D000AF33B207E1F7F9D00C943A0F11CF809109
:1001E0002F01089581E054D510922F0181E0809372
:1001F0001E01089510921E0110922D0180E048C545
:100200000F931F93CF93DF93CDB7DEB728970FB629
:10021000F894DEBF0FBECDBF80913701807680326B
:1002200091F58E010F5F1F4F88E0F80111928A95BA
:10023000E9F7B8018091380166D28F3F19F484E064
:1002400027D521C09091E800977F9093E800909186
:10025000370197FF0BC0682F772767FD7095C8019E
:100260009DD78091E800982F9B7F08C08091E8007F
:1002700080FFFCCF8091E800982F9E7F9093E8004C
:100280008F778093E80028960FB6F894DEBF0FBEF4
:10029000CDBFDF91CF911F910F910895E9EEF0E06E
:1002A0008081877091E090932F0194E09083ABEE72
:1002B000B0E09C9190629C9393E090839C919062BB
:1002C0009C9380830895CF93DF931F92CDB7DEB7C1
:1002D000A89580912F01811107C001D5882331F0A5
:1002E0008983F1D4898103C080E001C081E00F904F
:1002F000DF91CF9108954091E9004770E0E0F1E08F
:1003000081E090E0DF0120812223E9F02093E900E1
:1003100031969C010C9002C0220F331F0A94E2F721
:100320002093EA001092EA002091EB0028602093CD
:10033000EB002091EB0025FFE5CF2091EB00206141
:100340002093EB00DFCF4093E9000895D4DF46E32C
:1003500061E883E017D646E360E884E013D682E0E4
:1003600097D481E080932D01089524E02093E90043
:1003700070E04FEE50E0DED680912F0181110BC06E
:100380008091E800982F9B7F9093E8008F7780936F
:10039000E80081E0089580E0089523E02093E900DB
:1003A00070E04FEE50E092D680912F0181110BC08A
:1003B0008091E800982F9E7F9093E8008F7780933C
:1003C000E80081E0089580E00895CF93DF93CDB7F2
:1003D000DEB727970FB6F894DEBF0FBECDBF90E013
:1003E00080E80FB6F89480936100909361000FBE8F
:1003F0002EE088E190E00FB6F894A8958093600015
:100400000FBE209360000E943F0A80911E0181115F
:1004100002C0A895FACF23D480E03AD47ED0A89524
:1004200080912D01882399F180913601843049F51E
:100430008093E9008091E80085FF23C064E0CE014D
:10044000019693DF811103C084E022D41AC01D827B
:100450001E821F82BE016B5F7F4FCE010196FCD1D1
:10046000181634F48D8363E0CE01059696DF09C03B
:10047000882339F084E00CD48091EB008062809373
:10048000EB0021DF8111CCCF10922F01C9CF8091D9
:100490001E018111C4CFA895FACF80912601811148
:1004A00002C00C94C70E88E8089590912601992304
:1004B00069F0E0912001F09121019F012F5F3F4FF2
:1004C00030932101209320018083089590911F0192
:1004D000943081F49DEF980F933040F08B3031F0E1
:1004E0009DEE980F923010F0863199F491E0909340
:1004F00026010FC0E92FF0E0E65EFE4F20812813B1
:1005000002C09F5F03C0811104C091E090931F015E
:1005100002C010921F010C94EF0E10922701B1D36C
:100520000C946C0D613011F423E003C061110DC017
:1005300024E02093E90090932A018093290160939D
:1005400003018091E80085FFFCCF089580910301AD
:10055000813089F48091F2009091F300892B31F47D
:100560008091290190912A01892BE9F08091E8007E
:10057000982F9E7F13C0811116C080912901909100
:100580002A01009719F06FEE70E075D58091E800B0
:1005900085FD09C08091E800982F9B7F9093E8002B
:1005A0008F778093E8008FE08093030110922A01F7
:1005B0001092290108958093F10080912901909172
:1005C0002A01019790932A01809329018091E800E4
:1005D00085FF04C080912F01819508958091E800E6
:1005E000982F9E7F9093E8008F778093E80080910A
:1005F000E80085FDEFCF80912F018823C1F3EACF7A
:10060000CF92DF92FF920F931F93CF93DF931F92AE
:10061000CDB7DEB78C01F62E61E08F2D972F798351
:1006200081DFCF2C7981D72EC114D10441F0F8019C
:100630000995C1DFF1E0CF1AD1088823A9F386DF3D
:1006400080E00F90DF91CF911F910F91FF90DF908D
:10065000CF9008952091E80025FF13C020912F012D
:10066000211121C02091F100FC01208380912901FA
:1006700090912A01019790932A018093290180E0AB
:1006800008952091E800322F3B7F3093E8002F77C8
:100690002093E8002091E80025FDE0CF20912F0174
:1006A0002223C1F3DBCF8FEF0895DF92EF92FF9209
:1006B0000F931F93CF93DF9300D0CDB7DEB77C01AC
:1006C000D62E60E08D2D972F7A832CDF0D2D7A8129
:1006D000172F0115110559F0CE010196BBDF01500E
:1006E0001109811104C08981F7010995F2CF2EDF2C
:1006F00080E00F900F90DF91CF911F910F91FF90AD
:10070000EF90DF900895CF93DF93EB01823009F4EF
:100710008DC038F4882309F441C0813009F441C008
:1007200093C0833009F47DC0843009F08DC080917E
:10073000E800877F8093E8008091E80080FFFCCF8D
:100740008091E800982F9E7F9093E8008F778093A8
:10075000E8002FEF80E792E0215080409040E1F7E1
:1007600000C0000088E10FB6F894809360001092FA
:1007700060000FBE94D6F89493E080E80FB6F8942A
:1007800080936100909361000FBE109281001092DF
:100790008900109288000C9400785AC0188281E079
:1007A00058C082E291E0909321018093200183E080
:1007B0006FD28091300190913101892B29F4ADDE07
:1007C00090933101809330018091300190913101FB
:1007D000892BD1F187E0888383E089838091270189
:1007E0008A8390912801992379F081608A8381E03E
:1007F00080932801E0913001F09131010190F08166
:10080000E02D80E009954ADD809128018068809381
:10081000280180912D01811119C08A8182608A830B
:1008200015C01092280182E033D212C080912801B5
:1008300080FD0EC0E0913001F09131010190F08116
:10084000E02D80E0099504C08FEF03C088E001C06F
:1008500080E0DF91CF910895BF92CF92DF92EF9227
:10086000FF920F931F93CF93DF9300D0CDB7DEB7E6
:100870007C016B01809128018E7F80932801D70134
:10088000BC9012960D911C91139783E001D24B2DD1
:1008900050E0FA013897E831F10508F06FC1E45BE8
:1008A000FF4F0C942C0F8091270184FD1AC0F70193
:1008B0008181807F803439F140F48032E1F08033EF
:1008C000F1F0803109F05AC10CC0803691F18037C7
:1008D00009F464C0803509F051C1B8018FEA9EE087
:1008E00060C0E0913001F09131010480F581E02D8C
:1008F000C8010995E6C0B80180EB9DE052C0B8017F
:1009000086E29EE04EC061E0C8010CDE01151105D3
:1009100009F4C3C0CE0101960E947C0E89814BDE92
:100920008111BBC08A8147DE8111B7C00250110915
:10093000EDCF6801E894D7F8C114D10409F4C1C01F
:100940001092260161E0C601EDDD14988FE19EE46E
:100950000197F1F700C000000E94C70EE12CF12CB6
:10096000002710786E2D6170CE0101960E94E00E76
:1009700087FDA7C089811FDE81110CC001151105FB
:1009800019F08981853531F09FEFE91AF90AEC14E5
:10099000FD0441F7DBDD0E94C70E93C0B8018DE472
:1009A00092E02EDE8EC080912701D70111966C91C6
:1009B00084FD19C0862F807F803441F140F480325D
:1009C000E9F08033F9F0803109F0D8C00CC08036EE
:1009D000A9F1803709F471C0803509F0CFC0B801A2
:1009E0008AE99EE06DC0E0913001F09131016F70B5
:1009F0000280F381E02DC8010995B2C0B80186E7F5
:100A00009DE05EC0B80184EF9DE05AC060E0C8017F
:100A100089DD0115110509F440C0CE0101961ADEE9
:100A200081113BC0CE01029615DE811136C0CE0188
:100A300001960E945A0E02501109EBCF01151105C3
:100A400009F43FC01092260160E0C8016BDD1498E4
:100A500082E2E82E81E0F82E809120019091210120
:100A6000E816F90631F0D7018D917D010E94EF0E55
:100A7000F3CF82E291E09093210180932001E12C59
:100A8000F12CCE010196E6DD882349F06E2D6170D0
:100A900080E00E940B0F0E94C70E58DD12C06E2D21
:100AA000617089810E940B0F87FD0BC0BFEFEB1AAD
:100AB000FB0AE016F10629F7E9CFB80185E592E0D7
:100AC000F4DD80E05CC020912E0181E090E02111F6
:100AD00047C080E090E044C010922E014DC0E091EC
:100AE0003001F09131010680F781E02DD701129697
:100AF0006C91129711968C910995882311F3E091CE
:100B00003001F09131010084F185E02D099527C075
:100B1000E0913001F09131010284F385E02DD7019D
:100B200012966C91129711968C91099525C080911F
:100B3000270184FD23C017B818B886B110C0809172
:100B4000270184FD1BC0D70111968C919FEF97B9A7
:100B500088B912C08091270184FD10C09EDC90E00E
:100B6000F6019283818308C08091270184FD06C02D
:100B7000D70111968C9199DC82E001C08FEF0F9024
:100B80000F90DF91CF911F910F91FF90EF90DF9029
:100B9000CF90BF9008950F931F93CF93DF93EA01F7
:100BA0008901F9011082692F77276230710561F0A0
:100BB0006330710571F06130710509F040C082E168
:100BC00090E02EE731E03FC080E290E02EE531E09A
:100BD0003AC0992781309105B1F090F082309105AB
:100BE000A9F0039761F580E090E00E94320F90E059
:100BF000809590959927ECE0F1E02AE030E00CC078
:100C0000EAE5F1E005C0EEE1F1E002C0ECEDF0E074
:100C1000849190E09F0117C0009741F0B9010E94B4
:100C2000180FC09692938293CB01F6CF8091040166
:100C300090E022E0F801208324E031E004C080E06D
:100C400090E020E030E039832883DF91CF911F913D
:100C50000F9108959BB19F70982B9BB908958AB10D
:100C6000806F8AB98BB18F708BB98DE093E09093D0
:100C7000890080938800E1E8F0E080818D608083C6
:100C8000089585E581B98AEA82B918B817B8089538
:100C900080932C01823079F028F4882341F0813050
:100CA00041F00895833049F0843049F0089580E898
:100CB00009C080E407C080E205C080E601C080E989
:100CC00080932B01C7CF80912C018350823030F468
:100CD0008BB1807F90912B018927BCCF0895B19B68
:100CE00003C0B19A81E0089580E008951F93CF93E7
:100CF000DF93CDB7DEB7AB970FB6F894DEBF0FBE6C
:100D0000CDBFE7E3F1E08091F100819321E0EF3383
:100D1000F207C9F72091370130913801832F90E015
:100D20008A30910508F022C1FC01EC59FF4F0C9468
:100D30002C0F203879F0223809F018C180913B013E
:100D40008093E9008091EB0085FB882780F9109261
:100D5000E90006C0809132019091330191118260C7
:100D60009091E800977F9093E8008093F1001092B3
:100D7000F100CAC0822F8D7F09F0F8C0222319F03C
:100D8000223061F0E4C080913901813009F0DFC088
:100D9000333009F080E08093330128C0809139011D
:100DA000811124C020913B01277009F4D0C0209309
:100DB000E9008091EB0080FF19C08091EB00333097
:100DC00011F4806211C080618093EB0081E090E0BB
:100DD000022E01C0880F0A94EAF78093EA0010926D
:100DE000EA008091EB0088608093EB001092E900AC
:100DF0008091E800877F8FC02111B8C01091390120
:100E00008091E800877F8093E800E6D08091E80039
:100E100080FD05C0809136018111F8CF98C0812FE7
:100E20008F7719F093E09093360180688093E30008
:100E30008EC02058223008F099C0809139019091DD
:100E40003A018C3D23E0920761F583E08A838AE2D0
:100E50008983DE01139620E03EE041E2E32FF0E0DB
:100E600040935700E49120FF03C0E295EF703F5F8D
:100E7000EF7090E39E0F9A3310F0E95C01C0E92F08
:100E80008E2F90E08D939D932F5F243139F78091C1
:100E9000E800877F8093E8006AE270E0CE01019667
:100EA0001DC09E01255D3F4FAE014F5F5F4F6091BA
:100EB0003B0171DEBC01009709F449C08091E80054
:100EC000877F8093E8002BA589819A81211102C038
:100ED000C3D105C0213011F41ED201C05FD1809171
:100EE000E800982F9B7F9093E8008F778093E8002D
:100EF0002EC02038D9F58091E800877F8093E800E4
:100F0000809134018093F1008091E800982F9E7FBA
:100F10009093E8008F778093E8005ED018C021118D
:100F200025C090913901923090F48091E800877F3C
:100F30008093E800909334014FD08091340188234E
:100F400011F084E001C083E080933601FFD98091E5
:100F5000E80083FF0DC08091EB0080628093EB007E
:100F60008091E800877F8093E80002C049D9EFCFE5
:100F7000AB960FB6F894DEBF0FBECDBFDF91CF9119
:100F80001F9108958093E900EBEEF0E0808181608D
:100F90008083EDEEF0E010826093EC00408380915E
:100FA000EE00881F8827881F08951092F40080E0C3
:100FB0008093E9001092F0001092E8009091ED000B
:100FC0009D7F9093ED009091EB009E7F9093EB00BE
:100FD0008F5F873069F708958091370187FD05C0DD
:100FE0008091E80080FF0FC013C08091E80082FD6F
:100FF00005C0809136018111F8CF08958091E800F5
:10100000982F9B7F09C0809136018111E9CF089507
:101010008091E800982F9E7F9093E8008F778093CF
:10102000E800089585E69091EC0090FF05C090914E
:10103000E80090FF05C019C09091E80092FD15C02E
:1010400090913601992399F09091EB0095FD11C094
:101050009091E10092FFE7CF9091E1009B7F909308
:10106000E100815001F783E0089580E0089582E077
:10107000089581E008950F931F93CF93DF93EC01C0
:101080008B01D0DF81111DC02097D1F08091E80045
:1010900085FD12C08091E800982F9B7F9093E80017
:1010A0008F778093E8000115110559F3F801099530
:1010B000813039F784E005C08091F1002197E4CFB9
:1010C00080E0DF91CF911F910F910895EF92FF92F1
:1010D0000F931F93CF93DF93EC018B017A01A2DF73
:1010E000811121C001151105E9F08091E80085FD0D
:1010F00012C08091E800982F9E7F9093E8008F7730
:101100008093E800E114F10451F3F701099581306F
:1011100031F784E008C088818093F1000150110903
:101120002196E0CF80E0DF91CF911F910F91FF904A
:10113000EF900895EF92FF920F931F93CF93DF9359
:10114000EC018B017A016EDF811121C001151105BF
:10115000E9F08091E80085FD12C08091E800982FA9
:101160009B7F9093E8008F778093E800E114F1046F
:1011700051F3F7010995813031F784E008C080917F
:10118000F1008883015011092196E0CF80E0DF91C2
:10119000CF911F910F91FF90EF90089520913D0105
:1011A00030913E012617370768F06115710559F433
:1011B0002091E800322F3E7F3093E8002F77209374
:1011C000E80001C0B90140E061157105C9F1209145
:1011D000E80023FD3DC02091E80022FF06C0809179
:1011E000E80082FF30C080E008952091360122237C
:1011F00089F12091E80020FFE7CF2091F2003091A3
:10120000F300FC01CF016115710559F0283031055B
:1012100040F481918093F100615071092F5F3F4F3D
:10122000F1CF41E02830310509F040E02091E8009D
:10123000322F3E7F3093E8002F772093E800C4CF11
:101240004111C5CFCCCF809136018111C8CF02C0EA
:1012500081E0089582E0089520913D0130913E01A2
:101260002617370768F06115710559F42091E800D9
:10127000322F3E7F3093E8002F772093E80001C0A3
:10128000B90140E061157105D1F12091E80023FD1D
:101290003EC02091E80022FF06C08091E80082FF56
:1012A00031C080E0089520913601222391F12091F0
:1012B000E80020FFE7CF2091F2003091F300FC011D
:1012C000CF016115710561F02830310548F4849132
:1012D0008093F100615071092F5F3F4F3196F0CF3D
:1012E00041E02830310509F040E02091E800322F3C
:1012F0003E7F3093E8002F772093E800C3CF411161
:10130000C4CFCBCF809136018111C7CF02C081E01D
:10131000089582E00895EF92FF920F931F93CF9369
:10132000DF93EB0120913D0130913E0126173707F5
:1013300060F0209759F42091E800322F3E7F3093DF
:10134000E8002F772093E80001C0E90120E0209712
:10135000D9F13091E80033FD3FC03091E80032FF11
:1013600006C08091E80082FF32C080E038C0309132
:101370003601332399F13091E80030FFE8CF009136
:10138000F2001091F3007C01E01AF10AC701800F0E
:10139000911F209751F00830110538F463D58093E0
:1013A000F10021970F5F1F4FF1CF21E008301105A9
:1013B00009F020E03091E800432F4E7F4093E80091
:1013C0003F773093E800C3CF2111C3CFCACF8091BC
:1013D00036018111C6CF02C081E001C082E0DF91F9
:1013E000CF911F910F91FF90EF9008957DD084D001
:1013F0001092360110923401109233011092320192
:101400008CE089BD89B5826089BD09B400FEFDCF3D
:101410008091D800982F9F779093D8008068809310
:10142000D8008091D70081608093D7008091D80048
:101430008F7D8093D8008091E0008B7F8093E000C7
:101440008091E0008E7F8093E0008091E1008E7FAC
:101450008093E1008091E20081608093E2008091BE
:10146000E100877F8093E1008091E20088608093B3
:10147000E2008091D80081608093D8000895E7ED64
:10148000F0E0808180688083B1DFE8EDF0E080816A
:101490008061808381E08093350178940895A6DF90
:1014A000E0EEF0E0808181608083E8EDF0E0808113
:1014B0008F77808319BC80818F7E80831092350165
:1014C00008950895CF9380913601882359F0C091F3
:1014D000E900C7701092E9008091E80083FD06DC06
:1014E000C093E900CF910895E8EDF0E080818C7F12
:1014F00080831092E20008951092DA001092E100C9
:1015000008951F920F920FB60F9211240BB60F92EF
:101510002F933F934F935F936F937F938F939F93FB
:10152000AF93BF93EF93FF938091DA0080FF17C0D2
:101530008091D80080FF13C08091DA008E7F809365
:10154000DA008091D90080FF06C081E080933601E7
:101550000E94F20004C0109236010E94FA008091AD
:10156000E10080FF1DC08091E20080FF19C08091E2
:10157000E1008E7F8093E1008091E2008E7F809376
:10158000E2008091E20080618093E2008091D800C7
:1015900080628093D80019BC85E08093360191DF8A
:1015A0008091E10084FF2AC08091E20084FF26C080
:1015B0008CE089BD89B5826089BD09B400FEFDCF8C
:1015C0008091D8008F7D8093D8008091E1008F7E3C
:1015D0008093E1008091E2008F7E8093E200809111
:1015E000E20081608093E20080913401882311F051
:1015F00084E001C083E08093360163DF8091E100E5
:1016000083FF28C08091E20083FF24C08091E10025
:10161000877F8093E10082E080933601109234014D
:101620008091E1008E7F8093E1008091E2008E7FC7
:101630008093E2008091E20080618093E200B5DC5B
:1016400042E060E080E09EDC8091F0008860809362
:10165000F00037DF8091E10082FF0AC08091E20054
:1016600082FF06C08091E1008B7F8093E10029DF3B
:10167000FF91EF91BF91AF919F918F917F916F916A
:101680005F914F913F912F910F900BBE0F900FBE26
:101690000F901F9018951F920F920FB60F92112462
:1016A0000BB60F921F932F933F934F935F936F93BC
:1016B0007F938F939F93AF93BF93CF93DF93EF93DA
:1016C000FF93C9EED0E018811770FCDEE8EEF0E081
:1016D0008081877F80831883FF91EF91DF91CF9185
:1016E000BF91AF919F918F917F916F915F914F913A
:1016F0003F912F911F910F900BBE0F900FBE0F9037
:101700001F90189590B1969594FB882780F921E059
:10171000822792FF826090FF8460089529EC90B147
:1017200096959823961307C0215029F09AE19A952F
:10173000F1F700C0F4CF90B19695982381E096130D
:1017400001C080E00895CF93DF93E82FF0E0E057E9
:10175000FE4FD491611102C0C0E00AC0CD2F08C075
:101760000E946301882351F08AE18A95F1F700C055
:1017700080B186958D238C1799F381E0DF91CF910D
:1017800008951F93CF93DF93182F92B19A7E92B949
:10179000169A2FEF80E792E0215080409040E1F7C9
:1017A00000C000001698CCE4DDE192B19A7A92B9BB
:1017B00025E82A95F1F70000059905C08BE291E034
:1017C0000197F1F70AC095E89A95F1F7000005999D
:1017D00007C087EC90E00197F1F700C0000014C04B
:1017E000109A87EC90E00197F1F700C00000059B8C
:1017F00002C0109809C0109887EC90E00197F1F7AB
:1018000000C00000059909C00E946301882329F0E7
:101810002197209751F61111C8CFDF91CF911F91D9
:101820000895CF92DF92EF92FF920F931F93CF9381
:10183000DF937C0161E00E949202C0E0D0E0CC2402
:10184000C39401E513EC039913C00150110901156C
:10185000110521F00E946301811105C00E94A602BA
:1018600080E090E058C085E38A95F1F70000EBCF67
:1018700080912E018111F2CF149889EC039B07C04F
:10188000815029F095E09A95F1F70000F7CF039B7E
:1018900008C0C0922E01149A8AEB8A95F1F700C015
:1018A0001498F89464E084E039DF182F88E0D82E8B
:1018B00000E0112379F060E084E030DF182F882306
:1018C00039F006950599006864E084E027DF182F59
:1018D000DA9479F77894112359F0149A802F0E94A2
:1018E000DB02811115C0219695E89A95F1F7000069
:1018F000A895CE15DF0541F0112341F080912E010E
:10190000882309F49ECF04C0111102C0C0E0D0E0CA
:101910000E94A602CE01DF91CF911F910F91FF90FF
:10192000EF90DF90CF900895CF92DF92EF92FF92E9
:101930000F931F93CF93DF931F92CDB7DEB78C0128
:10194000D62E10922E01009709F498C060E00E94F4
:10195000920260E081E4E2DE8823C1F014988D2DCC
:101960008270C82ED1FE02C095E001C094E082B121
:10197000892B82B995E09A95F1F7000060E180E14A
:10198000CDDE811106C082B18A7F82B90E94A60293
:1019900075C08AE68A95F1F700C07801059B03C0FF
:1019A00000E010E046C01298059905C00E9463014E
:1019B0008111FACFF5CF81E0E816F10441F4C110AE
:1019C00006C060E180E1AADE60E080E1A7DE129A55
:1019D000CE0101960E942A038111E2CF298198E06D
:1019E00088EC8A95F1F720FD05C0149A85E08A9568
:1019F000F1F70000129885E38A95F1F7000082B1B3
:101A00008F7E846082B92695915051F760E180E124
:101A100085DE882329F291E0E91AF10887EC90E04D
:101A20000197F1F700C00000A895E114F10409F056
:101A3000B5CF0E94A60201151105C9F0D0FE14C051
:101A400082B18E7F806182B992E09A95F1F700C0F1
:101A5000129885E08A95F1F70000039B06C00E946A
:101A600063018111FACF0AC01098C80109C095E33B
:101A70009A95F1F7000082B18A7F82B980E090E008
:101A80000F90DF91CF911F910F91FF90EF90DF901A
:101A9000CF900895611108C0E82FF0E0E057FE4FA5
:101AA000E49182B1E82B0AC0E62FF0E0E057FE4F48
:101AB000811106C0E49182B1E095E823E2B908956E
:101AC0009491E82FF0E0E057FE4FE49182B19095B9
:101AD00098239E2B92B9089582B18A7A82B98AE1BD
:101AE0008A95F1F700C08EE091E00895CF93DF93DF
:101AF000C82FD8E0C7FF02C0149A01C0149885E02F
:101B00008A95F1F70000129885E08A95F1F70000B8
:101B1000039B05C00E9463018111FACF1EC0C7FF5D
:101B200002C0149806C0149A04C00E94630188235E
:101B3000A1F0039BFACF92B19F7E946092B985E0A9
:101B40008A95F1F70000059B05C00E946301811191
:101B5000FACF03C0CC0FD15069F6DF91CF91089531
:101B6000FF920F931F93CF93DF9318E0C0E0FF2401
:101B7000F394059906C00E9463018111FACF8FEF9B
:101B80002DC0129885E08A95F1F70000D0B1D3FB03
:101B9000DD27D0F9DF2511F000E801C000E0149A3C
:101BA00080B183FB882780F98F25D81305C00E9458
:101BB00063018111F5CFE3CF149885E08A95F1F7A1
:101BC0000000059B05C00E9463018111FACFD7CFA9
:101BD000C695C02B129A115061F68C2FDF91CF91D0
:101BE0001F910F91FF900895CF93DF93D82FC4E0FA
:101BF000D0FF02C0149A01C0149885E08A95F1F7CD
:101C000000001098039905C00E9463018111FACF6A
:101C10001AC0D695D0FF02C0149A01C0149885E06E
:101C20008A95F1F70000D695109A039B05C00E9493
:101C300063018111FACF07C0C150D1F6149885E035
:101C40008A95F1F70000DF91CF9108951F93CF930C
:101C5000DF93D4E0C0E0039906C00E9463018111C4
:101C6000FACF8FEF23C085E08A95F1F70000059940
:101C700002C010E801C010E01098039B05C00E944C
:101C800063018111FACFEDCF85E08A95F1F700006D
:101C90008C2F8695812B8695059902C0C0E801C0DE
:101CA000C0E0C82B109AD150B1F68C2FDF91CF91A4
:101CB0001F910895CF93DF93EC01059B05C00E940F
:101CC00063018111FACF15C088819FEF97B988B958
:101CD00000C000C01298059905C00E9463018111DF
:101CE000FACF07C089819FEF97B988B900C000C0BB
:101CF000129ADF91CF910895CF93DF93EC01059B6A
:101D000005C00E9463018111FACF11C017B818B83D
:101D100086B188831298059905C00E9463018111DC
:101D2000FACF05C017B818B886B18983129ADF9127
:101D3000CF9108959FEF97B988B900C000C012985D
:101D4000059905C00E9463018111FACF07C0129A5C
:101D5000059B04C00E9463018111FACF0895CF93BF
:101D60001298059906C00E9463018111FACFCFEF46
:101D70000BC017B818B8C6B1129A059B05C00E94CF
:101D800063018111FACFF3CF8C2FCF91089582B1E7
:101D90008B7E816082B98DE08A95F1F70000059B0A
:101DA000FECF92E09A95F1F700C017B818B886B147
:101DB00010980599FECF9DE09A95F1F700000895DF
:101DC00031E020B125FB222720F923272613F9CF64
:101DD00017B818B826B1FC01208380E0089592B1AD
:101DE0009B7E916092B99DE09A95F1F70000059B6A
:101DF000FECF9FEF97B988B982E08A95F1F700C0CE
:101E000010989AE19A95F1F700C00599FECF17B89E
:101E100018B886B1089521E090B195FB992790F903
:101E200092279613F9CF9FEF97B988B980E008956C
:101E3000AA1BBB1B51E107C0AA1FBB1FA617B707F0
:101E400010F0A61BB70B881F991F5A95A9F780950C
:101E50009095BC01CD010895EE0FFF1F0590F49100
:101E6000E02D0994F999FECF92BD81BDF89A99278A
:081E700080B50895F894FFCF3E
:101E78000304000F08033000300030000000C10BDD
:0E1E8800940C110CA30B820B4A0D0055AAFFFF
:00000001FF
